{
  "contractName": "BecomeWinner",
  "abi": [
    {
      "constant": true,
      "inputs": [],
      "name": "INIT_DURATION",
      "outputs": [
        {
          "name": "",
          "type": "uint256"
        }
      ],
      "payable": false,
      "stateMutability": "view",
      "type": "function"
    },
    {
      "constant": true,
      "inputs": [],
      "name": "DURATION_INCREMENT",
      "outputs": [
        {
          "name": "",
          "type": "uint256"
        }
      ],
      "payable": false,
      "stateMutability": "view",
      "type": "function"
    },
    {
      "constant": true,
      "inputs": [],
      "name": "endTime",
      "outputs": [
        {
          "name": "",
          "type": "uint256"
        }
      ],
      "payable": false,
      "stateMutability": "view",
      "type": "function"
    },
    {
      "constant": true,
      "inputs": [],
      "name": "winner",
      "outputs": [
        {
          "name": "",
          "type": "address"
        }
      ],
      "payable": false,
      "stateMutability": "view",
      "type": "function"
    },
    {
      "inputs": [],
      "payable": true,
      "stateMutability": "payable",
      "type": "constructor"
    },
    {
      "payable": true,
      "stateMutability": "payable",
      "type": "fallback"
    },
    {
      "constant": false,
      "inputs": [],
      "name": "becomeWinner",
      "outputs": [],
      "payable": true,
      "stateMutability": "payable",
      "type": "function"
    },
    {
      "constant": false,
      "inputs": [],
      "name": "withdrawPrize",
      "outputs": [],
      "payable": false,
      "stateMutability": "nonpayable",
      "type": "function"
    }
  ],
  "bytecode": "0x608060405242610e100160005560018054600160a060020a031916331790556103898061002d6000396000f3006080604052600436106100775763ffffffff7c01000000000000000000000000000000000000000000000000000000006000350416631db796ef81146100795780632d68d554146100a05780633197cbb6146100b557806348d37a58146100ca578063b474bce0146100df578063dfbf53ae146100e7575b005b34801561008557600080fd5b5061008e610125565b60408051918252519081900360200190f35b3480156100ac57600080fd5b5061008e61012b565b3480156100c157600080fd5b5061008e610130565b3480156100d657600080fd5b50610077610136565b610077610240565b3480156100f357600080fd5b506100fc610341565b6040805173ffffffffffffffffffffffffffffffffffffffff9092168252519081900360200190f35b610e1081565b601e81565b60005481565b60015473ffffffffffffffffffffffffffffffffffffffff1633146101cb576040805160e560020a62461bcd02815260206004820152602360248201527f4f6e6c792077696e6e65722063616e20776974686472617720616c6c2070726960448201527f7a652e0000000000000000000000000000000000000000000000000000000000606482015290519081900360840190fd5b600054421015610225576040805160e560020a62461bcd02815260206004820152601260248201527f47616d65206973206e6f7420656e6465642e0000000000000000000000000000604482015290519081900360640190fd5b60015473ffffffffffffffffffffffffffffffffffffffff16ff5b600034116102be576040805160e560020a62461bcd02815260206004820152602d60248201527f596f75206d757374207061792061206c6974746c6520657468657220746f206260448201527f65636f6d652077696e6e65722e00000000000000000000000000000000000000606482015290519081900360840190fd5b6000544210610317576040805160e560020a62461bcd02815260206004820152600b60248201527f47616d6520656e6465642e000000000000000000000000000000000000000000604482015290519081900360640190fd5b60008054601e0190556001805473ffffffffffffffffffffffffffffffffffffffff191633179055565b60015473ffffffffffffffffffffffffffffffffffffffff16815600a165627a7a7230582091d9f5f84886a46eee8d5d66dc0b596e40070f7ca118cbd569079f9ade367fba0029",
  "source": "pragma solidity ^0.4.24;\n\ncontract BecomeWinner {\n    // 游戏持续时间常量\n    uint256 public constant INIT_DURATION = 3600;\n    // 游戏持续时间增量\n    uint256 public constant DURATION_INCREMENT = 30;\n    // 游戏的结束时间\n    uint256 public endTime;\n    // 最终赢家地址\n    address public winner;\n\n    constructor() public payable {\n        endTime = block.timestamp + INIT_DURATION;\n        winner = msg.sender;\n    }\n\n    function() public payable {\n    }\n\n    function becomeWinner() external payable {\n        require(msg.value > 0, \"You must pay a little ether to become winner.\");\n        require(block.timestamp < endTime, \"Game ended.\");\n        endTime = endTime + DURATION_INCREMENT;\n        winner = msg.sender;\n    }\n\n    function withdrawPrize() external {\n        require(msg.sender == winner, \"Only winner can withdraw all prize.\");\n        require(block.timestamp >= endTime, \"Game is not ended.\");\n        selfdestruct(winner);\n    }\n\n}",
  "sourcePath": "/Users/yangzhen/workspace/yikuailianxi/season1/homework-base/contracts/BecomeWinner.sol",
  "compiler": {
    "name": "solc",
    "version": "0.4.24+commit.e67f0147.Emscripten.clang"
  },
  "schemaVersion": "2.0.1",
  "updatedAt": "2018-09-30T12:50:48.054Z"
}