{
  "contractName": "BinaryIntSum",
  "abi": [
    {
      "constant": true,
      "inputs": [
        {
          "name": "input",
          "type": "uint16[10]"
        }
      ],
      "name": "runMinimalBinaryIntSum",
      "outputs": [
        {
          "name": "",
          "type": "uint32"
        }
      ],
      "payable": false,
      "stateMutability": "pure",
      "type": "function"
    }
  ],
  "bytecode": "0x608060405234801561001057600080fd5b506101a4806100206000396000f3006080604052600436106100405763ffffffff7c01000000000000000000000000000000000000000000000000000000006000350416631b0458548114610045575b600080fd5b34801561005157600080fd5b506040805161014081810190925261008a91369160049161014491908390600a908390839080828437509396506100a395505050505050565b6040805163ffffffff9092168252519081900360200190f35b60008060005b600a8160ff1610156100e2576100d18460ff8316600a81106100c757fe5b60200201516100e9565b61ffff1691909101906001016100a9565b5092915050565b6000600161ffff83168114158061010557508261ffff16600214155b1561016d5761ffff831615610164575b600161ffff84161461014f57600180841614156101405760ff600019820160020a1691909101906001015b600261ffff8416049250610115565b60ff600019820160020a169190910190610172565b60009150610172565b600191505b509190505600a165627a7a72305820205ee54d2e38cdcd2b8f2f6bc53162642595797c3fd1bce9f58aaa715455eacd0029",
  "source": "pragma solidity ^0.4.24;\n\ncontract BinaryIntSum {\n\n    /**\n     * @dev 计算输入的 10 个整数经“二进制位”数值最小化变换之后的总和\n     *\n     * @param input 给定的 10 个 uint16 类型的整数\n     * @return 输入数组中每个整数经 getMinimalBinaryInt 变换后的结果的总和\n     */\n    function runMinimalBinaryIntSum(uint16[10] input)\n        public pure returns(uint32)\n    {\n        uint32 result;\n        for (uint8 i; i < 10; i++) {\n            result += getMinimalBinaryInt(input[i]);\n        }\n        return result;\n    }\n    \n    /**\n     * @dev 将输入整数的所有二进制位重新排序，成为一个新的整数，使此整数数值尽量小\n     * @param input 给定的 uint16 类型的整数\n     * @return 经变换后的新整数\n     */\n    function getMinimalBinaryInt(uint16 input)\n        internal pure returns(uint16 nv)\n    {\n        // To be completed\n\n        // standard: 20333\n        // uint8 bitCount;\n        // nv = input;\n        // while (nv != 0) {\n        //     nv = nv & (nv - 1);\n        //     bitCount++;\n        // }\n        // nv = uint16(2) ** bitCount - 1;\n\n        // standard-best: 18586\n        // nv = 1;\n        // uint16 tv = input;\n        // while (tv != 0) {\n        //     tv &= (tv - 1);\n        //     nv = nv + nv;\n        // }\n        // nv -= 1;\n\n        // assembly: 19876\n        // assembly {\n        //     let bitCount := 0\n        //     let tv := input\n        //     for {} iszero(iszero(tv)) {} {\n        //         tv := and(tv, sub(tv, 1))\n        //         bitCount := add(bitCount, 1)\n        //     }\n        //     nv := sub(exp(2, bitCount), 1)\n        // }\n\n        // assembly-best: 17632\n        // assembly {\n        //     nv := 1\n        //     let tv := input\n        //     for {} iszero(iszero(tv)) {} {\n        //         tv := and(tv, sub(tv, 1))\n        //         nv := add(nv, nv)\n        //     }\n        //     nv := sub(nv, 1)\n        // }\n\n        uint8 k = 1;\n        if(input != 1 || input != 2){\n            if(input != 0){\n                //j =input/2;\n                for(;input != 1;){\n                    \n                    if(input%2 ==1){\n                        k++;\n                        nv = nv + 2**(k-2);\n                    }\n                    // j =input;\n                    input = input/2;\n                    //j = j/2;\n                }\n                nv =nv +2**(k-1);\n                return nv;\n                \n            }else{\n                return 0;\n            }\n        }else{\n            return 1;\n        }\n    }\n}\n",
  "sourcePath": "/Users/yangzhen/workspace/yikuailianxi/season1/homework-base/contracts/week4/BinaryIntSum.sol",
  "compiler": {
    "name": "solc",
    "version": "0.4.24+commit.e67f0147.Emscripten.clang"
  },
  "schemaVersion": "2.0.1",
  "updatedAt": "2018-10-04T03:04:01.550Z"
}