{
  "contractName": "Casino",
  "abi": [
    {
      "constant": true,
      "inputs": [],
      "name": "LIMIT_AMOUNT_BETS",
      "outputs": [
        {
          "name": "",
          "type": "uint256"
        }
      ],
      "payable": false,
      "stateMutability": "view",
      "type": "function"
    },
    {
      "constant": true,
      "inputs": [],
      "name": "numberOfBets",
      "outputs": [
        {
          "name": "",
          "type": "uint256"
        }
      ],
      "payable": false,
      "stateMutability": "view",
      "type": "function"
    },
    {
      "constant": true,
      "inputs": [],
      "name": "numberWinner",
      "outputs": [
        {
          "name": "",
          "type": "uint256"
        }
      ],
      "payable": false,
      "stateMutability": "view",
      "type": "function"
    },
    {
      "constant": true,
      "inputs": [],
      "name": "minimumBet",
      "outputs": [
        {
          "name": "",
          "type": "uint256"
        }
      ],
      "payable": false,
      "stateMutability": "view",
      "type": "function"
    },
    {
      "constant": true,
      "inputs": [],
      "name": "maxAmountOfBets",
      "outputs": [
        {
          "name": "",
          "type": "uint256"
        }
      ],
      "payable": false,
      "stateMutability": "view",
      "type": "function"
    },
    {
      "constant": true,
      "inputs": [
        {
          "name": "",
          "type": "uint256"
        }
      ],
      "name": "players",
      "outputs": [
        {
          "name": "",
          "type": "address"
        }
      ],
      "payable": false,
      "stateMutability": "view",
      "type": "function"
    },
    {
      "constant": true,
      "inputs": [],
      "name": "totalBet",
      "outputs": [
        {
          "name": "",
          "type": "uint256"
        }
      ],
      "payable": false,
      "stateMutability": "view",
      "type": "function"
    },
    {
      "inputs": [
        {
          "name": "_minimumBet",
          "type": "uint256"
        },
        {
          "name": "_maxAmountOfBets",
          "type": "uint256"
        }
      ],
      "payable": false,
      "stateMutability": "nonpayable",
      "type": "constructor"
    },
    {
      "constant": false,
      "inputs": [
        {
          "name": "player",
          "type": "address"
        }
      ],
      "name": "checkPlayerExists",
      "outputs": [
        {
          "name": "",
          "type": "bool"
        }
      ],
      "payable": false,
      "stateMutability": "nonpayable",
      "type": "function"
    },
    {
      "constant": false,
      "inputs": [
        {
          "name": "numberToBet",
          "type": "uint256"
        }
      ],
      "name": "bet",
      "outputs": [],
      "payable": true,
      "stateMutability": "payable",
      "type": "function"
    },
    {
      "constant": false,
      "inputs": [],
      "name": "generateNumberWinner",
      "outputs": [],
      "payable": true,
      "stateMutability": "payable",
      "type": "function"
    },
    {
      "constant": false,
      "inputs": [
        {
          "name": "myid",
          "type": "bytes32"
        },
        {
          "name": "result",
          "type": "string"
        }
      ],
      "name": "__callback",
      "outputs": [],
      "payable": false,
      "stateMutability": "nonpayable",
      "type": "function"
    },
    {
      "constant": false,
      "inputs": [
        {
          "name": "_queryId",
          "type": "bytes32"
        },
        {
          "name": "_result",
          "type": "string"
        },
        {
          "name": "_proof",
          "type": "bytes"
        }
      ],
      "name": "__callback",
      "outputs": [],
      "payable": false,
      "stateMutability": "nonpayable",
      "type": "function"
    },
    {
      "constant": false,
      "inputs": [],
      "name": "distributePrizes",
      "outputs": [],
      "payable": false,
      "stateMutability": "nonpayable",
      "type": "function"
    }
  ],
  "bytecode": "0x608060405267016345785d8a0000600655600a6009553480156200002257600080fd5b50604051604080620032f183398101604052805160209091015160058054600160a060020a0319163317905560008211156200005e5760068290555b60008111801562000070575060648111155b156200007c5760098190555b620000b07f3000000000000000000000000000000000000000000000000000000000000000640100000000620000b8810204565b5050620007a0565b600054600160a060020a03161580620000ee5750600054620000ec90600160a060020a031664010000000062000319810204565b155b156200010b576200010960006401000000006200031d810204565b505b6000809054906101000a9004600160a060020a0316600160a060020a03166338cc48316040518163ffffffff167c0100000000000000000000000000000000000000000000000000000000028152600401602060405180830381600087803b1580156200017757600080fd5b505af11580156200018c573d6000803e3d6000fd5b505050506040513d6020811015620001a357600080fd5b5051600154600160a060020a0390811691161462000275576000809054906101000a9004600160a060020a0316600160a060020a03166338cc48316040518163ffffffff167c0100000000000000000000000000000000000000000000000000000000028152600401602060405180830381600087803b1580156200022757600080fd5b505af11580156200023c573d6000803e3d6000fd5b505050506040513d60208110156200025357600080fd5b505160018054600160a060020a031916600160a060020a039092169190911790555b600154604080517f688dcfd70000000000000000000000000000000000000000000000000000000081527fff00000000000000000000000000000000000000000000000000000000000000841660048201529051600160a060020a039092169163688dcfd79160248082019260009290919082900301818387803b158015620002fd57600080fd5b505af115801562000312573d6000803e3d6000fd5b5050505050565b3b90565b60006200033264010000000062000338810204565b92915050565b60008062000363731d3b2638a7cc9f2cb3d298a3da7a90b67e5506ed64010000000062000319810204565b1115620003e15760008054600160a060020a031916731d3b2638a7cc9f2cb3d298a3da7a90b67e5506ed17905560408051808201909152600b81527f6574685f6d61696e6e65740000000000000000000000000000000000000000006020820152620003d890640100000000620006e5810204565b506001620006e2565b60006200040b73c03a2615d5efaf5f49f60b7bb6583eaec212fdf164010000000062000319810204565b1115620004805760008054600160a060020a03191673c03a2615d5efaf5f49f60b7bb6583eaec212fdf117905560408051808201909152600c81527f6574685f726f707374656e3300000000000000000000000000000000000000006020820152620003d890640100000000620006e5810204565b6000620004aa73b7a07bcf2ba2f2703b24c0691b5278999c59ac7e64010000000062000319810204565b11156200051f5760008054600160a060020a03191673b7a07bcf2ba2f2703b24c0691b5278999c59ac7e17905560408051808201909152600981527f6574685f6b6f76616e00000000000000000000000000000000000000000000006020820152620003d890640100000000620006e5810204565b60006200054973146500cfd35b22e4a392fe0adc06de1a1368ed4864010000000062000319810204565b1115620005be5760008054600160a060020a03191673146500cfd35b22e4a392fe0adc06de1a1368ed4817905560408051808201909152600b81527f6574685f72696e6b6562790000000000000000000000000000000000000000006020820152620003d890640100000000620006e5810204565b6000620005e8736f485c8bf6fc43ea212e93bbf8ce046c7f1cb47564010000000062000319810204565b11156200061e575060008054600160a060020a031916736f485c8bf6fc43ea212e93bbf8ce046c7f1cb4751790556001620006e2565b6000620006487320e12a1f859b3feae5fb2a0a32c18f5a65555bbf64010000000062000319810204565b11156200067e575060008054600160a060020a0319167320e12a1f859b3feae5fb2a0a32c18f5a65555bbf1790556001620006e2565b6000620006a87351efaf4c8b3c9afbd5ab9f4bbc82784ab6ef8faa64010000000062000319810204565b1115620006de575060008054600160a060020a0319167351efaf4c8b3c9afbd5ab9f4bbc82784ab6ef8faa1790556001620006e2565b5060005b90565b8051620006fa906002906020840190620006fe565b5050565b828054600181600116156101000203166002900490600052602060002090601f016020900481019282601f106200074157805160ff191683800117855562000771565b8280016001018555821562000771579182015b828111156200077157825182559160200191906001019062000754565b506200077f92915062000783565b5090565b620006e291905b808211156200077f57600081556001016200078a565b612b4180620007b06000396000f3006080604052600436106100ab5763ffffffff60e060020a6000350416630a50e36181146100b05780631900874b146100ba57806327dc297e146100e15780632ca8c6d31461013c57806338bbfa50146101515780634081d916146101ec5780637365870b146102215780637ce52eb61461022c5780639a6a68e914610241578063c38a8afd14610256578063e08a96cd1461026b578063f71d96cb14610280578063fe5e1853146102b4575b600080fd5b6100b86102c9565b005b3480156100c657600080fd5b506100cf6102fe565b60405190815260200160405180910390f35b3480156100ed57600080fd5b506100b86004803590369060446024803590810190830135806020601f820181900481020160405190810160405281815292919060208401838380828437509497506103039650505050505050565b34801561014857600080fd5b506100cf610341565b34801561015d57600080fd5b506100b86004803590369060446024803590810190830135806020601f820181900481020160405190810160405281815292919060208401838380828437509497969560208082019650903587018082019550359350839250601f8301819004810201905060405190810160405281815292919060208401838380828437509497506103479650505050505050565b3480156101f857600080fd5b5061020d600160a060020a0360043516610501565b604051901515815260200160405180910390f35b6100b8600435610532565b34801561023857600080fd5b506100b86105f3565b34801561024d57600080fd5b506100cf6106eb565b34801561026257600080fd5b506100cf6106f1565b34801561027757600080fd5b506100cf6106f7565b34801561028c57600080fd5b506102986004356106fd565b604051600160a060020a03909116815260200160405180910390f35b3480156102c057600080fd5b506100cf610724565b6000806000806009546008541015156102f857600793506000925062030d4091506102f583858461072a565b90505b50505050565b606481565b61033d82826000604051818152601f19601f8301168101602001604052908015610337578160200160208202803883390190505b50610347565b5050565b60085481565b82828260008160008151811061035957fe5b016020015160f860020a900460f860020a02600160f860020a0319167f4c000000000000000000000000000000000000000000000000000000000000001480156103ea5750816001815181106103ab57fe5b016020015160f860020a900460f860020a02600160f860020a0319167f5000000000000000000000000000000000000000000000000000000000000000145b80156104325750816002815181106103fe57fe5b01602001517fff0000000000000000000000000000000000000000000000000000000000000060f860020a91829004820216145b151561043d57600080fd5b61045082858561044b610c08565b610cab565b905080151561045e57600080fd5b600954600854106104f8576104716112a0565b600160a060020a0316331461048257fe5b600a866040518082805190602001908083835b602083106104b45780518252601f199092019160209182019101610495565b6001836020036101000a038019825116818451161790925250505091909101925060409150505180910390208115156104e957fe5b06600101600a556104f86105f3565b50505050505050565b600160a060020a0381166000908152600d60205280604081205411156105295750600161052d565b5060005b919050565b6009546008541061053f57fe5b61054833610501565b1561054f57fe5b600181101580156105615750600a8111155b151561056957fe5b60065434101561057557fe5b336000908152600d602052819060409020556000818152600c602052604090208054600181018083556000928352339290919060209020018054600160a060020a031916600160a060020a0393909316929092179091555060088054600101908190556007805434019055600954116105f0576105f06102c9565b50565b60008060006009546008541015156106e657600a546000908152600c602052604090205460075481151561062357fe5b049250600091505b600a546000908152600c60205260409020548210156106ae57600a546000908152600c6020526040902080548390811061066157fe5b9060005260206000200154600160a060020a031683156108fc0284604051600060405180830381858888f193505050501580156106a2573d6000803e3d6000fd5b5060019091019061062b565b5060015b600a81116106db576000818152600c602052604081206106d29082612a1a565b506001016106b2565b600060078190556008555b505050565b600a5481565b60065481565b60095481565b600b80548290811061070b57fe5b9060005260206000200154600160a060020a0316905081565b60075481565b60006060806060600060608061073e612a3e565b6000606060008c118015610753575060208c11155b151561075e57600080fd5b600a8d029c506001604051818152601f19601f8301168101602001604052908015610793578160200160208202803883390190505b5098508b60f860020a02896000815181106107aa57fe5b906020010190600160f860020a031916908160001a9053506020604051818152601f19601f83011681016020016040529080156107f1578160200160208202803883390190505b5097506020604051818152601f19601f8301168101602001604052908015610823578160200160208202803883390190505b50965061082e611472565b9550602088524241186001430340186020890152602087528560208801526020604051818152601f19601f830116810160200160405290801561087b578160200160208202803883390190505b5094508c60208601526008604051818152601f19601f83011681016020016040529080156108b3578160200160208202803883390190505b5093506108c6856018600887600061160c565b506080604051908101604052808981526020018a815260200188815260200186815250925061092960408051908101604052600681527f72616e646f6d00000000000000000000000000000000000000000000000000006020820152848d61165b565b91506008604051818152601f19601f830116810160200160405290801561095a578160200160208202803883390190505b509050602084015160f860020a810460278301537e01000000000000000000000000000000000000000000000000000000000000810460268301537d0100000000000000000000000000000000000000000000000000000000008104602583015360e060020a810460248301537b01000000000000000000000000000000000000000000000000000000810460238301537a010000000000000000000000000000000000000000000000000000810460228301537901000000000000000000000000000000000000000000000000008104602183015378010000000000000000000000000000000000000000000000008104602083015350610bf882826020860151600287516040518082805190602001908083835b60208310610a8f5780518252601f199092019160209182019101610a70565b6001836020036101000a0380198251168184511680821785525050505050509050019150506020604051808303816000865af1158015610ad3573d6000803e3d6000fd5b5050506040513d6020811015610ae857600080fd5b8101908080519250505060408801516040518085805190602001908083835b60208310610b265780518252601f199092019160209182019101610b07565b6001836020036101000a038019825116818451161790925250505091909101905084805190602001908083835b60208310610b725780518252601f199092019160209182019101610b53565b6001836020036101000a038019825116818451161790925250505091909101848152602001905082805190602001908083835b60208310610bc45780518252601f199092019160209182019101610ba5565b6001836020036101000a03801982511681845116179092525050509190910195506040945050505050518091039020611876565b509b9a5050505050505050505050565b606060028054600181600116156101000203166002900480601f016020809104026020016040519081016040528092919081815260200182805460018160011615610100020316600290048015610ca05780601f10610c7557610100808354040283529160200191610ca0565b820191906000526020600020905b815481529060010190602001808311610c8357829003601f168201915b505050505090505b90565b60008060608060608060008060608c604581518110610cc657fe5b016020015160f860020a9081900481020460660197506020604051818152601f19601f8301168101602001604052908015610d0b578160200160208202803883390190505b509650610d1d8d8960208a600061160c565b5060028a8d6040518083805190602001908083835b60208310610d515780518252601f199092019160209182019101610d32565b6001836020036101000a038019825116818451161790925250505091909101928352505060209081019150604051808303816000865af1158015610d99573d6000803e3d6000fd5b5050506040513d6020811015610dae57600080fd5b81019080805192506040915050519081526020016040518091039020876040518082805190602001908083835b60208310610dfa5780518252601f199092019160209182019101610ddb565b6001836020036101000a0380198251168184511617909252505050919091019250604091505051809103902014610e345760009850611290565b8c604a890181518110610e4357fe5b016020015160f860020a900460f860020a0260f860020a9004600201604051818152601f19601f8301168101602001604052908015610e8c578160200160208202803883390190505b509550610ea18d89604901885189600061160c565b50610f726002876040518082805190602001908083835b60208310610ed75780518252601f199092019160209182019101610eb8565b6001836020036101000a0380198251168184511680821785525050505050509050019150506020604051808303816000865af1158015610f1b573d6000803e3d6000fd5b5050506040513d6020811015610f3057600080fd5b81019080805190602001909291905050508c8f8b60200160080181518110610f5457fe5b016020015160f860020a900460f860020a0260f860020a900461188b565b1515610f815760009850611290565b6029604051818152601f19601f8301168101602001604052908015610fb0578160200160208202803883390190505b509450610fc58d89602001602988600061160c565b5060408051818152601f19601f8301168101602001604052908015610ff4578160200160208202803883390190505b5093508551886020016029010160410192506110188d60408503604087600061160c565b506002846040518082805190602001908083835b6020831061104b5780518252601f19909201916020918201910161102c565b6001836020036101000a0380198251168184511680821785525050505050509050019150506020604051808303816000865af115801561108f573d6000803e3d6000fd5b5050506040513d60208110156110a457600080fd5b810190808051945087925084915060409050518083805190602001908083835b602083106110e35780518252601f1990920191602091820191016110c4565b6001836020036101000a03801982511681845116179092525050509190910192835250506020019050604051809103902060008d81526003602052604090205414156111405760008c815260036020526040902060009055611149565b60009850611290565b6049604051818152601f19601f8301168101602001604052908015611178578160200160208202803883390190505b50905061118a8d89604984600061160c565b5061122c6002826040518082805190602001908083835b602083106111c05780518252601f1990920191602091820191016111a1565b6001836020036101000a0380198251168184511680821785525050505050509050019150506020604051808303816000865af1158015611204573d6000803e3d6000fd5b5050506040513d602081101561121957600080fd5b8101908080519250899150879050611911565b151561123b5760009850611290565b60008281526004602052604090205460ff16151561127b5761125d8d84611b36565b6000838152600460205260409020805460ff19169115159190911790555b60008281526004602052604090205460ff1698505b5050505050505050949350505050565b60008054600160a060020a031615806112cb57506000546112c990600160a060020a0316611f63565b155b156112dc576112da6000611f67565b505b600054600160a060020a03166338cc48316040518163ffffffff1660e060020a028152600401602060405180830381600087803b15801561131c57600080fd5b505af1158015611330573d6000803e3d6000fd5b505050506040513d602081101561134657600080fd5b810190808051600154600160a060020a0390811691161492506113fa91505057600054600160a060020a03166338cc48316040518163ffffffff1660e060020a028152600401602060405180830381600087803b1580156113a657600080fd5b505af11580156113ba573d6000803e3d6000fd5b505050506040513d60208110156113d057600080fd5b81019080805160018054600160a060020a031916600160a060020a03929092169190911790555050505b600154600160a060020a031663c281d19e6040518163ffffffff1660e060020a028152600401602060405180830381600087803b15801561143a57600080fd5b505af115801561144e573d6000803e3d6000fd5b505050506040513d602081101561146457600080fd5b810190808051935050505090565b60008054600160a060020a0316158061149d575060005461149b90600160a060020a0316611f63565b155b156114ae576114ac6000611f67565b505b600054600160a060020a03166338cc48316040518163ffffffff1660e060020a028152600401602060405180830381600087803b1580156114ee57600080fd5b505af1158015611502573d6000803e3d6000fd5b505050506040513d602081101561151857600080fd5b810190808051600154600160a060020a0390811691161492506115cc91505057600054600160a060020a03166338cc48316040518163ffffffff1660e060020a028152600401602060405180830381600087803b15801561157857600080fd5b505af115801561158c573d6000803e3d6000fd5b505050506040513d60208110156115a257600080fd5b81019080805160018054600160a060020a031916600160a060020a03929092169190911790555050505b600154600160a060020a031663abaa5f3e6040518163ffffffff1660e060020a028152600401602060405180830381600087803b15801561143a57600080fd5b6060838201600080828651101561162257600080fd5b505060208087019084015b86886020010182101561164e5781890151868201526020918201910161162d565b5093979650505050505050565b60008054606090600160a060020a03161580611689575060005461168790600160a060020a0316611f63565b155b1561169a576116986000611f67565b505b600054600160a060020a03166338cc48316040518163ffffffff1660e060020a028152600401602060405180830381600087803b1580156116da57600080fd5b505af11580156116ee573d6000803e3d6000fd5b505050506040513d602081101561170457600080fd5b810190808051600154600160a060020a0390811691161492506117b891505057600054600160a060020a03166338cc48316040518163ffffffff1660e060020a028152600401602060405180830381600087803b15801561176457600080fd5b505af1158015611778573d6000803e3d6000fd5b505050506040513d602081101561178e57600080fd5b81019080805160018054600160a060020a031916600160a060020a03929092169190911790555050505b60046040519080825280602002602001820160405280156117ed57816020015b60608152602001906001900390816117d85790505b5090508351816000815181106117ff57fe5b6020908102909101015283600160200201518160018151811061181e57fe5b602090810291909101015260408401518160028151811061183b57fe5b602090810291909101015260608401518160038151811061185857fe5b6020908102909101015261186d858285611f77565b95945050505050565b60008281526003602052819060409020555050565b60006001818385511461189d57600080fd5b5060005b83811015611904578481815181106118b557fe5b016020015160f860020a900460f860020a02600160f860020a03191686826020811015156118df57fe5b1a60f860020a02600160f860020a0319161415156118fc57600091505b6001016118a1565b8192505b50509392505050565b60008060008060006060600060606020604051818152601f19601f830116810160200160405290801561194e578160200160208202803883390190505b50925060208a60038151811061196057fe5b016020015160f860020a900460f860020a0260f860020a900403600401915061198e8a83602086600061160c565b92506020604051818152601f19601f83011681016020016040529080156119bf578160200160208202803883390190505b509050602282019150611a038a60208c60018603815181106119dd57fe5b016020015160f860020a900460f860020a0260f860020a9004038401602084600061160c565b90506020830151945060208101519350611a208b601b878761234f565b9097509550600160a060020a038616896040518082805190602001908083835b60208310611a5f5780518252601f199092019160209182019101611a40565b6001836020036101000a03801982511681845116179092525050509190910192506040915050518091039020600160a060020a03161415611aa35760019750611b28565b611ab08b601c878761234f565b9097509550600160a060020a038616896040518082805190602001908083835b60208310611aef5780518252601f199092019160209182019101611ad0565b6001836020036101000a03801982511681845116179092525050509190910192506040915050518091039020600160a060020a03161497505b505050505050509392505050565b60008060608060608060608060608a8a60010181518110611b5357fe5b016020015160f860020a900460f860020a0260f860020a9004600201604051818152601f19601f8301168101602001604052908015611b9c578160200160208202803883390190505b509650611bae8b8b89518a600061160c565b5060408051818152601f19601f8301168101602001604052908015611bdd578160200160208202803883390190505b509550611bf08b6004604089600061160c565b506062604051818152601f19601f8301168101602001604052908015611c20578160200160208202803883390190505b50945060f860020a85600081518110611c3557fe5b906020010190600160f860020a031916908160001a905350611c5f8b60418c03604188600161160c565b506040805190810160405280602081526020017ffd94fa71bc0ba10d39d464d0d8f465efeef0a2764e3887fcc9df41ded20f505c8152509350611ca8846000602088604261160c565b50611d4a6002866040518082805190602001908083835b60208310611cde5780518252601f199092019160209182019101611cbf565b6001836020036101000a0380198251168184511680821785525050505050509050019150506020604051808303816000865af1158015611d22573d6000803e3d6000fd5b5050506040513d6020811015611d3757600080fd5b81019080805192508a9150899050611911565b9750871515611d5c5760009850611f55565b606060405190810160405280604081526020017f7fb956469c5c9b89840d55b43537e66a98dd4811ea0a27224272c2e5622911e881526020017f537a2f8e86a46baec82864e98dd01e9ccc2f8bc5dfc9cbe5a91a290498dd96e481525092506042604051818152601f19601f8301168101602001604052908015611dea578160200160208202803883390190505b5091507ffe0000000000000000000000000000000000000000000000000000000000000082600081518110611e1b57fe5b906020010190600160f860020a031916908160001a905350611e438b6003604185600161160c565b508a604581518110611e5157fe5b016020015160f860020a900460f860020a0260f860020a9004600201604051818152601f19601f8301168101602001604052908015611e9a578160200160208202803883390190505b509050611ead8b6044835184600061160c565b50611f4f6002836040518082805190602001908083835b60208310611ee35780518252601f199092019160209182019101611ec4565b6001836020036101000a0380198251168184511680821785525050505050509050019150506020604051808303816000865af1158015611f27573d6000803e3d6000fd5b5050506040513d6020811015611f3c57600080fd5b8101908080519250849150869050611911565b97508798505b505050505050505092915050565b3b90565b6000611f7161238f565b92915050565b600080548190606090600160a060020a03161580611fa75750600054611fa590600160a060020a0316611f63565b155b15611fb857611fb66000611f67565b505b600054600160a060020a03166338cc48316040518163ffffffff1660e060020a028152600401602060405180830381600087803b158015611ff857600080fd5b505af115801561200c573d6000803e3d6000fd5b505050506040513d602081101561202257600080fd5b810190808051600154600160a060020a0390811691161492506120d691505057600054600160a060020a03166338cc48316040518163ffffffff1660e060020a028152600401602060405180830381600087803b15801561208257600080fd5b505af1158015612096573d6000803e3d6000fd5b505050506040513d60208110156120ac57600080fd5b81019080805160018054600160a060020a031916600160a060020a03929092169190911790555050505b600154600160a060020a0316632ef3accc87866040518363ffffffff1660e060020a0281526004018080602001838152602001828103825284818151815260200191508051906020019080838360005b8381101561213e578082015183820152602001612126565b50505050905090810190601f16801561216b5780820380516001836020036101000a031916815260200191505b509350505050602060405180830381600087803b15801561218b57600080fd5b505af115801561219f573d6000803e3d6000fd5b505050506040513d60208110156121b557600080fd5b8101908080519450505050670de0b6b3a76400003a8502018211156121dd5760009250611908565b6121e6856126b3565b600154909150600160a060020a031663c55c1cb68360008985896040518663ffffffff1660e060020a028152600401808581526020018060200180602001848152602001838103835286818151815260200191508051906020019080838360005b8381101561225f578082015183820152602001612247565b50505050905090810190601f16801561228c5780820380516001836020036101000a031916815260200191505b50838103825285818151815260200191508051906020019080838360005b838110156122c25780820151838201526020016122aa565b50505050905090810190601f1680156122ef5780820380516001836020036101000a031916815260200191505b5096505050505050506020604051808303818588803b15801561231157600080fd5b505af1158015612325573d6000803e3d6000fd5b50505050506040513d602081101561233c57600080fd5b8101908080519998505050505050505050565b60008060008060405188815287602082015286604082015285606082015260208160808360006001610bb8f1925080519299929850919650505050505050565b6000806123af731d3b2638a7cc9f2cb3d298a3da7a90b67e5506ed611f63565b111561241f5760008054600160a060020a031916731d3b2638a7cc9f2cb3d298a3da7a90b67e5506ed17905561241760408051908101604052600b81527f6574685f6d61696e6e6574000000000000000000000000000000000000000000602082015261272a565b506001610ca8565b600061243e73c03a2615d5efaf5f49f60b7bb6583eaec212fdf1611f63565b11156124a65760008054600160a060020a03191673c03a2615d5efaf5f49f60b7bb6583eaec212fdf117905561241760408051908101604052600c81527f6574685f726f707374656e330000000000000000000000000000000000000000602082015261272a565b60006124c573b7a07bcf2ba2f2703b24c0691b5278999c59ac7e611f63565b111561252d5760008054600160a060020a03191673b7a07bcf2ba2f2703b24c0691b5278999c59ac7e17905561241760408051908101604052600981527f6574685f6b6f76616e0000000000000000000000000000000000000000000000602082015261272a565b600061254c73146500cfd35b22e4a392fe0adc06de1a1368ed48611f63565b11156125b45760008054600160a060020a03191673146500cfd35b22e4a392fe0adc06de1a1368ed4817905561241760408051908101604052600b81527f6574685f72696e6b656279000000000000000000000000000000000000000000602082015261272a565b60006125d3736f485c8bf6fc43ea212e93bbf8ce046c7f1cb475611f63565b1115612607575060008054600160a060020a031916736f485c8bf6fc43ea212e93bbf8ce046c7f1cb4751790556001610ca8565b60006126267320e12a1f859b3feae5fb2a0a32c18f5a65555bbf611f63565b111561265a575060008054600160a060020a0319167320e12a1f859b3feae5fb2a0a32c18f5a65555bbf1790556001610ca8565b60006126797351efaf4c8b3c9afbd5ab9f4bbc82784ab6ef8faa611f63565b11156126ad575060008054600160a060020a0319167351efaf4c8b3c9afbd5ab9f4bbc82784ab6ef8faa1790556001610ca8565b50600090565b60606126bd612a65565b60006126c761273d565b6126d382610400612749565b6126dc82612777565b5060005b83518110156127175761270f8482815181106126f857fe5b90602001906020020151839063ffffffff61278216565b6001016126e0565b6127208261279f565b8151949350505050565b600281805161033d929160200190612a7d565b60405180590338823950565b80602081061561275c5760208106602003015b60208301819052604051928390526000835290910160405250565b6105f08160046127a6565b61278f82600283516127bf565b6106e6828263ffffffff6128bd16565b6105f08160075b61033d82601f602060ff8516021763ffffffff61295a16565b601781116127e0576127db8360ff84811660200216831761295a565b6106e6565b60ff811161281957612801836018602060ff8616021763ffffffff61295a16565b6128138382600163ffffffff61299316565b506106e6565b61ffff811161284d5761283b836019602060ff8616021763ffffffff61295a16565b6128138382600263ffffffff61299316565b63ffffffff81116128835761287183601a602060ff8616021763ffffffff61295a16565b6128138382600463ffffffff61299316565b67ffffffffffffffff81116106e6576128ab83601b602060ff8616021763ffffffff61295a16565b6102f88382600863ffffffff61299316565b6128c5612a65565b600080600080866020015187515187510111156128f7576128f7876128ef896020015189516129e9565b600202612a00565b8551915086518051602081830101955087510190526020860192505b602082106129365782518452602084019350602083019250602082039150612913565b6001826020036101000a039050801983511681855116179093525093949350505050565b8160200151825151600101111561297c5761297c828360200151600202612a00565b815180516020818301018381535060010190525050565b61299b612a65565b60008460200151855151840111156129bf576129bf856128ef8760200151866129e9565b6001836101000a039050845180518481830101868419825116179052909301909252509192915050565b6000818311156129fa575081611f71565b50919050565b606082519050612a108383612749565b6102f883826128bd565b8154818355818111156106e657818360005260206000206106e69281019101612afb565b60806040519081016040526004815b6060815260200190600190039081612a4d5790505090565b60408051908101604052606081526000602082015290565b828054600181600116156101000203166002900490600052602060002090601f016020900481019282601f10612abe57805160ff1916838001178555612aeb565b82800160010185558215612aeb579182015b82811115612aeb578251825591602001919060010190612ad0565b50612af7929150612afb565b5090565b610ca891905b80821115612af75760008155600101612b015600a165627a7a72305820d6b24a821db1319b29f05942bf55017b43f697ae9d10623c5686285da391f7570029",
  "source": "pragma solidity ^0.4.11;\n\nimport \"./oraclizeAPI.sol\";\n\n/// @title Contract to bet Ether for a number and win randomly when the number of bets is met.\n/// @author Merunas Grincalaitis\ncontract Casino is usingOraclize {\n   address owner;\n\n   // The minimum bet a user has to make to participate in the game\n   uint public minimumBet = 100 finney; // Equal to 0.1 ether\n\n   // The total amount of Ether bet for this current game\n   uint public totalBet;\n\n   // The total number of bets the users have made\n   uint public numberOfBets;\n\n   // The maximum amount of bets can be made for each game\n   uint public maxAmountOfBets = 10;\n\n   // The max amount of bets that cannot be exceeded to avoid excessive gas consumption\n   // when distributing the prizes and restarting the game\n   uint public constant LIMIT_AMOUNT_BETS = 100;\n\n   // The number that won the last game\n   uint public numberWinner;\n\n   // Array of players\n   address[] public players;\n\n   // Each number has an array of players. Associate each number with a bunch of players\n   mapping(uint => address[]) numberBetPlayers;\n\n   // The number that each player has bet for\n   mapping(address => uint) playerBetsNumber;\n\n   // Modifier to only allow the execution of functions when the bets are completed\n   modifier onEndGame(){\n      if(numberOfBets >= maxAmountOfBets) _;\n   }\n\n   /// @notice Constructor that's used to configure the minimum bet per game and the max amount of bets\n   /// @param _minimumBet The minimum bet that each user has to make in order to participate in the game\n   /// @param _maxAmountOfBets The max amount of bets that are required for each game\n   function Casino(uint _minimumBet, uint _maxAmountOfBets){\n      owner = msg.sender;\n\n      if(_minimumBet > 0) minimumBet = _minimumBet;\n      if(_maxAmountOfBets > 0 && _maxAmountOfBets <= LIMIT_AMOUNT_BETS)\n         maxAmountOfBets = _maxAmountOfBets;\n\n      // Set the proof of oraclize in order to make secure random number generations\n      oraclize_setProof(proofType_Ledger);\n   }\n\n   /// @notice Check if a player exists in the current game\n   /// @param player The address of the player to check\n   /// @return bool Returns true is it exists or false if it doesn't\n   function checkPlayerExists(address player) returns(bool){\n      if(playerBetsNumber[player] > 0)\n         return true;\n      else\n         return false;\n   }\n\n   /// @notice To bet for a number by sending Ether\n   /// @param numberToBet The number that the player wants to bet for. Must be between 1 and 10 both inclusive\n   function bet(uint numberToBet) payable{\n\n      // Check that the max amount of bets hasn't been met yet\n      assert(numberOfBets < maxAmountOfBets);\n\n      // Check that the player doesn't exists\n      assert(checkPlayerExists(msg.sender) == false);\n\n      // Check that the number to bet is within the range\n      assert(numberToBet >= 1 && numberToBet <= 10);\n\n      // Check that the amount paid is bigger or equal the minimum bet\n      assert(msg.value >= minimumBet);\n\n      // Set the number bet for that player\n      playerBetsNumber[msg.sender] = numberToBet;\n\n      // The player msg.sender has bet for that number\n      numberBetPlayers[numberToBet].push(msg.sender);\n\n      numberOfBets += 1;\n      totalBet += msg.value;\n\n      if(numberOfBets >= maxAmountOfBets) generateNumberWinner();\n   }\n\n   /// @notice Generates a random number between 1 and 10 both inclusive.\n   /// Must be payable because oraclize needs gas to generate a random number.\n   /// Can only be executed when the game ends.\n   function generateNumberWinner() payable onEndGame {\n      uint numberRandomBytes = 7;\n      uint delay = 0;\n      uint callbackGas = 200000;\n\n      bytes32 queryId = oraclize_newRandomDSQuery(delay, numberRandomBytes, callbackGas);\n   }\n\n   /// @notice Callback function that gets called by oraclize when the random number is generated\n   /// @param _queryId The query id that was generated to proofVerify\n   /// @param _result String that contains the number generated\n   /// @param _proof A string with a proof code to verify the authenticity of the number generation\n   function __callback(\n      bytes32 _queryId,\n      string _result,\n      bytes _proof\n   ) oraclize_randomDS_proofVerify(_queryId, _result, _proof) onEndGame {\n\n      // Checks that the sender of this callback was in fact oraclize\n      assert(msg.sender == oraclize_cbAddress());\n\n      numberWinner = (uint(sha3(_result))%10+1);\n      distributePrizes();\n   }\n\n   /// @notice Sends the corresponding Ether to each winner then deletes all the\n   /// players for the next game and resets the `totalBet` and `numberOfBets`\n   function distributePrizes() onEndGame {\n      uint winnerEtherAmount = totalBet / numberBetPlayers[numberWinner].length; // How much each winner gets\n\n      // Loop through all the winners to send the corresponding prize for each one\n      for(uint i = 0; i < numberBetPlayers[numberWinner].length; i++){\n         numberBetPlayers[numberWinner][i].transfer(winnerEtherAmount);\n      }\n\n      // Delete all the players for each number\n      for(uint j = 1; j <= 10; j++){\n         numberBetPlayers[j].length = 0;\n      }\n\n      totalBet = 0;\n      numberOfBets = 0;\n   }\n}\n",
  "sourcePath": "/Users/yangzhen/workspace/yikuailianxi/season1/homework-base/contracts/week3/Casino.sol",
  "compiler": {
    "name": "solc",
    "version": "0.4.24+commit.e67f0147.Emscripten.clang"
  },
  "schemaVersion": "2.0.1",
  "updatedAt": "2018-09-30T12:36:47.589Z"
}