{
  "contractName": "Contactable",
  "abi": [
    {
      "constant": true,
      "inputs": [],
      "name": "contactInformation",
      "outputs": [
        {
          "name": "",
          "type": "string"
        }
      ],
      "payable": false,
      "stateMutability": "view",
      "type": "function"
    },
    {
      "constant": false,
      "inputs": [],
      "name": "renounceOwnership",
      "outputs": [],
      "payable": false,
      "stateMutability": "nonpayable",
      "type": "function"
    },
    {
      "constant": true,
      "inputs": [],
      "name": "owner",
      "outputs": [
        {
          "name": "",
          "type": "address"
        }
      ],
      "payable": false,
      "stateMutability": "view",
      "type": "function"
    },
    {
      "constant": false,
      "inputs": [
        {
          "name": "_newOwner",
          "type": "address"
        }
      ],
      "name": "transferOwnership",
      "outputs": [],
      "payable": false,
      "stateMutability": "nonpayable",
      "type": "function"
    },
    {
      "anonymous": false,
      "inputs": [
        {
          "indexed": true,
          "name": "previousOwner",
          "type": "address"
        }
      ],
      "name": "OwnershipRenounced",
      "type": "event"
    },
    {
      "anonymous": false,
      "inputs": [
        {
          "indexed": true,
          "name": "previousOwner",
          "type": "address"
        },
        {
          "indexed": true,
          "name": "newOwner",
          "type": "address"
        }
      ],
      "name": "OwnershipTransferred",
      "type": "event"
    },
    {
      "constant": false,
      "inputs": [
        {
          "name": "info",
          "type": "string"
        }
      ],
      "name": "setContactInformation",
      "outputs": [],
      "payable": false,
      "stateMutability": "nonpayable",
      "type": "function"
    }
  ],
  "bytecode": "0x608060405260008054600160a060020a0319163317905561045a806100256000396000f30060806040526004361061006c5763ffffffff7c010000000000000000000000000000000000000000000000000000000060003504166336f7ab5e8114610071578063715018a6146100fb5780638da5cb5b14610112578063b967a52e14610143578063f2fde38b1461019c575b600080fd5b34801561007d57600080fd5b506100866101bd565b6040805160208082528351818301528351919283929083019185019080838360005b838110156100c05781810151838201526020016100a8565b50505050905090810190601f1680156100ed5780820380516001836020036101000a031916815260200191505b509250505060405180910390f35b34801561010757600080fd5b5061011061024a565b005b34801561011e57600080fd5b506101276102b6565b60408051600160a060020a039092168252519081900360200190f35b34801561014f57600080fd5b506040805160206004803580820135601f81018490048402850184019095528484526101109436949293602493928401919081908401838280828437509497506102c59650505050505050565b3480156101a857600080fd5b50610110600160a060020a03600435166102f3565b60018054604080516020600284861615610100026000190190941693909304601f810184900484028201840190925281815292918301828280156102425780601f1061021757610100808354040283529160200191610242565b820191906000526020600020905b81548152906001019060200180831161022557829003601f168201915b505050505081565b600054600160a060020a0316331461026157600080fd5b60008054604051600160a060020a03909116917ff8df31144d9c2f0f6b59d69b8b98abd5459d07f2742c4df920b25aae33c6482091a26000805473ffffffffffffffffffffffffffffffffffffffff19169055565b600054600160a060020a031681565b600054600160a060020a031633146102dc57600080fd5b80516102ef906001906020840190610393565b5050565b600054600160a060020a0316331461030a57600080fd5b61031381610316565b50565b600160a060020a038116151561032b57600080fd5b60008054604051600160a060020a03808516939216917f8be0079c531659141344cd1fd0a4f28419497f9722a3daafe3b4186f6b6457e091a36000805473ffffffffffffffffffffffffffffffffffffffff1916600160a060020a0392909216919091179055565b828054600181600116156101000203166002900490600052602060002090601f016020900481019282601f106103d457805160ff1916838001178555610401565b82800160010185558215610401579182015b828111156104015782518255916020019190600101906103e6565b5061040d929150610411565b5090565b61042b91905b8082111561040d5760008155600101610417565b905600a165627a7a72305820836bbbe3e5e64e095dbafc392f0653e89568a077e262acc47205f3b9165e97c90029",
  "source": "pragma solidity ^0.4.24;\n\nimport \"./Ownable.sol\";\n\n\n/**\n * @title Contactable token\n * @dev Basic version of a contactable contract, allowing the owner to provide a string with their\n * contact information.\n */\ncontract Contactable is Ownable {\n\n  string public contactInformation;\n\n  /**\n    * @dev Allows the owner to set a string with their contact information.\n    * @param info The contact information to attach to the contract.\n    */\n  function setContactInformation(string info) onlyOwner public {\n    contactInformation = info;\n  }\n}\n",
  "sourcePath": "/Users/yangzhen/workspace/yikuailianxi/season1/homework-base/contracts/openzeppelin-solidity/contracts/ownership/Contactable.sol",
  "compiler": {
    "name": "solc",
    "version": "0.4.24+commit.e67f0147.Emscripten.clang"
  },
  "schemaVersion": "2.0.1",
  "updatedAt": "2018-09-16T07:23:40.843Z"
}