{
  "contractName": "DelayedClaimable",
  "abi": [
    {
      "constant": false,
      "inputs": [],
      "name": "renounceOwnership",
      "outputs": [],
      "payable": false,
      "stateMutability": "nonpayable",
      "type": "function"
    },
    {
      "constant": true,
      "inputs": [],
      "name": "owner",
      "outputs": [
        {
          "name": "",
          "type": "address"
        }
      ],
      "payable": false,
      "stateMutability": "view",
      "type": "function"
    },
    {
      "constant": true,
      "inputs": [],
      "name": "start",
      "outputs": [
        {
          "name": "",
          "type": "uint256"
        }
      ],
      "payable": false,
      "stateMutability": "view",
      "type": "function"
    },
    {
      "constant": true,
      "inputs": [],
      "name": "pendingOwner",
      "outputs": [
        {
          "name": "",
          "type": "address"
        }
      ],
      "payable": false,
      "stateMutability": "view",
      "type": "function"
    },
    {
      "constant": true,
      "inputs": [],
      "name": "end",
      "outputs": [
        {
          "name": "",
          "type": "uint256"
        }
      ],
      "payable": false,
      "stateMutability": "view",
      "type": "function"
    },
    {
      "constant": false,
      "inputs": [
        {
          "name": "newOwner",
          "type": "address"
        }
      ],
      "name": "transferOwnership",
      "outputs": [],
      "payable": false,
      "stateMutability": "nonpayable",
      "type": "function"
    },
    {
      "anonymous": false,
      "inputs": [
        {
          "indexed": true,
          "name": "previousOwner",
          "type": "address"
        }
      ],
      "name": "OwnershipRenounced",
      "type": "event"
    },
    {
      "anonymous": false,
      "inputs": [
        {
          "indexed": true,
          "name": "previousOwner",
          "type": "address"
        },
        {
          "indexed": true,
          "name": "newOwner",
          "type": "address"
        }
      ],
      "name": "OwnershipTransferred",
      "type": "event"
    },
    {
      "constant": false,
      "inputs": [
        {
          "name": "_start",
          "type": "uint256"
        },
        {
          "name": "_end",
          "type": "uint256"
        }
      ],
      "name": "setLimits",
      "outputs": [],
      "payable": false,
      "stateMutability": "nonpayable",
      "type": "function"
    },
    {
      "constant": false,
      "inputs": [],
      "name": "claimOwnership",
      "outputs": [],
      "payable": false,
      "stateMutability": "nonpayable",
      "type": "function"
    }
  ],
  "bytecode": "0x608060405260008054600160a060020a0319163317905561035c806100256000396000f30060806040526004361061008d5763ffffffff7c01000000000000000000000000000000000000000000000000000000006000350416634e71e0c88114610092578063715018a6146100a95780638da5cb5b146100be578063be9a6555146100ef578063c4590d3f14610116578063e30c397814610131578063efbe1c1c14610146578063f2fde38b1461015b575b600080fd5b34801561009e57600080fd5b506100a761017c565b005b3480156100b557600080fd5b506100a7610228565b3480156100ca57600080fd5b506100d3610294565b60408051600160a060020a039092168252519081900360200190f35b3480156100fb57600080fd5b506101046102a3565b60408051918252519081900360200190f35b34801561012257600080fd5b506100a76004356024356102a9565b34801561013d57600080fd5b506100d36102d5565b34801561015257600080fd5b506101046102e4565b34801561016757600080fd5b506100a7600160a060020a03600435166102ea565b600154600160a060020a0316331461019357600080fd5b60025443111580156101a757506003544310155b15156101b257600080fd5b60015460008054604051600160a060020a0393841693909116917f8be0079c531659141344cd1fd0a4f28419497f9722a3daafe3b4186f6b6457e091a3600180546000805473ffffffffffffffffffffffffffffffffffffffff19908116600160a060020a038416178255909116909155600255565b600054600160a060020a0316331461023f57600080fd5b60008054604051600160a060020a03909116917ff8df31144d9c2f0f6b59d69b8b98abd5459d07f2742c4df920b25aae33c6482091a26000805473ffffffffffffffffffffffffffffffffffffffff19169055565b600054600160a060020a031681565b60035481565b600054600160a060020a031633146102c057600080fd5b808211156102cd57600080fd5b600255600355565b600154600160a060020a031681565b60025481565b600054600160a060020a0316331461030157600080fd5b6001805473ffffffffffffffffffffffffffffffffffffffff1916600160a060020a03929092169190911790555600a165627a7a7230582016bdb8bf692b984e02351e29690116de29fcd08878c6ed5ff9e9f8b6ac5245c20029",
  "source": "pragma solidity ^0.4.24;\n\nimport \"./Claimable.sol\";\n\n\n/**\n * @title DelayedClaimable\n * @dev Extension for the Claimable contract, where the ownership needs to be claimed before/after\n * a certain block number.\n */\ncontract DelayedClaimable is Claimable {\n\n  uint256 public end;\n  uint256 public start;\n\n  /**\n   * @dev Used to specify the time period during which a pending\n   * owner can claim ownership.\n   * @param _start The earliest time ownership can be claimed.\n   * @param _end The latest time ownership can be claimed.\n   */\n  function setLimits(uint256 _start, uint256 _end) onlyOwner public {\n    require(_start <= _end);\n    end = _end;\n    start = _start;\n  }\n\n  /**\n   * @dev Allows the pendingOwner address to finalize the transfer, as long as it is called within\n   * the specified start and end time.\n   */\n  function claimOwnership() onlyPendingOwner public {\n    require((block.number <= end) && (block.number >= start));\n    emit OwnershipTransferred(owner, pendingOwner);\n    owner = pendingOwner;\n    pendingOwner = address(0);\n    end = 0;\n  }\n\n}\n",
  "sourcePath": "/Users/yangzhen/workspace/yikuailianxi/season1/homework-base/contracts/openzeppelin-solidity/contracts/ownership/DelayedClaimable.sol",
  "compiler": {
    "name": "solc",
    "version": "0.4.24+commit.e67f0147.Emscripten.clang"
  },
  "schemaVersion": "2.0.1",
  "updatedAt": "2018-09-16T07:23:40.843Z"
}