{
  "contractName": "EthereumChainData",
  "abi": [
    {
      "constant": true,
      "inputs": [],
      "name": "getLatestBlockHash",
      "outputs": [
        {
          "name": "",
          "type": "bytes32"
        }
      ],
      "payable": false,
      "stateMutability": "view",
      "type": "function"
    },
    {
      "constant": true,
      "inputs": [],
      "name": "getLatestTransactionHash",
      "outputs": [
        {
          "name": "",
          "type": "bytes32"
        }
      ],
      "payable": false,
      "stateMutability": "view",
      "type": "function"
    },
    {
      "constant": true,
      "inputs": [],
      "name": "getDifficulty",
      "outputs": [
        {
          "name": "",
          "type": "uint256"
        }
      ],
      "payable": false,
      "stateMutability": "view",
      "type": "function"
    }
  ],
  "bytecode": "0x608060405234801561001057600080fd5b5061040f806100206000396000f3006080604052600436106100565763ffffffff7c010000000000000000000000000000000000000000000000000000000060003504166342bcad28811461005b5780637a4fb2c514610082578063b6baffe314610097575b600080fd5b34801561006757600080fd5b506100706100ac565b60408051918252519081900360200190f35b34801561008e57600080fd5b506100706101f2565b3480156100a357600080fd5b50610070610381565b600080548160608183116100bf57600080fd5b6000805460001985019081106100d157fe5b60009182526020918290206011919091020180546001820154600283015460038401546004850154600586015460068701546007880154600889015460098a015460408051808e019b909b52600160a060020a039099166c01000000000000000000000000028a8a015260548a01979097526074890195909552609488019390935260b487019190915260d486015260f485015261011484015261013480840191909152815180840390910181526101549092019081905281519295509093508392909182918401908083835b602083106101bd5780518252601f19909201916020918201910161019e565b6001836020036101000a0380198251168184511680821785525050505050509050019150506040518091039020935050505090565b6000805481606081831161020557600080fd5b60008054600019850190811061021757fe5b9060005260206000209060110201600a0191508160000160009054906101000a9004600160a060020a03168260010154836002015484600301548560040160009054906101000a9004600160a060020a03168660050154876006016040516020018088600160a060020a0316600160a060020a03166c0100000000000000000000000002815260140187815260200186815260200185815260200184600160a060020a0316600160a060020a03166c01000000000000000000000000028152601401838152602001828054600181600116156101000203166002900480156103365780601f10610314576101008083540402835291820191610336565b820191906000526020600020905b815481529060010190602001808311610322575b5050975050505050505050604051602081830303815290604052905080604051808280519060200190808383602083106101bd5780518252601f19909201916020918201910161019e565b6000805481811161039157600080fd5b600080546103ca91600a9160001985019081106103aa57fe5b60009182526020909120600460119092020101549063ffffffff6103d016565b91505090565b818101828110156103dd57fe5b929150505600a165627a7a723058207830c1fb6e05b409bde3704f86b81d632047f45a492025eb918289c1c39b90370029",
  "source": "pragma solidity ^0.4.24;\n\nimport \"../openzeppelin-solidity/contracts/math/SafeMath.sol\";\n\ncontract EthereumChainData {\n    // 使用 SafeMath\n    using SafeMath for uint256;\n    // 交易数据\n    struct Transaction {\n        address from;\n        uint256 nonce;\n        uint256 gasLimit;\n        uint256 gasPrice;\n        address to;\n        uint256 value;\n        bytes data;\n    }\n    // 区块头数据\n    struct BlockHeader {\n        bytes32 parentHash;\n        address beneficiary;\n        bytes32 stateRoot;\n        bytes32 transactionsRoot;\n        uint256 difficulty;\n        uint256 number;\n        uint256 gasLimit;\n        uint256 gasUsed;\n        uint256 timeStamp;\n        bytes32 extraData;\n    }\n    // 区块数据\n    struct Block {\n        BlockHeader header;\n        Transaction txData;\n    }\n    // 区块链数据\n    struct ChainData {\n        Block[] blocks;\n        mapping(bytes32 => uint256) transactions;\n    }\n\n    // Chain data\n    ChainData internal chainData;\n\n    function createGenesisBlock() internal {\n        require(chainData.blocks.length == 0, \"Genesis block can only create once.\");\n\n        BlockHeader memory gHeader = BlockHeader({\n            parentHash: keccak256(new bytes(0)),\n            beneficiary: 0x0, stateRoot: bytes32(0x0), transactionsRoot: bytes32(0x0),\n            difficulty: 0, number: 0, gasLimit:0, gasUsed:0,\n            timeStamp: block.timestamp, extraData: bytes32(\"Genesis Block\")\n        });\n        Transaction memory gTx = Transaction({\n            from: 0x0, nonce:0, gasLimit:0, gasPrice:0, to: 0x0, value: 0, data: new bytes(0)\n        });\n        Block memory genesis = Block({\n            header: gHeader, txData: gTx\n        });\n        chainData.blocks.push(genesis);\n    }\n\n    function getLatestBlockHash() public view returns (bytes32) {\n        uint256 blockCount = chainData.blocks.length;\n        require(blockCount > 0);\n        BlockHeader storage latestHeader = chainData.blocks[blockCount - 1].header;\n        bytes memory headerData = abi.encodePacked(\n            latestHeader.parentHash,\n            latestHeader.beneficiary,\n            latestHeader.stateRoot,\n            latestHeader.transactionsRoot,\n            latestHeader.difficulty,\n            latestHeader.number,\n            latestHeader.gasLimit,\n            latestHeader.gasUsed,\n            latestHeader.timeStamp,\n            latestHeader.extraData\n        );\n        return keccak256(headerData);\n    }\n\n    function getLatestTransactionHash() public view returns (bytes32) {\n        uint256 blockCount = chainData.blocks.length;\n        require(blockCount > 0);\n        Transaction storage latestTx = chainData.blocks[blockCount - 1].txData;\n        bytes memory txData = abi.encodePacked(\n            latestTx.from,\n            latestTx.nonce,\n            latestTx.gasLimit,\n            latestTx.gasPrice,\n            latestTx.to,\n            latestTx.value,\n            latestTx.data\n        );\n        return keccak256(txData);\n    }\n\n    /**\n     * @dev 取得当前链中的区块数量（最大区块号）\n     * @notice \n     */\n    function getDifficulty() public view returns (uint256)\n    {\n        uint256 blockCount = chainData.blocks.length;\n        require(blockCount > 0);\n        return chainData.blocks[blockCount - 1].header.difficulty.add(10);\n    }\n\n}",
  "sourcePath": "/Users/yangzhen/workspace/yikuailianxi/season1/homework-base/contracts/week4/EthereumChainData.sol",
  "compiler": {
    "name": "solc",
    "version": "0.4.24+commit.e67f0147.Emscripten.clang"
  },
  "schemaVersion": "2.0.1",
  "updatedAt": "2018-09-16T07:23:40.863Z"
}