{
  "contractName": "EthereumWorldState",
  "abi": [
    {
      "constant": true,
      "inputs": [
        {
          "name": "_addr",
          "type": "address"
        }
      ],
      "name": "hasCode",
      "outputs": [
        {
          "name": "",
          "type": "bool"
        }
      ],
      "payable": false,
      "stateMutability": "view",
      "type": "function"
    },
    {
      "constant": true,
      "inputs": [
        {
          "name": "_addr",
          "type": "address"
        }
      ],
      "name": "getCode",
      "outputs": [
        {
          "name": "",
          "type": "bytes"
        }
      ],
      "payable": false,
      "stateMutability": "view",
      "type": "function"
    },
    {
      "constant": true,
      "inputs": [
        {
          "name": "_addr",
          "type": "address"
        }
      ],
      "name": "getNonce",
      "outputs": [
        {
          "name": "",
          "type": "uint256"
        }
      ],
      "payable": false,
      "stateMutability": "view",
      "type": "function"
    },
    {
      "constant": true,
      "inputs": [
        {
          "name": "_addr",
          "type": "address"
        }
      ],
      "name": "getBalance",
      "outputs": [
        {
          "name": "",
          "type": "uint256"
        }
      ],
      "payable": false,
      "stateMutability": "view",
      "type": "function"
    }
  ],
  "bytecode": "0x608060405234801561001057600080fd5b506102d5806100206000396000f3006080604052600436106100615763ffffffff7c01000000000000000000000000000000000000000000000000000000006000350416632d0335ab81146100665780637e105ce2146100995780639538c4b31461012f578063f8b2cb4f14610164575b600080fd5b34801561007257600080fd5b50610087600160a060020a0360043516610185565b60408051918252519081900360200190f35b3480156100a557600080fd5b506100ba600160a060020a03600435166101a0565b6040805160208082528351818301528351919283929083019185019080838360005b838110156100f45781810151838201526020016100dc565b50505050905090810190601f1680156101215780820380516001836020036101000a031916815260200191505b509250505060405180910390f35b34801561013b57600080fd5b50610150600160a060020a036004351661024a565b604080519115158252519081900360200190f35b34801561017057600080fd5b50610087600160a060020a036004351661028b565b600160a060020a031660009081526020819052604090205490565b600160a060020a03811660009081526001602081815260409283902080548451600294821615610100026000190190911693909304601f8101839004830284018301909452838352606093909183018282801561023e5780601f106102135761010080835404028352916020019161023e565b820191906000526020600020905b81548152906001019060200180831161022157829003601f168201915b50505050509050919050565b600160a060020a03166000908152602081905260409020600301547fc5d2460186f7233c927e7db2dcc703c0e500b653ca82273b7bfad8045d85a470141590565b600160a060020a0316600090815260208190526040902060010154905600a165627a7a72305820b7ccca00b66513b34c72abd8d590f16cb42ca5455905db16e1bdb6963a16d58f0029",
  "source": "pragma solidity ^0.4.24;\n\nimport \"../openzeppelin-solidity/contracts/math/SafeMath.sol\";\n\ncontract EthereumWorldState {\n    // 对所有 uint256 类型使用 SafeMath\n    using SafeMath for uint256;\n    // 空字符串的哈希值常量\n    bytes32 constant EMPTY_HASH = 0xc5d2460186f7233c927e7db2dcc703c0e500b653ca82273b7bfad8045d85a470;\n    // AccountState struct\n    struct AccountState {\n        uint256 nonce;\n        uint256 balance;\n        bytes32 storageRoot;\n        bytes32 codeHash;\n    }\n    // StateTrie data struct\n    struct StateData {\n        mapping(address => AccountState) stateTrie;\n        mapping(address => bytes) codeTrie;\n        mapping(address => mapping(uint256 => bytes32)) storageTrie;\n    }\n\n    StateData internal worldState;\n\n    function createContractAccount(\n        address _addr,\n        uint256 _value,\n        bytes _codeBinary\n    )\n        internal\n    {\n        bytes32 _codeHash;\n\n        if (_codeBinary.length > 0) {\n            // 计算传入代码的 code 哈希\n            _codeHash = keccak256(_codeBinary);\n            worldState.codeTrie[_addr] = _codeBinary;\n        } else {\n            // 使用常数作为 code 哈希\n            _codeHash = EMPTY_HASH;\n        }\n\n        worldState.stateTrie[_addr] = AccountState({\n            nonce: 0, balance: _value,\n            storageRoot: EMPTY_HASH, codeHash: _codeHash\n        });\n    }\n\n    function hasCode(address _addr) public view returns (bool) {\n        return (worldState.stateTrie[_addr].codeHash ^ EMPTY_HASH != 0);\n    }\n\n    function getCode(address _addr) public view returns (bytes) {\n        return worldState.codeTrie[_addr];\n    }\n\n    function getNonce(address _addr) public view returns (uint256) {\n        return worldState.stateTrie[_addr].nonce;\n    }\n\n    function addNonce(address _addr) internal returns (uint256) {\n        worldState.stateTrie[_addr].nonce = worldState.stateTrie[_addr].nonce.add(1);\n        return worldState.stateTrie[_addr].nonce;\n    }\n\n    function getBalance(address _addr) public view returns (uint256) {\n        return worldState.stateTrie[_addr].balance;\n    }\n\n    function addBalance(address _addr, uint256 _value) internal returns (uint256) {\n        worldState.stateTrie[_addr].balance = worldState.stateTrie[_addr].balance.add(_value);\n        return worldState.stateTrie[_addr].balance;\n    }\n\n    function subBalance(address _addr, uint256 _value) internal returns (uint256) {\n        require(worldState.stateTrie[_addr].balance >= _value, \"Balance is not enough.\");\n        worldState.stateTrie[_addr].balance = worldState.stateTrie[_addr].balance.sub(_value);\n        return worldState.stateTrie[_addr].balance;\n    }\n\n}",
  "sourcePath": "/Users/yangzhen/workspace/yikuailianxi/season1/homework-base/contracts/week4/EthereumWorldState.sol",
  "compiler": {
    "name": "solc",
    "version": "0.4.24+commit.e67f0147.Emscripten.clang"
  },
  "schemaVersion": "2.0.1",
  "updatedAt": "2018-09-16T07:23:40.888Z"
}