{
  "contractName": "GasOptimizeSample",
  "abi": [
    {
      "constant": true,
      "inputs": [],
      "name": "totalBets",
      "outputs": [
        {
          "name": "",
          "type": "uint256"
        }
      ],
      "payable": false,
      "stateMutability": "view",
      "type": "function"
    },
    {
      "constant": true,
      "inputs": [
        {
          "name": "",
          "type": "uint256"
        }
      ],
      "name": "players",
      "outputs": [
        {
          "name": "",
          "type": "address"
        }
      ],
      "payable": false,
      "stateMutability": "view",
      "type": "function"
    },
    {
      "inputs": [],
      "payable": false,
      "stateMutability": "nonpayable",
      "type": "constructor"
    },
    {
      "constant": false,
      "inputs": [
        {
          "name": "_betNumber",
          "type": "uint256"
        }
      ],
      "name": "bet",
      "outputs": [],
      "payable": true,
      "stateMutability": "payable",
      "type": "function"
    },
    {
      "constant": true,
      "inputs": [],
      "name": "playerBalance",
      "outputs": [
        {
          "name": "",
          "type": "uint256"
        }
      ],
      "payable": false,
      "stateMutability": "view",
      "type": "function"
    }
  ],
  "bytecode": "0x608060405234801561001057600080fd5b506104fb806100206000396000f3006080604052600436106100615763ffffffff7c0100000000000000000000000000000000000000000000000000000000600035041663651f066a81146100665780637365870b1461008d578063befa1e2f1461009a578063f71d96cb146100af575b600080fd5b34801561007257600080fd5b5061007b6100e3565b60408051918252519081900360200190f35b6100986004356100f7565b005b3480156100a657600080fd5b5061007b6101d9565b3480156100bb57600080fd5b506100c76004356101df565b60408051600160a060020a039092168252519081900360200190f35b336000908152600460205260409020545b90565b6000811180156101075750600b81105b151561011257600080fd5b600154600a1161012157600080fd5b336000908152600360205260409020541561013b57600080fd5b6001805480820182557fb10e2d527612073b26eecdfd717e6a320cf44b4afac2b0732d9fcbe2b7fa0cf60180543373ffffffffffffffffffffffffffffffffffffffff19918216811790925560008481526002602090815260408083208054808801825590845282842001805490941685179093559281526003909252812083905580543401905554600a14156101d6576101d66005610207565b50565b60005481565b60018054829081106101ed57fe5b600091825260209091200154600160a060020a0316905081565b6000818152600260205260408120548190819081908110156102b857600085815260026020526040812054905481151561023d57fe5b049350600092505b6000858152600260205260409020548310156102b35760008581526002602052604081208054869260049290918790811061027c57fe5b6000918252602080832090910154600160a060020a0316835282019290925260400190208054909101905560019290920191610245565b610324565b6001546000548115156102c757fe5b049350600092505b6001548310156103245783600460006001868154811015156102ed57fe5b6000918252602080832090910154600160a060020a03168352820192909252604001902080549091019055600192909201916102cf565b600191505b600a821161040d575060005b6000828152600260205260409020548110156103e9576000828152600260205260408120805460039183918590811061036a57fe5b6000918252602080832090910154600160a060020a03168352828101939093526040918201812093909355848352600290915281208054839081106103ab57fe5b6000918252602090912001805473ffffffffffffffffffffffffffffffffffffffff1916600160a060020a0392909216919091179055600101610335565b60008281526002602052604081206104019082610488565b50600190910190610329565b600092505b60015483101561046f57600060018481548110151561042d57fe5b6000918252602090912001805473ffffffffffffffffffffffffffffffffffffffff1916600160a060020a039290921691909117905560019290920191610412565b600061047c600182610488565b50506000805550505050565b8154818355818111156104ac576000838152602090206104ac9181019083016104b1565b505050565b6100f491905b808211156104cb57600081556001016104b7565b50905600a165627a7a723058206da96f0e98a9b772c9d711174f010af4461bf15179f102b2634b577be2e6e1680029",
  "source": "pragma solidity 0.4.24;\n\ncontract GasOptimizeSample {\n    // The total amount of Ether bet for this current game\n    uint public totalBets;\n    // Array of players\n    address[] public players;\n    // Each number has an array of players. Associate each number with a bunch of players\n    mapping(uint256 => address[]) numberBetPlayers;\n    // The number that each player has bet for\n    mapping(address => uint256) playerBetsNumber;\n    // The balance that each player owns\n    mapping(address => uint256) playerBalances;\n\n    constructor() public {\n    }\n\n    function bet(uint256 _betNumber) public payable {\n        require(_betNumber > 0 && _betNumber < 11);\n        require(players.length < 10);\n        require(playerBetsNumber[msg.sender] == 0);\n        players.push(msg.sender);\n        numberBetPlayers[_betNumber].push(msg.sender);\n        playerBetsNumber[msg.sender] = _betNumber;\n        totalBets += msg.value;\n        if (players.length == 10) {\n            distributePrizes1(5);\n        }\n    }\n\n    function playerBalance() public view returns (uint256) {\n        return playerBalances[msg.sender];\n    }\n\n    function distributePrizes1(uint256 _numberWinner) private {\n        // Calculate winner's balance amount\n        uint256 winnerBalance;\n        uint i;\n\n        if (numberBetPlayers[_numberWinner].length > 0) {\n            winnerBalance = totalBets / numberBetPlayers[_numberWinner].length;\n            // Apply rewards\n            for (i = 0; i < numberBetPlayers[_numberWinner].length; i++) {\n                playerBalances[numberBetPlayers[_numberWinner][i]] += winnerBalance;\n            }\n        } else {\n            winnerBalance = totalBets / players.length;\n            // Apply rewards\n            for (i = 0; i < players.length; i++) {\n                playerBalances[players[i]] += winnerBalance;\n            }\n        }\n        // Delete all the players for each number\n        for (uint j = 1; j <= 10; j++) {\n            for (uint k = 0; k < numberBetPlayers[j].length; k++) {\n                playerBetsNumber[numberBetPlayers[j][k]] = 0;\n                numberBetPlayers[j][k] = 0;\n            }\n            numberBetPlayers[j].length = 0;\n        }\n        for (i = 0; i < players.length; i++) {\n            players[i] = 0;\n        }\n        players.length = 0;\n        totalBets = 0;\n    }\n\n    function distributePrizes2(uint256 _numberWinner) private {\n        // Calculate winner's balance amount\n        uint256 winnerBalance;\n        uint256 winnerCount = numberBetPlayers[_numberWinner].length;\n        uint i;\n\n        if (winnerCount > 0) {\n            winnerBalance = totalBets / winnerCount;\n            // 发放奖金\n            for (i = 0; i < winnerCount; i++) {\n                playerBalances[numberBetPlayers[_numberWinner][i]] += winnerBalance;\n            }\n            // 清除下注记录\n            for (i = 0; i < players.length; i++) {\n                playerBetsNumber[players[i]] = 0;\n            }\n        } else {\n            winnerCount = players.length;\n            winnerBalance = totalBets / winnerCount;\n            // 发放奖金并清除下注记录\n            for (i = 0; i < winnerCount; i++) {\n                playerBalances[players[i]] += winnerBalance;\n                playerBetsNumber[players[i]] = 0;\n            }\n        }\n        // Delete 下注统计\n        for (i = 1; i <= 10; i++) {\n            delete numberBetPlayers[i];\n        }\n        delete players;\n        totalBets = 0;\n    }\n\n}",
  "sourcePath": "/Users/yangzhen/workspace/yikuailianxi/season1/homework-base/contracts/week4/GasOptimizeSample.sol",
  "compiler": {
    "name": "solc",
    "version": "0.4.24+commit.e67f0147.Emscripten.clang"
  },
  "schemaVersion": "2.0.1",
  "updatedAt": "2018-09-16T07:23:40.889Z"
}