{
  "contractName": "Miner2",
  "abi": [
    {
      "constant": true,
      "inputs": [
        {
          "name": "_interfaceId",
          "type": "bytes4"
        }
      ],
      "name": "supportsInterface",
      "outputs": [
        {
          "name": "",
          "type": "bool"
        }
      ],
      "payable": false,
      "stateMutability": "view",
      "type": "function"
    },
    {
      "constant": true,
      "inputs": [],
      "name": "InterfaceId_ERC165",
      "outputs": [
        {
          "name": "",
          "type": "bytes4"
        }
      ],
      "payable": false,
      "stateMutability": "view",
      "type": "function"
    },
    {
      "constant": true,
      "inputs": [
        {
          "name": "_addr",
          "type": "address"
        }
      ],
      "name": "getNonce",
      "outputs": [
        {
          "name": "",
          "type": "uint256"
        }
      ],
      "payable": false,
      "stateMutability": "view",
      "type": "function"
    },
    {
      "constant": true,
      "inputs": [],
      "name": "getLatestBlockHash",
      "outputs": [
        {
          "name": "",
          "type": "bytes32"
        }
      ],
      "payable": false,
      "stateMutability": "view",
      "type": "function"
    },
    {
      "constant": false,
      "inputs": [
        {
          "name": "_addr",
          "type": "address"
        }
      ],
      "name": "register",
      "outputs": [],
      "payable": false,
      "stateMutability": "nonpayable",
      "type": "function"
    },
    {
      "constant": false,
      "inputs": [
        {
          "name": "_blockData",
          "type": "bytes"
        }
      ],
      "name": "applyBlock",
      "outputs": [],
      "payable": false,
      "stateMutability": "nonpayable",
      "type": "function"
    },
    {
      "constant": true,
      "inputs": [],
      "name": "gasUsed",
      "outputs": [
        {
          "name": "",
          "type": "uint256"
        }
      ],
      "payable": false,
      "stateMutability": "view",
      "type": "function"
    },
    {
      "constant": false,
      "inputs": [],
      "name": "applyReward",
      "outputs": [],
      "payable": false,
      "stateMutability": "nonpayable",
      "type": "function"
    },
    {
      "constant": false,
      "inputs": [],
      "name": "prepareToCreateBlock",
      "outputs": [],
      "payable": false,
      "stateMutability": "nonpayable",
      "type": "function"
    },
    {
      "constant": false,
      "inputs": [],
      "name": "renounceOwnership",
      "outputs": [],
      "payable": false,
      "stateMutability": "nonpayable",
      "type": "function"
    },
    {
      "constant": false,
      "inputs": [],
      "name": "finalizeBlock",
      "outputs": [
        {
          "name": "",
          "type": "bytes"
        }
      ],
      "payable": false,
      "stateMutability": "nonpayable",
      "type": "function"
    },
    {
      "constant": true,
      "inputs": [],
      "name": "getLatestTransactionHash",
      "outputs": [
        {
          "name": "",
          "type": "bytes32"
        }
      ],
      "payable": false,
      "stateMutability": "view",
      "type": "function"
    },
    {
      "constant": true,
      "inputs": [
        {
          "name": "_addr",
          "type": "address"
        }
      ],
      "name": "getCode",
      "outputs": [
        {
          "name": "",
          "type": "bytes"
        }
      ],
      "payable": false,
      "stateMutability": "view",
      "type": "function"
    },
    {
      "constant": true,
      "inputs": [],
      "name": "BLOCK_REWARD",
      "outputs": [
        {
          "name": "",
          "type": "uint256"
        }
      ],
      "payable": false,
      "stateMutability": "view",
      "type": "function"
    },
    {
      "constant": true,
      "inputs": [],
      "name": "owner",
      "outputs": [
        {
          "name": "",
          "type": "address"
        }
      ],
      "payable": false,
      "stateMutability": "view",
      "type": "function"
    },
    {
      "constant": true,
      "inputs": [
        {
          "name": "_addr",
          "type": "address"
        }
      ],
      "name": "hasCode",
      "outputs": [
        {
          "name": "",
          "type": "bool"
        }
      ],
      "payable": false,
      "stateMutability": "view",
      "type": "function"
    },
    {
      "constant": true,
      "inputs": [],
      "name": "getDifficulty",
      "outputs": [
        {
          "name": "",
          "type": "uint256"
        }
      ],
      "payable": false,
      "stateMutability": "view",
      "type": "function"
    },
    {
      "constant": false,
      "inputs": [
        {
          "name": "_from",
          "type": "address"
        },
        {
          "name": "_gasLimit",
          "type": "uint256"
        },
        {
          "name": "_gasPrice",
          "type": "uint256"
        },
        {
          "name": "_to",
          "type": "address"
        },
        {
          "name": "_value",
          "type": "uint256"
        },
        {
          "name": "_data",
          "type": "bytes"
        }
      ],
      "name": "addTransaction",
      "outputs": [
        {
          "name": "",
          "type": "bool"
        }
      ],
      "payable": false,
      "stateMutability": "nonpayable",
      "type": "function"
    },
    {
      "constant": true,
      "inputs": [],
      "name": "BLOCK_GAS_LIMIT",
      "outputs": [
        {
          "name": "",
          "type": "uint256"
        }
      ],
      "payable": false,
      "stateMutability": "view",
      "type": "function"
    },
    {
      "constant": false,
      "inputs": [],
      "name": "unregister",
      "outputs": [],
      "payable": false,
      "stateMutability": "nonpayable",
      "type": "function"
    },
    {
      "constant": false,
      "inputs": [
        {
          "name": "_newOwner",
          "type": "address"
        }
      ],
      "name": "transferOwnership",
      "outputs": [],
      "payable": false,
      "stateMutability": "nonpayable",
      "type": "function"
    },
    {
      "constant": true,
      "inputs": [
        {
          "name": "_addr",
          "type": "address"
        }
      ],
      "name": "getBalance",
      "outputs": [
        {
          "name": "",
          "type": "uint256"
        }
      ],
      "payable": false,
      "stateMutability": "view",
      "type": "function"
    },
    {
      "inputs": [],
      "payable": true,
      "stateMutability": "payable",
      "type": "constructor"
    },
    {
      "anonymous": false,
      "inputs": [
        {
          "indexed": false,
          "name": "_parentHash",
          "type": "bytes32"
        },
        {
          "indexed": false,
          "name": "_beneficiary",
          "type": "address"
        },
        {
          "indexed": false,
          "name": "_stateRoot",
          "type": "bytes32"
        },
        {
          "indexed": false,
          "name": "_transactionsRoot",
          "type": "bytes32"
        },
        {
          "indexed": false,
          "name": "_difficulty",
          "type": "uint256"
        },
        {
          "indexed": false,
          "name": "_number",
          "type": "uint256"
        },
        {
          "indexed": false,
          "name": "_gasLimit",
          "type": "uint256"
        },
        {
          "indexed": false,
          "name": "_gasUsed",
          "type": "uint256"
        },
        {
          "indexed": false,
          "name": "_timeStamp",
          "type": "uint256"
        },
        {
          "indexed": false,
          "name": "_extraData",
          "type": "bytes32"
        }
      ],
      "name": "LogBlockReceived",
      "type": "event"
    },
    {
      "anonymous": false,
      "inputs": [
        {
          "indexed": true,
          "name": "_txHash",
          "type": "bytes32"
        },
        {
          "indexed": true,
          "name": "_from",
          "type": "address"
        },
        {
          "indexed": false,
          "name": "_nonce",
          "type": "uint256"
        },
        {
          "indexed": false,
          "name": "_gasLimit",
          "type": "uint256"
        },
        {
          "indexed": false,
          "name": "_gasPrice",
          "type": "uint256"
        },
        {
          "indexed": false,
          "name": "_to",
          "type": "address"
        },
        {
          "indexed": false,
          "name": "_value",
          "type": "uint256"
        },
        {
          "indexed": false,
          "name": "_data",
          "type": "bytes"
        }
      ],
      "name": "LogTransactionData",
      "type": "event"
    },
    {
      "anonymous": false,
      "inputs": [
        {
          "indexed": false,
          "name": "_data",
          "type": "bytes"
        },
        {
          "indexed": false,
          "name": "_length",
          "type": "uint256"
        }
      ],
      "name": "LogMyData",
      "type": "event"
    },
    {
      "anonymous": false,
      "inputs": [
        {
          "indexed": true,
          "name": "previousOwner",
          "type": "address"
        }
      ],
      "name": "OwnershipRenounced",
      "type": "event"
    },
    {
      "anonymous": false,
      "inputs": [
        {
          "indexed": true,
          "name": "previousOwner",
          "type": "address"
        },
        {
          "indexed": true,
          "name": "newOwner",
          "type": "address"
        }
      ],
      "name": "OwnershipTransferred",
      "type": "event"
    }
  ],
  "bytecode": "0x6080604052620000387f01ffc9a7000000000000000000000000000000000000000000000000000000006401000000006200027d810204565b60068054600160a060020a0319163317905560003411620000e057604080517f08c379a000000000000000000000000000000000000000000000000000000000815260206004820152602e60248201527f596f75206e65656420746f207472616e736665722076616c756520666f72206d60448201527f696e657220636f6e74726163742e000000000000000000000000000000000000606482015290519081900360840190fd5b604080517f70726570617265546f437265617465426c6f636b2829000000000000000000008152905190819003601601902062000126906401000000006200027d810204565b604080517f6164645472616e73616374696f6e28616464726573732c75696e743235362c7581527f696e743235362c616464726573732c75696e743235362c6279746573290000006020820152905190819003603d01902062000192906401000000006200027d810204565b604080517f6170706c795265776172642829000000000000000000000000000000000000008152905190819003600d019020620001d8906401000000006200027d810204565b604080517f66696e616c697a65426c6f636b282900000000000000000000000000000000008152905190819003600f0190206200021e906401000000006200027d810204565b604080517f6170706c79426c6f636b286279746573290000000000000000000000000000008152905190819003601101902062000264906401000000006200027d810204565b62000277640100000000620002ea810204565b620009c1565b7fffffffff000000000000000000000000000000000000000000000000000000008082161415620002ad57600080fd5b7fffffffff00000000000000000000000000000000000000000000000000000000166000908152602081905260409020805460ff19166001179055565b620002f46200084d565b620002fe620008a1565b62000308620008f1565b600154156200039e57604080517f08c379a000000000000000000000000000000000000000000000000000000000815260206004820152602360248201527f47656e6573697320626c6f636b2063616e206f6e6c7920637265617465206f6e60448201527f63652e0000000000000000000000000000000000000000000000000000000000606482015290519081900360840190fd5b6040805160006101408201908152610160820192839052805191928392819081908082805b60208310620003e45780518252601f199092019160209182019101620003c3565b6001836020036101000a03801982511681845116808217855250505050505090500191505060405180910390206000191681526020016000600160a060020a0316815260200160006001026000191681526020016000600102600019168152602001600081526020016000815260200160008152602001600081526020014281526020017f47656e6573697320426c6f636b0000000000000000000000000000000000000060001916815250925060e0604051908101604052806000600160a060020a031681526020016000815260200160008152602001600081526020016000600160a060020a031681526020016000815260200160006040519080825280601f01601f1916602001820160405280156200050a578160200160208202803883390190505b5090526040805180820182528581526020808201848152600180548082018083556000929092528451805160119092027fb10e2d527612073b26eecdfd717e6a320cf44b4afac2b0732d9fcbe2b7fa0cf68101928355818601517fb10e2d527612073b26eecdfd717e6a320cf44b4afac2b0732d9fcbe2b7fa0cf782018054600160a060020a03928316600160a060020a031991821617909155838a01517fb10e2d527612073b26eecdfd717e6a320cf44b4afac2b0732d9fcbe2b7fa0cf88401556060808501517fb10e2d527612073b26eecdfd717e6a320cf44b4afac2b0732d9fcbe2b7fa0cf98501556080808601517fb10e2d527612073b26eecdfd717e6a320cf44b4afac2b0732d9fcbe2b7fa0cfa86015560a0808701517fb10e2d527612073b26eecdfd717e6a320cf44b4afac2b0732d9fcbe2b7fa0cfb87015560c0808801517fb10e2d527612073b26eecdfd717e6a320cf44b4afac2b0732d9fcbe2b7fa0cfc88015560e08801517fb10e2d527612073b26eecdfd717e6a320cf44b4afac2b0732d9fcbe2b7fa0cfd8801556101008801517fb10e2d527612073b26eecdfd717e6a320cf44b4afac2b0732d9fcbe2b7fa0cfe880155610120909701517fb10e2d527612073b26eecdfd717e6a320cf44b4afac2b0732d9fcbe2b7fa0cff870155985180517fb10e2d527612073b26eecdfd717e6a320cf44b4afac2b0732d9fcbe2b7fa0d0087018054918716918616919091178155818c01517fb10e2d527612073b26eecdfd717e6a320cf44b4afac2b0732d9fcbe2b7fa0d018801559c8101517fb10e2d527612073b26eecdfd717e6a320cf44b4afac2b0732d9fcbe2b7fa0d02870155918201517fb10e2d527612073b26eecdfd717e6a320cf44b4afac2b0732d9fcbe2b7fa0d038601558101517fb10e2d527612073b26eecdfd717e6a320cf44b4afac2b0732d9fcbe2b7fa0d048501805491909416921691909117909155948501517fb10e2d527612073b26eecdfd717e6a320cf44b4afac2b0732d9fcbe2b7fa0d05820155908401518051989a509598509196889691959394919362000842937fb10e2d527612073b26eecdfd717e6a320cf44b4afac2b0732d9fcbe2b7fa0d06019201906200091c565b505050505050505050565b6040805161014081018252600080825260208201819052918101829052606081018290526080810182905260a0810182905260c0810182905260e08101829052610100810182905261012081019190915290565b60e0604051908101604052806000600160a060020a031681526020016000815260200160008152602001600081526020016000600160a060020a0316815260200160008152602001606081525090565b61022060405190810160405280620009086200084d565b815260200162000917620008a1565b905290565b828054600181600116156101000203166002900490600052602060002090601f016020900481019282601f106200095f57805160ff19168380011785556200098f565b828001600101855582156200098f579182015b828111156200098f57825182559160200191906001019062000972565b506200099d929150620009a1565b5090565b620009be91905b808211156200099d5760008155600101620009a8565b90565b61292a80620009d16000396000f30060806040526004361061010e5763ffffffff60e060020a60003504166301ffc9a7811461011357806319fa8f501461015e5780632d0335ab146101a557806342bcad28146101d85780634420e486146101ed57806355a2173614610210578063592cdadd146102305780636a29ee1b146102455780636d01d0461461025a578063715018a61461026f57806375395a58146102845780637a4fb2c51461030e5780637e105ce2146103235780637f05b9ef146103445780638da5cb5b146103595780639538c4b31461038a578063b6baffe3146103ab578063b7544e52146103c0578063d9eb2d5e146103ff578063e79a198f14610414578063f2fde38b14610429578063f8b2cb4f1461044a575b600080fd5b34801561011f57600080fd5b5061014a7bffffffffffffffffffffffffffffffffffffffffffffffffffffffff196004351661046b565b604080519115158252519081900360200190f35b34801561016a57600080fd5b5061017361049f565b604080517bffffffffffffffffffffffffffffffffffffffffffffffffffffffff199092168252519081900360200190f35b3480156101b157600080fd5b506101c6600160a060020a03600435166104c3565b60408051918252519081900360200190f35b3480156101e457600080fd5b506101c66104de565b3480156101f957600080fd5b5061020e600160a060020a0360043516610626565b005b34801561021c57600080fd5b5061020e6004803560248101910135610797565b34801561023c57600080fd5b506101c6610d29565b34801561025157600080fd5b5061020e610d2f565b34801561026657600080fd5b5061020e610db5565b34801561027b57600080fd5b5061020e610e76565b34801561029057600080fd5b50610299610ee4565b6040805160208082528351818301528351919283929083019185019080838360005b838110156102d35781810151838201526020016102bb565b50505050905090810190601f1680156103005780820380516001836020036101000a031916815260200191505b509250505060405180910390f35b34801561031a57600080fd5b506101c661187d565b34801561032f57600080fd5b50610299600160a060020a0360043516611a0e565b34801561035057600080fd5b506101c6611ab9565b34801561036557600080fd5b5061036e611ac1565b60408051600160a060020a039092168252519081900360200190f35b34801561039657600080fd5b5061014a600160a060020a0360043516611ad0565b3480156103b757600080fd5b506101c6611b12565b3480156103cc57600080fd5b5061014a600160a060020a036004803582169160248035926044359260643516916084359160a435918201910135611b64565b34801561040b57600080fd5b506101c661200a565b34801561042057600080fd5b5061020e61200f565b34801561043557600080fd5b5061020e600160a060020a0360043516612146565b34801561045657600080fd5b506101c6600160a060020a0360043516612166565b7bffffffffffffffffffffffffffffffffffffffffffffffffffffffff191660009081526020819052604090205460ff1690565b7f01ffc9a70000000000000000000000000000000000000000000000000000000081565b600160a060020a031660009081526003602052604090205490565b6001546000908160608183116104f357600080fd5b60018054600019850190811061050557fe5b60009182526020918290206011919091020180546001820154600283015460038401546004850154600586015460068701546007880154600889015460098a015460408051808e019b909b52600160a060020a039099166c01000000000000000000000000028a8a015260548a01979097526074890195909552609488019390935260b487019190915260d486015260f485015261011484015261013480840191909152815180840390910181526101549092019081905281519295509093508392909182918401908083835b602083106105f15780518252601f1990920191602091820191016105d2565b6001836020036101000a0380198251168184511680821785525050505050509050019150506040518091039020935050505090565b60095460009060ff1615610672576040805160e560020a62461bcd028152602060048201526014602482015260008051602061289f833981519152604482015290519081900360640190fd5b600654600160a060020a0316331461068957600080fd5b6009805474ffffffffffffffffffffffffffffffffffffffff001916610100600160a060020a0385160217905560023031049050600960019054906101000a9004600160a060020a0316600160a060020a031663df2eaf51826040518263ffffffff1660e060020a0281526004016020604051808303818588803b15801561071057600080fd5b505af1158015610724573d6000803e3d6000fd5b50505050506040513d602081101561073b57600080fd5b50511515610793576040805160e560020a62461bcd02815260206004820152601960248201527f4661696c656420746f207265676973746572206d696e65722e00000000000000604482015290519081900360640190fd5b5050565b6000606060006107a561266c565b6107ad6126c0565b6107b5612710565b60095460009060ff1615610801576040805160e560020a62461bcd028152602060048201526014602482015260008051602061289f833981519152604482015290519081900360640190fd5b6009546101009004600160a060020a0316331461086a576040805160e560020a62461bcd02815260206004820152602b60248201526000805160206128bf83398151915260448201526000805160206128df833981519152606482015290519081900360840190fd5b60408051898152601f19601f8b0116810160200190915288975087801561089b578160200160208202803883390190505b509550600094505b8685101561096b578888868181106108b757fe5b905001357f010000000000000000000000000000000000000000000000000000000000000090047f0100000000000000000000000000000000000000000000000000000000000000027effffffffffffffffffffffffffffffffffffffffffffffffffffffffffffff1916868681518110151561093057fe5b9060200101907effffffffffffffffffffffffffffffffffffffffffffffffffffffffffffff1916908160001a9053506001909401936108a3565b6109758487612184565b935061098984602001516305f5e1006121c4565b506109948387612216565b92506109a883608001518460a001516121c4565b506109bb83600001518460a001516122e8565b50604080518082018252858152602080820186815260018054808201808355600092909252845180517fb10e2d527612073b26eecdfd717e6a320cf44b4afac2b0732d9fcbe2b7fa0cf66011909302928301908155818601517fb10e2d527612073b26eecdfd717e6a320cf44b4afac2b0732d9fcbe2b7fa0cf78401805473ffffffffffffffffffffffffffffffffffffffff19908116600160a060020a0393841617909155838a01517fb10e2d527612073b26eecdfd717e6a320cf44b4afac2b0732d9fcbe2b7fa0cf88601556060808501517fb10e2d527612073b26eecdfd717e6a320cf44b4afac2b0732d9fcbe2b7fa0cf98701556080808601517fb10e2d527612073b26eecdfd717e6a320cf44b4afac2b0732d9fcbe2b7fa0cfa88015560a0808701517fb10e2d527612073b26eecdfd717e6a320cf44b4afac2b0732d9fcbe2b7fa0cfb89015560c0808801517fb10e2d527612073b26eecdfd717e6a320cf44b4afac2b0732d9fcbe2b7fa0cfc8a015560e08801517fb10e2d527612073b26eecdfd717e6a320cf44b4afac2b0732d9fcbe2b7fa0cfd8a01556101008801517fb10e2d527612073b26eecdfd717e6a320cf44b4afac2b0732d9fcbe2b7fa0cfe8a0155610120909701517fb10e2d527612073b26eecdfd717e6a320cf44b4afac2b0732d9fcbe2b7fa0cff890155985180517fb10e2d527612073b26eecdfd717e6a320cf44b4afac2b0732d9fcbe2b7fa0d00890180548616918716919091178155818c01517fb10e2d527612073b26eecdfd717e6a320cf44b4afac2b0732d9fcbe2b7fa0d018a01559c8101517fb10e2d527612073b26eecdfd717e6a320cf44b4afac2b0732d9fcbe2b7fa0d02890155918201517fb10e2d527612073b26eecdfd717e6a320cf44b4afac2b0732d9fcbe2b7fa0d038801558101517fb10e2d527612073b26eecdfd717e6a320cf44b4afac2b0732d9fcbe2b7fa0d04870180549093169316929092179055948501517fb10e2d527612073b26eecdfd717e6a320cf44b4afac2b0732d9fcbe2b7fa0d058401559084015180519699509296899691959093610cf6937fb10e2d527612073b26eecdfd717e6a320cf44b4afac2b0732d9fcbe2b7fa0d060192910190612737565b505050505050610d0461187d565b6001546000918252600260205260409091206000199091019055505050505050505050565b60085481565b6009546101009004600160a060020a03163314610d98576040805160e560020a62461bcd02815260206004820152602b60248201526000805160206128bf83398151915260448201526000805160206128df833981519152606482015290519081900360840190fd5b600654610db290600160a060020a03166305f5e1006121c4565b50565b60095460ff1615610dfe576040805160e560020a62461bcd028152602060048201526014602482015260008051602061289f833981519152604482015290519081900360640190fd5b6009546101009004600160a060020a03163314610e67576040805160e560020a62461bcd02815260206004820152602b60248201526000805160206128bf83398151915260448201526000805160206128df833981519152606482015290519081900360840190fd5b6009805460ff19166001179055565b600654600160a060020a03163314610e8d57600080fd5b600654604051600160a060020a03909116907ff8df31144d9c2f0f6b59d69b8b98abd5459d07f2742c4df920b25aae33c6482090600090a26006805473ffffffffffffffffffffffffffffffffffffffff19169055565b6060610eee6126c0565b610ef661266c565b610efe612710565b6009546000906060908190819060ff161515610f64576040805160e560020a62461bcd02815260206004820152601860248201527f4d696e6572206973206e6f74206163636f756e74696e672e0000000000000000604482015290519081900360640190fd5b6009546101009004600160a060020a03163314610fcd576040805160e560020a62461bcd02815260206004820152602b60248201526000805160206128bf83398151915260448201526000805160206128df833981519152606482015290519081900360840190fd5b60075460001061104d576040805160e560020a62461bcd02815260206004820152602e60248201527f4e65656420746f20616464207472616e73616374696f6e206265666f7265206660448201527f696e616c697a6520626c6f636b2e000000000000000000000000000000000000606482015290519081900360840190fd5b60e0604051908101604052806007600081548110151561106957fe5b6000918252602080832060079283020154600160a060020a031684528154930192909190811061109557fe5b9060005260206000209060070201600101548152602001600760008154811015156110bc57fe5b9060005260206000209060070201600201548152602001600760008154811015156110e357fe5b90600052602060002090600702016003015481526020016007600081548110151561110a57fe5b6000918252602080832060079283020160040154600160a060020a031684528154930192909190811061113957fe5b90600052602060002090600702016005015481526020016007600081548110151561116057fe5b6000918252602091829020600660079092020101805460408051601f60026000196101006001871615020190941693909304928301859004850281018501909152818152928301828280156111f65780601f106111cb576101008083540402835291602001916111f6565b820191906000526020600020905b8154815290600101906020018083116111d957829003601f168201915b5050505050815250965061120f868860c0015151612387565b60408051808201825282815260208082018b8152600180548082018083556000929092528451805160119092027fb10e2d527612073b26eecdfd717e6a320cf44b4afac2b0732d9fcbe2b7fa0cf68101928355818601517fb10e2d527612073b26eecdfd717e6a320cf44b4afac2b0732d9fcbe2b7fa0cf782018054600160a060020a0392831673ffffffffffffffffffffffffffffffffffffffff1991821617909155838a01517fb10e2d527612073b26eecdfd717e6a320cf44b4afac2b0732d9fcbe2b7fa0cf88401556060808501517fb10e2d527612073b26eecdfd717e6a320cf44b4afac2b0732d9fcbe2b7fa0cf98501556080808601517fb10e2d527612073b26eecdfd717e6a320cf44b4afac2b0732d9fcbe2b7fa0cfa86015560a0808701517fb10e2d527612073b26eecdfd717e6a320cf44b4afac2b0732d9fcbe2b7fa0cfb87015560c0808801517fb10e2d527612073b26eecdfd717e6a320cf44b4afac2b0732d9fcbe2b7fa0cfc88015560e08801517fb10e2d527612073b26eecdfd717e6a320cf44b4afac2b0732d9fcbe2b7fa0cfd8801556101008801517fb10e2d527612073b26eecdfd717e6a320cf44b4afac2b0732d9fcbe2b7fa0cfe880155610120909701517fb10e2d527612073b26eecdfd717e6a320cf44b4afac2b0732d9fcbe2b7fa0cff870155985180517fb10e2d527612073b26eecdfd717e6a320cf44b4afac2b0732d9fcbe2b7fa0d0087018054918716918616919091178155818c01517fb10e2d527612073b26eecdfd717e6a320cf44b4afac2b0732d9fcbe2b7fa0d018801559c8101517fb10e2d527612073b26eecdfd717e6a320cf44b4afac2b0732d9fcbe2b7fa0d02870155918201517fb10e2d527612073b26eecdfd717e6a320cf44b4afac2b0732d9fcbe2b7fa0d038601558101517fb10e2d527612073b26eecdfd717e6a320cf44b4afac2b0732d9fcbe2b7fa0d048501805491909416921691909117909155948501517fb10e2d527612073b26eecdfd717e6a320cf44b4afac2b0732d9fcbe2b7fa0d05820155908401518051989e50959c5091968c9691959394919361154f937fb10e2d527612073b26eecdfd717e6a320cf44b4afac2b0732d9fcbe2b7fa0d0601920190612737565b50505050505061156787608001518860a001516121c4565b5061157a87600001518860a001516122e8565b5061158361187d565b6001546000828152600260205260409020600019909101905593506115a78461240b565b6115b3600760006127b1565b6000600960006101000a81548160ff021916908315150217905550856000015186602001518760400151886060015189608001518a60a001518b60c001518c60e001518d61010001518e6101200151604051602001808b600019166000191681526020018a600160a060020a0316600160a060020a031681526020018960001916600019168152602001886000191660001916815260200187815260200186815260200185815260200184815260200183815260200182600019166000191681526020019a5050505050505050505050604051602081830303815290604052925086600001518760200151886040015189606001518a608001518b60a001518c60c001516040516020018088600160a060020a0316600160a060020a0316815260200187815260200186815260200185815260200184600160a060020a0316600160a060020a0316815260200183815260200180602001828103825283818151815260200191508051906020019080838360005b8381101561173f578181015183820152602001611727565b50505050905090810190601f16801561176c5780820380516001836020036101000a031916815260200191505b509850505050505050505060405160208183030381529060405291508282604051602001808060200180602001838103835285818151815260200191508051906020019080838360005b838110156117ce5781810151838201526020016117b6565b50505050905090810190601f1680156117fb5780820380516001836020036101000a031916815260200191505b50838103825284518152845160209182019186019080838360005b8381101561182e578181015183820152602001611816565b50505050905090810190601f16801561185b5780820380516001836020036101000a031916815260200191505b5060408051601f198184030181529190529d9c50505050505050505050505050565b60015460009081606081831161189257600080fd5b6001805460001985019081106118a457fe5b9060005260206000209060110201600a0191508160000160009054906101000a9004600160a060020a03168260010154836002015484600301548560040160009054906101000a9004600160a060020a03168660050154876006016040516020018088600160a060020a0316600160a060020a03166c0100000000000000000000000002815260140187815260200186815260200185815260200184600160a060020a0316600160a060020a03166c01000000000000000000000000028152601401838152602001828054600181600116156101000203166002900480156119c35780601f106119a15761010080835404028352918201916119c3565b820191906000526020600020905b8154815290600101906020018083116119af575b5050975050505050505050604051602081830303815290604052905080604051808280519060200190808383602083106105f15780518252601f1990920191602091820191016105d2565b600160a060020a03811660009081526004602090815260409182902080548351601f6002600019610100600186161502019093169290920491820184900484028101840190945280845260609392830182828015611aad5780601f10611a8257610100808354040283529160200191611aad565b820191906000526020600020905b815481529060010190602001808311611a9057829003601f168201915b50505050509050919050565b6305f5e10081565b600654600160a060020a031681565b600160a060020a0316600090815260036020819052604090912001547fc5d2460186f7233c927e7db2dcc703c0e500b653ca82273b7bfad8045d85a470141590565b600154600090818111611b2457600080fd5b60018054611b5d91600a916000198501908110611b3d57fe5b60009182526020909120600460119092020101549063ffffffff61255b16565b91505b5090565b600080611b6f6126c0565b60095460ff161515611bcb576040805160e560020a62461bcd02815260206004820152601860248201527f4d696e6572206973206e6f74206163636f756e74696e672e0000000000000000604482015290519081900360640190fd5b6009546101009004600160a060020a03163314611c34576040805160e560020a62461bcd02815260206004820152602b60248201526000805160206128bf83398151915260448201526000805160206128df833981519152606482015290519081900360840190fd5b600154600010611cb4576040805160e560020a62461bcd02815260206004820152602360248201527f4e65656420746f206372656174652067656e6573697320626c6f636b2066697260448201527f73742e0000000000000000000000000000000000000000000000000000000000606482015290519081900360840190fd5b6064891115611d0d576040805160e560020a62461bcd02815260206004820152601e60248201527f5472616e73616374696f6e20676173206c696d697420726561636865642e0000604482015290519081900360640190fd5b88841115611d65576040805160e560020a62461bcd02815260206004820152601a60248201527f546f6f206d616e79207472616e73616374696f6e20646174612e000000000000604482015290519081900360640190fd5b611d6e8a612166565b611d7e858a63ffffffff61256816565b1115611dd4576040805160e560020a62461bcd02815260206004820152601360248201527f42616c616e6365206e6f7420656e6f7567682e00000000000000000000000000604482015290519081900360640190fd5b60085460649085011115611deb5760009250611ffd565b611df48a612591565b915060e0604051908101604052808b600160a060020a031681526020018381526020018a815260200189815260200188600160a060020a0316815260200187815260200186868080601f0160208091040260200160405190810160405280939291908181526020018383808284375050509290935250506007805460018101808355600083905284517fa66cc928b5edb82af9bd49922954155ab7b0942694bea4ce44661d9a8736c68892909302918201805473ffffffffffffffffffffffffffffffffffffffff19908116600160a060020a039586161782556020808801517fa66cc928b5edb82af9bd49922954155ab7b0942694bea4ce44661d9a8736c68986015560408801517fa66cc928b5edb82af9bd49922954155ab7b0942694bea4ce44661d9a8736c68a86015560608801517fa66cc928b5edb82af9bd49922954155ab7b0942694bea4ce44661d9a8736c68b86015560808801517fa66cc928b5edb82af9bd49922954155ab7b0942694bea4ce44661d9a8736c68c86018054909316961695909517905560a08601517fa66cc928b5edb82af9bd49922954155ab7b0942694bea4ce44661d9a8736c68d84015560c0860151805196975091958795509093611fe7937fa66cc928b5edb82af9bd49922954155ab7b0942694bea4ce44661d9a8736c68e01920190612737565b505060088054870190555060019350611ffd9050565b5050979650505050505050565b606481565b60095460ff1615612058576040805160e560020a62461bcd028152602060048201526014602482015260008051602061289f833981519152604482015290519081900360640190fd5b600654600160a060020a0316331461206f57600080fd5b600960019054906101000a9004600160a060020a0316600160a060020a031663656a1b206040518163ffffffff1660e060020a028152600401602060405180830381600087803b1580156120c257600080fd5b505af11580156120d6573d6000803e3d6000fd5b505050506040513d60208110156120ec57600080fd5b50511515612144576040805160e560020a62461bcd02815260206004820152601b60248201527f4661696c656420746f20756e7265676973746572206d696e65722e0000000000604482015290519081900360640190fd5b565b600654600160a060020a0316331461215d57600080fd5b610db2816125dc565b600160a060020a031660009081526003602052604090206001015490565b61218c61266c565b602082015160408184010160005b600a8110156121b75760208102828101519087015260010161219a565b5050508290505b92915050565b600160a060020a0382166000908152600360205260408120600101546121f0908363ffffffff61255b16565b600160a060020a0384166000908152600360205260409020600101819055905092915050565b61221e6126c0565b60408083015160009181850101606081845b600681101561224d576020810282810151908a0152600101612230565b5060c001518281015160408051828152601f19601f840116810160200190915290955090935084801561228a578160200160208202803883390190505b50905060208406602085046020858501016020840160005b838110156122be576020810283810151908301526001016122a2565b60008511156122d4576020810283810151908301525b505050505060c08701525093949350505050565b600160a060020a03821660009081526003602052604081206001015482111561235b576040805160e560020a62461bcd02815260206004820152601660248201527f42616c616e6365206973206e6f7420656e6f7567682e00000000000000000000604482015290519081900360640190fd5b600160a060020a0383166000908152600360205260409020600101546121f0908363ffffffff61265a16565b61238f61266c565b6123976104de565b8352600654600160a060020a0316602084015260006040840181905260608401526123c0611b12565b60808401525060015460a0830152606460c083015260e0820152426101008201527f4d696e65642062792073696d706c65206d696e65722e0000000000000000000061012082015290565b6000818152600260205260408120549080821161242757600080fd5b600180548390811061243557fe5b6000918252602091829020600a6011909202019081018054600b830154600c840154600d850154600e860154600f87015460408051868152998a018590528901839052600160a060020a0391821660608a0181905260808a0182905260c060a08b018181526010909a01805460026001821615610100026000190190911604918c01829052989b5092909616988c987feb1bb708564c24af5dc37fb8e9911307e7b1443abed66828771d40cef837f24c9896979596949594929360e0830190849080156125435780601f1061251857610100808354040283529160200191612543565b820191906000526020600020905b81548152906001019060200180831161252657829003601f168201915b505097505050505050505060405180910390a3505050565b818101828110156121be57fe5b6000821515612579575060006121be565b5081810281838281151561258957fe5b04146121be57fe5b600160a060020a0381166000908152600360205260408120546125bb90600163ffffffff61255b16565b600160a060020a039290921660009081526003602052604090208290555090565b600160a060020a03811615156125f157600080fd5b600654604051600160a060020a038084169216907f8be0079c531659141344cd1fd0a4f28419497f9722a3daafe3b4186f6b6457e090600090a36006805473ffffffffffffffffffffffffffffffffffffffff1916600160a060020a0392909216919091179055565b60008282111561266657fe5b50900390565b6040805161014081018252600080825260208201819052918101829052606081018290526080810182905260a0810182905260c0810182905260e08101829052610100810182905261012081019190915290565b60e0604051908101604052806000600160a060020a031681526020016000815260200160008152602001600081526020016000600160a060020a0316815260200160008152602001606081525090565b6102206040519081016040528061272561266c565b81526020016127326126c0565b905290565b828054600181600116156101000203166002900490600052602060002090601f016020900481019282601f1061277857805160ff19168380011785556127a5565b828001600101855582156127a5579182015b828111156127a557825182559160200191906001019061278a565b50611b609291506127d2565b5080546000825560070290600052602060002090810190610db291906127ef565b6127ec91905b80821115611b6057600081556001016127d8565b90565b6127ec91905b80821115611b6057805473ffffffffffffffffffffffffffffffffffffffff199081168255600060018301819055600283018190556003830181905560048301805490921690915560058201819055612851600683018261285a565b506007016127f5565b50805460018160011615610100020316600290046000825580601f106128805750610db2565b601f016020900490600052602060002090810190610db291906127d256004d696e6572206973206163636f756e74696e672e0000000000000000000000004f6e6c79206163636570742063616c6c696e672066726f6d204e6574776f726b2053696d756c61746f722e000000000000000000000000000000000000000000a165627a7a72305820853061809a7316dcabe853a24f7848cb9d36da05b0c8bfa47573608f452986c20029",
  "source": "pragma solidity ^0.4.24;\n\nimport \"./EthereumMiner.sol\";\n\ncontract Miner2 is EthereumMiner {\n\n    constructor() public payable {\n    }\n\n}",
  "sourcePath": "/Users/yangzhen/workspace/yikuailianxi/season1/homework-base/contracts/week4/Miner2.sol",
  "compiler": {
    "name": "solc",
    "version": "0.4.24+commit.e67f0147.Emscripten.clang"
  },
  "schemaVersion": "2.0.1",
  "updatedAt": "2018-09-16T07:23:40.891Z"
}