{
  "contractName": "PersonalPayment",
  "abi": [
    {
      "constant": true,
      "inputs": [],
      "name": "totalPayments",
      "outputs": [
        {
          "name": "",
          "type": "uint256"
        }
      ],
      "payable": false,
      "stateMutability": "view",
      "type": "function"
    },
    {
      "constant": false,
      "inputs": [],
      "name": "renounceOwnership",
      "outputs": [],
      "payable": false,
      "stateMutability": "nonpayable",
      "type": "function"
    },
    {
      "constant": true,
      "inputs": [],
      "name": "owner",
      "outputs": [
        {
          "name": "",
          "type": "address"
        }
      ],
      "payable": false,
      "stateMutability": "view",
      "type": "function"
    },
    {
      "constant": true,
      "inputs": [
        {
          "name": "_dest",
          "type": "address"
        }
      ],
      "name": "payments",
      "outputs": [
        {
          "name": "",
          "type": "uint256"
        }
      ],
      "payable": false,
      "stateMutability": "view",
      "type": "function"
    },
    {
      "constant": false,
      "inputs": [
        {
          "name": "_newOwner",
          "type": "address"
        }
      ],
      "name": "transferOwnership",
      "outputs": [],
      "payable": false,
      "stateMutability": "nonpayable",
      "type": "function"
    },
    {
      "payable": true,
      "stateMutability": "payable",
      "type": "fallback"
    },
    {
      "anonymous": false,
      "inputs": [
        {
          "indexed": false,
          "name": "lackAmount",
          "type": "uint256"
        }
      ],
      "name": "BlanceNotEnough",
      "type": "event"
    },
    {
      "anonymous": false,
      "inputs": [
        {
          "indexed": true,
          "name": "previousOwner",
          "type": "address"
        }
      ],
      "name": "OwnershipRenounced",
      "type": "event"
    },
    {
      "anonymous": false,
      "inputs": [
        {
          "indexed": true,
          "name": "previousOwner",
          "type": "address"
        },
        {
          "indexed": true,
          "name": "newOwner",
          "type": "address"
        }
      ],
      "name": "OwnershipTransferred",
      "type": "event"
    },
    {
      "constant": false,
      "inputs": [
        {
          "name": "_dest",
          "type": "address"
        },
        {
          "name": "_amount",
          "type": "uint256"
        }
      ],
      "name": "asyncPay",
      "outputs": [],
      "payable": false,
      "stateMutability": "nonpayable",
      "type": "function"
    },
    {
      "constant": false,
      "inputs": [],
      "name": "withdrawPayments",
      "outputs": [],
      "payable": false,
      "stateMutability": "nonpayable",
      "type": "function"
    },
    {
      "constant": false,
      "inputs": [],
      "name": "destroy",
      "outputs": [],
      "payable": false,
      "stateMutability": "nonpayable",
      "type": "function"
    }
  ],
  "bytecode": "0x608060405260008054600160a060020a0319163317905561001e610060565b604051809103906000f08015801561003a573d6000803e3d6000fd5b5060018054600160a060020a031916600160a060020a0392909216919091179055610070565b6040516104468061066d83390190565b6105ee8061007f6000396000f30060806040526004361061008c5763ffffffff7c01000000000000000000000000000000000000000000000000000000006000350416625b448781146100a55780636103d70b146100cc578063715018a6146100e157806383197ef0146100f65780638da5cb5b1461010b578063c1e830ab1461013c578063e2982c2114610160578063f2fde38b14610181575b600054600160a060020a031633146100a357600080fd5b005b3480156100b157600080fd5b506100ba6101a2565b60408051918252519081900360200190f35b3480156100d857600080fd5b506100a36101a8565b3480156100ed57600080fd5b506100a36101e3565b34801561010257600080fd5b506100a361024f565b34801561011757600080fd5b50610120610281565b60408051600160a060020a039092168252519081900360200190f35b34801561014857600080fd5b506100a3600160a060020a0360043516602435610290565b34801561016c57600080fd5b506100ba600160a060020a036004351661035a565b34801561018d57600080fd5b506100a3600160a060020a03600435166103f7565b60025481565b60006101b33361035a565b9050600081116101c257600080fd5b6002546101d5908263ffffffff61041716565b6002556101e0610429565b50565b600054600160a060020a031633146101fa57600080fd5b60008054604051600160a060020a03909116917ff8df31144d9c2f0f6b59d69b8b98abd5459d07f2742c4df920b25aae33c6482091a26000805473ffffffffffffffffffffffffffffffffffffffff19169055565b600054600160a060020a0316331461026657600080fd5b6002541561027357600080fd5b600054600160a060020a0316ff5b600054600160a060020a031681565b600054600160a060020a031633146102a757600080fd5b600160a060020a03821615156102bc57600080fd5b600054600160a060020a03838116911614156102d757600080fd5b600081116102e457600080fd5b3031811115610335577f8776dc686363b5620b62ae14a82fe75fbb160852f9733a5f3a710449d05b410a61031f82303163ffffffff61041716565b60408051918252519081900360200190a1610356565b61033f82826104ab565b600254610352908263ffffffff61053216565b6002555b5050565b600154604080517fe3a9db1a000000000000000000000000000000000000000000000000000000008152600160a060020a0384811660048301529151600093929092169163e3a9db1a9160248082019260209290919082900301818787803b1580156103c557600080fd5b505af11580156103d9573d6000803e3d6000fd5b505050506040513d60208110156103ef57600080fd5b505192915050565b600054600160a060020a0316331461040e57600080fd5b6101e081610545565b60008282111561042357fe5b50900390565b600154604080517f51cff8d9000000000000000000000000000000000000000000000000000000008152336004820181905291519192600160a060020a0316916351cff8d99160248082019260009290919082900301818387803b15801561049057600080fd5b505af11580156104a4573d6000803e3d6000fd5b5050505050565b600154604080517ff340fa01000000000000000000000000000000000000000000000000000000008152600160a060020a0385811660048301529151919092169163f340fa0191849160248082019260009290919082900301818588803b15801561051557600080fd5b505af1158015610529573d6000803e3d6000fd5b50505050505050565b8181018281101561053f57fe5b92915050565b600160a060020a038116151561055a57600080fd5b60008054604051600160a060020a03808516939216917f8be0079c531659141344cd1fd0a4f28419497f9722a3daafe3b4186f6b6457e091a36000805473ffffffffffffffffffffffffffffffffffffffff1916600160a060020a03929092169190911790555600a165627a7a723058204ad2209bb9dfe8135414ad50b07b1d387616626f02809ab63032f92eb3659cb40029608060405260008054600160a060020a03191633179055610421806100256000396000f3006080604052600436106100775763ffffffff7c010000000000000000000000000000000000000000000000000000000060003504166351cff8d9811461007c578063715018a61461009f5780638da5cb5b146100b4578063e3a9db1a146100e5578063f2fde38b14610118578063f340fa0114610139575b600080fd5b34801561008857600080fd5b5061009d600160a060020a036004351661014d565b005b3480156100ab57600080fd5b5061009d610212565b3480156100c057600080fd5b506100c961027e565b60408051600160a060020a039092168252519081900360200190f35b3480156100f157600080fd5b50610106600160a060020a036004351661028d565b60408051918252519081900360200190f35b34801561012457600080fd5b5061009d600160a060020a03600435166102a8565b61009d600160a060020a03600435166102cb565b60008054600160a060020a0316331461016557600080fd5b50600160a060020a038116600090815260016020526040902054303181111561018a57fe5b600160a060020a0382166000818152600160205260408082208290555183156108fc0291849190818181858888f193505050501580156101ce573d6000803e3d6000fd5b50604080518281529051600160a060020a038416917f7084f5476618d8e60b11ef0d7d3f06914655adb8793e28ff7f018d4c76d505d5919081900360200190a25050565b600054600160a060020a0316331461022957600080fd5b60008054604051600160a060020a03909116917ff8df31144d9c2f0f6b59d69b8b98abd5459d07f2742c4df920b25aae33c6482091a26000805473ffffffffffffffffffffffffffffffffffffffff19169055565b600054600160a060020a031681565b600160a060020a031660009081526001602052604090205490565b600054600160a060020a031633146102bf57600080fd5b6102c881610365565b50565b60008054600160a060020a031633146102e357600080fd5b50600160a060020a038116600090815260016020526040902054349061030f908263ffffffff6103e216565b600160a060020a038316600081815260016020908152604091829020939093558051848152905191927f2da466a7b24304f47e87fa2e1e5a81b9831ce54fec19055ce277ca2f39ba42c492918290030190a25050565b600160a060020a038116151561037a57600080fd5b60008054604051600160a060020a03808516939216917f8be0079c531659141344cd1fd0a4f28419497f9722a3daafe3b4186f6b6457e091a36000805473ffffffffffffffffffffffffffffffffffffffff1916600160a060020a0392909216919091179055565b818101828110156103ef57fe5b929150505600a165627a7a7230582035ba2481788ab73fbf7ac35e62a1eff45b8efdd699a48f294805128c977151c50029",
  "source": "pragma solidity ^0.4.24;\n\nimport \"../openzeppelin-solidity/contracts/math/SafeMath.sol\";\nimport \"../openzeppelin-solidity/contracts/ownership/Ownable.sol\";\nimport \"../openzeppelin-solidity/contracts/payment/PullPayment.sol\";\n\ncontract PersonalPayment is Ownable, PullPayment {\n    // 使用库合约\n    using SafeMath for uint256;\n    // 其他状态变量\n    // 目前需要支付的款项总额\n    uint256 public totalPayments;\n    // 余额不足以发起支付的通知\n    event BlanceNotEnough(uint256 lackAmount);\n\n    function asyncPay(address _dest, uint256 _amount) public onlyOwner {\n        // TODO\n        require(_dest != address(0));\n        require(_dest != owner);\n        require(_amount > 0);\n\n        if (_amount > address(this).balance) {\n            emit BlanceNotEnough(_amount.sub(address(this).balance));\n        } else {\n            asyncTransfer(_dest, _amount);\n            totalPayments = totalPayments.add(_amount);\n        }\n    }\n\n    function withdrawPayments() public {\n        // TODO\n        uint256 withdrawAmount = payments(msg.sender);\n        require(withdrawAmount > 0);\n\n        totalPayments = totalPayments.sub(withdrawAmount);\n        super.withdrawPayments();\n    }\n\n    function destroy() public onlyOwner {\n        // TODO\n        require(totalPayments == 0);\n\n        selfdestruct(owner);\n    }\n\n    function() external payable onlyOwner {\n    }\n\n}",
  "sourcePath": "/Users/yangzhen/workspace/yikuailianxi/season1/homework-base/contracts/week2/PersonalPayment.sol",
  "compiler": {
    "name": "solc",
    "version": "0.4.24+commit.e67f0147.Emscripten.clang"
  },
  "schemaVersion": "2.0.1",
  "updatedAt": "2018-10-04T03:04:01.548Z"
}