{
  "contractName": "SimpleToken2",
  "abi": [
    {
      "constant": true,
      "inputs": [],
      "name": "ADDRESS_HOLDING_AMOUNT",
      "outputs": [
        {
          "name": "",
          "type": "uint256"
        }
      ],
      "payable": false,
      "stateMutability": "view",
      "type": "function"
    },
    {
      "constant": true,
      "inputs": [],
      "name": "name",
      "outputs": [
        {
          "name": "",
          "type": "string"
        }
      ],
      "payable": false,
      "stateMutability": "view",
      "type": "function"
    },
    {
      "constant": false,
      "inputs": [
        {
          "name": "_spender",
          "type": "address"
        },
        {
          "name": "_value",
          "type": "uint256"
        }
      ],
      "name": "approve",
      "outputs": [
        {
          "name": "",
          "type": "bool"
        }
      ],
      "payable": false,
      "stateMutability": "nonpayable",
      "type": "function"
    },
    {
      "constant": true,
      "inputs": [
        {
          "name": "_operator",
          "type": "address"
        },
        {
          "name": "_role",
          "type": "string"
        }
      ],
      "name": "checkRole",
      "outputs": [],
      "payable": false,
      "stateMutability": "view",
      "type": "function"
    },
    {
      "constant": true,
      "inputs": [],
      "name": "EXCHANGE_RATE_IN_PRIVATE_SALE",
      "outputs": [
        {
          "name": "",
          "type": "uint256"
        }
      ],
      "payable": false,
      "stateMutability": "view",
      "type": "function"
    },
    {
      "constant": true,
      "inputs": [],
      "name": "contractStartTime",
      "outputs": [
        {
          "name": "",
          "type": "uint256"
        }
      ],
      "payable": false,
      "stateMutability": "view",
      "type": "function"
    },
    {
      "constant": true,
      "inputs": [],
      "name": "totalSupply",
      "outputs": [
        {
          "name": "",
          "type": "uint256"
        }
      ],
      "payable": false,
      "stateMutability": "view",
      "type": "function"
    },
    {
      "constant": true,
      "inputs": [
        {
          "name": "_operator",
          "type": "address"
        },
        {
          "name": "_role",
          "type": "string"
        }
      ],
      "name": "hasRole",
      "outputs": [
        {
          "name": "",
          "type": "bool"
        }
      ],
      "payable": false,
      "stateMutability": "view",
      "type": "function"
    },
    {
      "constant": true,
      "inputs": [],
      "name": "INITIAL_SUPPLY",
      "outputs": [
        {
          "name": "",
          "type": "uint256"
        }
      ],
      "payable": false,
      "stateMutability": "view",
      "type": "function"
    },
    {
      "constant": true,
      "inputs": [],
      "name": "decimals",
      "outputs": [
        {
          "name": "",
          "type": "uint8"
        }
      ],
      "payable": false,
      "stateMutability": "view",
      "type": "function"
    },
    {
      "constant": true,
      "inputs": [],
      "name": "TIMESTAMP_INCREMENT_OF_WEEK",
      "outputs": [
        {
          "name": "",
          "type": "uint256"
        }
      ],
      "payable": false,
      "stateMutability": "view",
      "type": "function"
    },
    {
      "constant": true,
      "inputs": [],
      "name": "PRIVATE_SALE_AGENT_AMOUNT",
      "outputs": [
        {
          "name": "",
          "type": "uint256"
        }
      ],
      "payable": false,
      "stateMutability": "view",
      "type": "function"
    },
    {
      "constant": false,
      "inputs": [
        {
          "name": "_spender",
          "type": "address"
        },
        {
          "name": "_subtractedValue",
          "type": "uint256"
        }
      ],
      "name": "decreaseApproval",
      "outputs": [
        {
          "name": "",
          "type": "bool"
        }
      ],
      "payable": false,
      "stateMutability": "nonpayable",
      "type": "function"
    },
    {
      "constant": true,
      "inputs": [],
      "name": "PRIVATE_SALE_AMOUNT",
      "outputs": [
        {
          "name": "",
          "type": "uint256"
        }
      ],
      "payable": false,
      "stateMutability": "view",
      "type": "function"
    },
    {
      "constant": true,
      "inputs": [
        {
          "name": "_owner",
          "type": "address"
        }
      ],
      "name": "balanceOf",
      "outputs": [
        {
          "name": "",
          "type": "uint256"
        }
      ],
      "payable": false,
      "stateMutability": "view",
      "type": "function"
    },
    {
      "constant": false,
      "inputs": [],
      "name": "renounceOwnership",
      "outputs": [],
      "payable": false,
      "stateMutability": "nonpayable",
      "type": "function"
    },
    {
      "constant": true,
      "inputs": [],
      "name": "owner",
      "outputs": [
        {
          "name": "",
          "type": "address"
        }
      ],
      "payable": false,
      "stateMutability": "view",
      "type": "function"
    },
    {
      "constant": true,
      "inputs": [],
      "name": "symbol",
      "outputs": [
        {
          "name": "",
          "type": "string"
        }
      ],
      "payable": false,
      "stateMutability": "view",
      "type": "function"
    },
    {
      "constant": true,
      "inputs": [],
      "name": "totalPrivateSalesReleased",
      "outputs": [
        {
          "name": "",
          "type": "uint256"
        }
      ],
      "payable": false,
      "stateMutability": "view",
      "type": "function"
    },
    {
      "constant": true,
      "inputs": [],
      "name": "ROLE_PRIVATESALEWHITELIST",
      "outputs": [
        {
          "name": "",
          "type": "string"
        }
      ],
      "payable": false,
      "stateMutability": "view",
      "type": "function"
    },
    {
      "constant": false,
      "inputs": [
        {
          "name": "_spender",
          "type": "address"
        },
        {
          "name": "_addedValue",
          "type": "uint256"
        }
      ],
      "name": "increaseApproval",
      "outputs": [
        {
          "name": "",
          "type": "bool"
        }
      ],
      "payable": false,
      "stateMutability": "nonpayable",
      "type": "function"
    },
    {
      "constant": true,
      "inputs": [
        {
          "name": "_owner",
          "type": "address"
        },
        {
          "name": "_spender",
          "type": "address"
        }
      ],
      "name": "allowance",
      "outputs": [
        {
          "name": "",
          "type": "uint256"
        }
      ],
      "payable": false,
      "stateMutability": "view",
      "type": "function"
    },
    {
      "constant": false,
      "inputs": [
        {
          "name": "_newOwner",
          "type": "address"
        }
      ],
      "name": "transferOwnership",
      "outputs": [],
      "payable": false,
      "stateMutability": "nonpayable",
      "type": "function"
    },
    {
      "constant": true,
      "inputs": [],
      "name": "TIMESTAMP_INCREMENT_OF_2MONTH",
      "outputs": [
        {
          "name": "",
          "type": "uint256"
        }
      ],
      "payable": false,
      "stateMutability": "view",
      "type": "function"
    },
    {
      "inputs": [
        {
          "name": "_ownerWallet",
          "type": "address"
        }
      ],
      "payable": false,
      "stateMutability": "nonpayable",
      "type": "constructor"
    },
    {
      "payable": true,
      "stateMutability": "payable",
      "type": "fallback"
    },
    {
      "anonymous": false,
      "inputs": [
        {
          "indexed": true,
          "name": "owner",
          "type": "address"
        },
        {
          "indexed": true,
          "name": "spender",
          "type": "address"
        },
        {
          "indexed": false,
          "name": "value",
          "type": "uint256"
        }
      ],
      "name": "Approval",
      "type": "event"
    },
    {
      "anonymous": false,
      "inputs": [
        {
          "indexed": true,
          "name": "from",
          "type": "address"
        },
        {
          "indexed": true,
          "name": "to",
          "type": "address"
        },
        {
          "indexed": false,
          "name": "value",
          "type": "uint256"
        }
      ],
      "name": "Transfer",
      "type": "event"
    },
    {
      "anonymous": false,
      "inputs": [
        {
          "indexed": true,
          "name": "operator",
          "type": "address"
        },
        {
          "indexed": false,
          "name": "role",
          "type": "string"
        }
      ],
      "name": "RoleAdded",
      "type": "event"
    },
    {
      "anonymous": false,
      "inputs": [
        {
          "indexed": true,
          "name": "operator",
          "type": "address"
        },
        {
          "indexed": false,
          "name": "role",
          "type": "string"
        }
      ],
      "name": "RoleRemoved",
      "type": "event"
    },
    {
      "anonymous": false,
      "inputs": [
        {
          "indexed": true,
          "name": "previousOwner",
          "type": "address"
        }
      ],
      "name": "OwnershipRenounced",
      "type": "event"
    },
    {
      "anonymous": false,
      "inputs": [
        {
          "indexed": true,
          "name": "previousOwner",
          "type": "address"
        },
        {
          "indexed": true,
          "name": "newOwner",
          "type": "address"
        }
      ],
      "name": "OwnershipTransferred",
      "type": "event"
    },
    {
      "constant": false,
      "inputs": [
        {
          "name": "_ownerWallet",
          "type": "address"
        }
      ],
      "name": "changeOwnerWallet",
      "outputs": [],
      "payable": false,
      "stateMutability": "nonpayable",
      "type": "function"
    },
    {
      "constant": false,
      "inputs": [
        {
          "name": "_addr",
          "type": "address"
        }
      ],
      "name": "addAddressToPrivateWhiteList",
      "outputs": [],
      "payable": false,
      "stateMutability": "nonpayable",
      "type": "function"
    },
    {
      "constant": false,
      "inputs": [
        {
          "name": "_addr",
          "type": "address"
        }
      ],
      "name": "removeAddressFromPrivateWhiteList",
      "outputs": [],
      "payable": false,
      "stateMutability": "nonpayable",
      "type": "function"
    },
    {
      "constant": false,
      "inputs": [
        {
          "name": "_beneficiary",
          "type": "address"
        }
      ],
      "name": "privateSale",
      "outputs": [],
      "payable": true,
      "stateMutability": "payable",
      "type": "function"
    },
    {
      "constant": false,
      "inputs": [
        {
          "name": "_addr",
          "type": "address"
        },
        {
          "name": "_amount",
          "type": "uint256"
        }
      ],
      "name": "withdrawPrivateSaleCoins",
      "outputs": [],
      "payable": false,
      "stateMutability": "nonpayable",
      "type": "function"
    },
    {
      "constant": false,
      "inputs": [
        {
          "name": "_addr",
          "type": "address"
        },
        {
          "name": "_amount",
          "type": "uint256"
        }
      ],
      "name": "withdrawPrivateSaleCoinsByOwner",
      "outputs": [],
      "payable": false,
      "stateMutability": "nonpayable",
      "type": "function"
    },
    {
      "constant": false,
      "inputs": [],
      "name": "withdrawFunds",
      "outputs": [],
      "payable": false,
      "stateMutability": "nonpayable",
      "type": "function"
    },
    {
      "constant": true,
      "inputs": [
        {
          "name": "_addr",
          "type": "address"
        }
      ],
      "name": "privateSaleReleased",
      "outputs": [
        {
          "name": "",
          "type": "uint256"
        }
      ],
      "payable": false,
      "stateMutability": "view",
      "type": "function"
    },
    {
      "constant": false,
      "inputs": [
        {
          "name": "_to",
          "type": "address"
        },
        {
          "name": "_value",
          "type": "uint256"
        }
      ],
      "name": "transfer",
      "outputs": [
        {
          "name": "",
          "type": "bool"
        }
      ],
      "payable": false,
      "stateMutability": "nonpayable",
      "type": "function"
    },
    {
      "constant": false,
      "inputs": [
        {
          "name": "_from",
          "type": "address"
        },
        {
          "name": "_to",
          "type": "address"
        },
        {
          "name": "_value",
          "type": "uint256"
        }
      ],
      "name": "transferFrom",
      "outputs": [
        {
          "name": "",
          "type": "bool"
        }
      ],
      "payable": false,
      "stateMutability": "nonpayable",
      "type": "function"
    }
  ],
  "bytecode": "0x608060405234801561001057600080fd5b50604051602080611725833981016040908152905160008054600160a060020a03199081163317825560088054600160a060020a039094169390911692909217909155426005556b204fce5e3e2502611000000060038190553082526002602052919020556116a1806100846000396000f3006080604052600436106101ab5763ffffffff7c010000000000000000000000000000000000000000000000000000000060003504166301284ad481146101b657806301a68f0d146101d757806306fdde03146101fe5780630853488814610288578063095ea7b3146102a95780630988ca8c146102e15780630a50d95f146103485780630b56db31146103695780630c3d51571461037e57806318117abb1461039357806318160ddd146103b4578063217fe6c6146103c957806323b872dd1461043057806324600fc31461045a5780632ff2e9dc1461046f578063313ce5671461048457806333c4116c146104af5780634b027166146104c457806366188463146104d957806368942cd3146104fd57806370a0823114610512578063715018a6146105335780638912f7f9146105485780638da5cb5b1461056c57806395d89b41146101fe578063a9059cbb1461059d578063b86d1de0146105c1578063c3bc7fe3146105d6578063cd7a0c38146105eb578063d73dd6231461060f578063dd62ed3e14610633578063e7d53fcb1461065a578063f2fde38b1461066e578063f94969981461068f575b6101b4336106a4565b005b3480156101c257600080fd5b506101b4600160a060020a03600435166108d8565b3480156101e357600080fd5b506101ec61091f565b60408051918252519081900360200190f35b34801561020a57600080fd5b5061021361092e565b6040805160208082528351818301528351919283929083019185019080838360005b8381101561024d578181015183820152602001610235565b50505050905090810190601f16801561027a5780820380516001836020036101000a031916815260200191505b509250505060405180910390f35b34801561029457600080fd5b506101ec600160a060020a0360043516610965565b3480156102b557600080fd5b506102cd600160a060020a0360043516602435610980565b604080519115158252519081900360200190f35b3480156102ed57600080fd5b5060408051602060046024803582810135601f81018590048502860185019096528585526101b4958335600160a060020a03169536956044949193909101919081908401838280828437509497506109e79650505050505050565b34801561035457600080fd5b506101b4600160a060020a0360043516610a55565b34801561037557600080fd5b506101ec610a99565b34801561038a57600080fd5b506101ec610aa0565b34801561039f57600080fd5b506101b4600160a060020a0360043516610aa6565b3480156103c057600080fd5b506101ec610aec565b3480156103d557600080fd5b5060408051602060046024803582810135601f81018590048502860185019096528585526102cd958335600160a060020a0316953695604494919390910191908190840183828082843750949750610af29650505050505050565b34801561043c57600080fd5b506102cd600160a060020a0360043581169060243516604435610b65565b34801561046657600080fd5b506101b4610bcf565b34801561047b57600080fd5b506101ec610c33565b34801561049057600080fd5b50610499610c43565b6040805160ff9092168252519081900360200190f35b3480156104bb57600080fd5b506101ec610c48565b3480156104d057600080fd5b506101ec610c4f565b3480156104e557600080fd5b506102cd600160a060020a0360043516602435610c5f565b34801561050957600080fd5b506101ec610d51565b34801561051e57600080fd5b506101ec600160a060020a0360043516610d61565b34801561053f57600080fd5b506101b4610d7c565b34801561055457600080fd5b506101b4600160a060020a0360043516602435610de8565b34801561057857600080fd5b50610581610e14565b60408051600160a060020a039092168252519081900360200190f35b3480156105a957600080fd5b506102cd600160a060020a0360043516602435610e23565b3480156105cd57600080fd5b506101ec610e8e565b3480156105e257600080fd5b50610213610e94565b3480156105f757600080fd5b506101b4600160a060020a0360043516602435610eb9565b34801561061b57600080fd5b506102cd600160a060020a0360043516602435610fc9565b34801561063f57600080fd5b506101ec600160a060020a0360043581169060243516611062565b6101b4600160a060020a03600435166106a4565b34801561067a57600080fd5b506101b4600160a060020a036004351661108d565b34801561069b57600080fd5b506101ec6110ad565b60006040805190810160405280601481526020016000805160206116568339815191528152506106d433826109e7565b6005546106ea9062093a8063ffffffff6110b416565b421161072c576107256007610719600a61070d34620186a063ffffffff6110c116565b9063ffffffff6110c116565b9063ffffffff6110ea16565b91506107c5565b61075261074362093a80600263ffffffff6110c116565b6005549063ffffffff6110b416565b4211610775576107256008610719600a61070d34620186a063ffffffff6110c116565b61078c61074362093a80600363ffffffff6110c116565b42116107af576107256009610719600a61070d34620186a063ffffffff6110c116565b6107c234620186a063ffffffff6110c116565b91505b6006546107d8908363ffffffff6110b416565b60068190556b1363156bbee3016d7000000010156107f557600080fd5b33600090815260076020526040902054610815908363ffffffff6110b416565b3360009081526007602052604090208190556b02e87669c308736a04000000101561083f57600080fd5b604080517fa9059cbb000000000000000000000000000000000000000000000000000000008152600160a060020a0385166004820152602481018490529051309163a9059cbb9160448083019260209291908290030181600087803b1580156108a757600080fd5b505af11580156108bb573d6000803e3d6000fd5b505050506040513d60208110156108d157600080fd5b5050505050565b600054600160a060020a031633146108ef57600080fd5b61091c816040805190810160405280601481526020016000805160206116568339815191528152506110ff565b50565b6af8277896582678ac00000081565b60408051808201909152600381527f5350540000000000000000000000000000000000000000000000000000000000602082015281565b600160a060020a031660009081526007602052604090205490565b336000818152600460209081526040808320600160a060020a038716808552908352818420869055815186815291519394909390927f8c5be1e5ebec7d5bd14f71427d1e84f3dd0314c0f7b2291e5b200ac8c7c3b925928290030190a35060015b92915050565b610a51826001836040518082805190602001908083835b60208310610a1d5780518252601f1990920191602091820191016109fe565b51815160209384036101000a6000190180199092169116179052920194855250604051938490030190922092915050611210565b5050565b600054600160a060020a03163314610a6c57600080fd5b61091c81604080519081016040528060148152602001600080516020611656833981519152815250611225565b620186a081565b60055481565b600054600160a060020a03163314610abd57600080fd5b6008805473ffffffffffffffffffffffffffffffffffffffff1916600160a060020a0392909216919091179055565b60035490565b6000610b5e836001846040518082805190602001908083835b60208310610b2a5780518252601f199092019160209182019101610b0b565b51815160209384036101000a60001901801990921691161790529201948552506040519384900301909220929150506112f7565b9392505050565b6000610b6f611316565b1515610b7a57600080fd5b600160a060020a0383166000908152600260205260409020546af8277896582678ac00000090610bb190849063ffffffff6110b416565b1115610bbc57600080fd5b610bc7848484611323565b509392505050565b600054600160a060020a03163314610be657600080fd5b610bee611316565b1515610bf957600080fd5b600854604051600160a060020a0390911690303180156108fc02916000818181858888f1935050505015801561091c573d6000803e3d6000fd5b6b204fce5e3e2502611000000081565b601281565b62093a8081565b6b02e87669c308736a0400000081565b336000908152600460209081526040808320600160a060020a038616845290915281205480831115610cb457336000908152600460209081526040808320600160a060020a0388168452909152812055610ce9565b610cc4818463ffffffff61149c16565b336000908152600460209081526040808320600160a060020a03891684529091529020555b336000818152600460209081526040808320600160a060020a0389168085529083529281902054815190815290519293927f8c5be1e5ebec7d5bd14f71427d1e84f3dd0314c0f7b2291e5b200ac8c7c3b925929181900390910190a3600191505b5092915050565b6b1363156bbee3016d7000000081565b600160a060020a031660009081526002602052604090205490565b600054600160a060020a03163314610d9357600080fd5b60008054604051600160a060020a03909116917ff8df31144d9c2f0f6b59d69b8b98abd5459d07f2742c4df920b25aae33c6482091a26000805473ffffffffffffffffffffffffffffffffffffffff19169055565b604080518082019091526014815260008051602061165683398151915260208201526107c533826109e7565b600054600160a060020a031681565b6000610e2d611316565b80610e3757503330145b1515610e4257600080fd5b600160a060020a0383166000908152600260205260409020546af8277896582678ac00000090610e7990849063ffffffff6110b416565b1115610e8457600080fd5b610d4a83836114ae565b60065481565b6040805180820190915260148152600080516020611656833981519152602082015281565b600054600160a060020a03163314610ed057600080fd5b6006546b1363156bbee3016d7000000090610ef1908363ffffffff6110b416565b111580610f015750610f01611316565b1515610f0c57600080fd5b610f14611316565b1515610f3157600654610f2d908263ffffffff6110b416565b6006555b604080517fa9059cbb000000000000000000000000000000000000000000000000000000008152600160a060020a0384166004820152602481018390529051309163a9059cbb9160448083019260209291908290030181600087803b158015610f9957600080fd5b505af1158015610fad573d6000803e3d6000fd5b505050506040513d6020811015610fc357600080fd5b50505050565b336000908152600460209081526040808320600160a060020a0386168452909152812054610ffd908363ffffffff6110b416565b336000818152600460209081526040808320600160a060020a0389168085529083529281902085905580519485525191937f8c5be1e5ebec7d5bd14f71427d1e84f3dd0314c0f7b2291e5b200ac8c7c3b925929081900390910190a350600192915050565b600160a060020a03918216600090815260046020908152604080832093909416825291909152205490565b600054600160a060020a031633146110a457600080fd5b61091c81611591565b624f1a0081565b818101828110156109e157fe5b60008215156110d2575060006109e1565b508181028183828115156110e257fe5b04146109e157fe5b600081838115156110f757fe5b049392505050565b611169826001836040518082805190602001908083835b602083106111355780518252601f199092019160209182019101611116565b51815160209384036101000a600019018019909216911617905292019485525060405193849003019092209291505061160e565b81600160a060020a03167fd211483f91fc6eff862467f8de606587a30c8fc9981056f051b897a418df803a826040518080602001828103825283818151815260200191508051906020019080838360005b838110156111d25781810151838201526020016111ba565b50505050905090810190601f1680156111ff5780820380516001836020036101000a031916815260200191505b509250505060405180910390a25050565b61121a82826112f7565b1515610a5157600080fd5b61128f826001836040518082805190602001908083835b6020831061125b5780518252601f19909201916020918201910161123c565b51815160209384036101000a6000190180199092169116179052920194855250604051938490030190922092915050611630565b81600160a060020a03167fbfec83d64eaa953f2708271a023ab9ee82057f8f3578d548c1a4ba0b5b70048982604051808060200182810382528381815181526020019150805190602001908083836000838110156111d25781810151838201526020016111ba565b600160a060020a03166000908152602091909152604090205460ff1690565b600554624f1a0001421190565b6000600160a060020a038316151561133a57600080fd5b600160a060020a03841660009081526002602052604090205482111561135f57600080fd5b600160a060020a038416600090815260046020908152604080832033845290915290205482111561138f57600080fd5b600160a060020a0384166000908152600260205260409020546113b8908363ffffffff61149c16565b600160a060020a0380861660009081526002602052604080822093909355908516815220546113ed908363ffffffff6110b416565b600160a060020a038085166000908152600260209081526040808320949094559187168152600482528281203382529091522054611431908363ffffffff61149c16565b600160a060020a03808616600081815260046020908152604080832033845282529182902094909455805186815290519287169391927fddf252ad1be2c89b69c2b068fc378daa952ba7f163c4a11628f55a4df523b3ef929181900390910190a35060019392505050565b6000828211156114a857fe5b50900390565b6000600160a060020a03831615156114c557600080fd5b336000908152600260205260409020548211156114e157600080fd5b33600090815260026020526040902054611501908363ffffffff61149c16565b3360009081526002602052604080822092909255600160a060020a03851681522054611533908363ffffffff6110b416565b600160a060020a0384166000818152600260209081526040918290209390935580518581529051919233927fddf252ad1be2c89b69c2b068fc378daa952ba7f163c4a11628f55a4df523b3ef9281900390910190a350600192915050565b600160a060020a03811615156115a657600080fd5b60008054604051600160a060020a03808516939216917f8be0079c531659141344cd1fd0a4f28419497f9722a3daafe3b4186f6b6457e091a36000805473ffffffffffffffffffffffffffffffffffffffff1916600160a060020a0392909216919091179055565b600160a060020a0316600090815260209190915260409020805460ff19169055565b600160a060020a0316600090815260209190915260409020805460ff1916600117905556007072697661746553616c6557686974656c697374000000000000000000000000a165627a7a723058208dc9d4b205b611a0182e3e2e14031c92ac8e3d4d73f0c566d6e333d2499726e50029",
  "source": "pragma solidity ^0.4.24;\n\nimport \"../openzeppelin-solidity/contracts/ownership/Ownable.sol\";\nimport \"../openzeppelin-solidity/contracts/ownership/rbac/RBAC.sol\";\nimport \"../openzeppelin-solidity/contracts/token/ERC20/StandardToken.sol\";\n\n/**\n* @dev 初始token改由合约保管\n* @dev 管理员的私募转币/私募后提币通过 withdrawPrivateSaleCoinsByOwner 实现\n*/\ncontract SimpleToken2 is Ownable, RBAC, StandardToken {\n    using SafeMath for uint256;\n\n    string public constant name    = \"SPT\";\n    string public constant symbol  = \"SPT\";\n    uint8 public constant decimals = 18;\n\n    // 发行量总量 100 亿\n    uint256 public constant INITIAL_SUPPLY              = 10000000000 * (10 ** uint256(decimals));\n    // 私募额度 60 亿\n    uint256 public constant PRIVATE_SALE_AMOUNT         = 6000000000 * (10 ** uint256(decimals));\n    // 私募代理人额度上限 9 亿\n    uint256 public constant PRIVATE_SALE_AGENT_AMOUNT   = 900000000 * (10 ** uint256(decimals));\n    // 单独地址持有上限 3 亿\n    uint256 public constant ADDRESS_HOLDING_AMOUNT      = 300000000 * (10 ** uint256(decimals));\n\n    // 私募中的 Ether 兑换比率，1 Ether = 100000 SPT\n    uint256 public constant EXCHANGE_RATE_IN_PRIVATE_SALE = 100000;\n\n    // 一周时间的时间戳增量常数\n    uint256 public constant TIMESTAMP_INCREMENT_OF_WEEK     = 604800;\n    // 两个月时间的时间戳增量常数（60天）\n    uint256 public constant TIMESTAMP_INCREMENT_OF_2MONTH   = 5184000;\n\n    // 私募代理人的 Role 常量\n    string public constant ROLE_PRIVATESALEWHITELIST = \"privateSaleWhitelist\";\n\n    // 合约创建的时间戳\n    uint256 public contractStartTime;\n\n    // 所有私募代理人的已分发数额总数\n    uint256 public totalPrivateSalesReleased;\n\n    // 私募代理人实际转出（售出）的 token 数量映射\n    mapping (address => uint256) private privateSalesReleased;\n\n    // Owner 的钱包地址\n    address ownerWallet;\n\n    /**\n     * @dev 构造函数时需传入 Owner 指定的钱包地址\n     * @param _ownerWallet Owner 的钱包地址\n     */\n    constructor(address _ownerWallet) public {\n        ownerWallet = _ownerWallet;\n        contractStartTime = block.timestamp;\n        totalSupply_ = INITIAL_SUPPLY;\n        balances[address(this)] = totalSupply_;\n    }\n\n    /**\n     * @dev 变更 Owner 的钱包地址\n     * @param _ownerWallet Owner 的钱包地址\n     */\n    function changeOwnerWallet(address _ownerWallet) public onlyOwner {\n        ownerWallet = _ownerWallet;\n    }\n\n    /**\n     * @dev 添加私募代理人地址到白名单并设置其限额\n     * @param _addr 私募代理人地址\n     */\n    function addAddressToPrivateWhiteList(address _addr)\n        public onlyOwner\n    {\n        addRole(_addr, ROLE_PRIVATESALEWHITELIST);\n    }\n\n    /**\n     * @dev 将私募代理人地址从白名单移除\n     * @param _addr 私募代理人地址\n     */\n    function removeAddressFromPrivateWhiteList(address _addr)\n        public onlyOwner\n    {\n        removeRole(_addr, ROLE_PRIVATESALEWHITELIST);\n    }\n\n    /**\n     * @dev 允许接受转账的 fallback 函数\n     */\n    function() external payable {\n        privateSale(msg.sender);\n    }\n\n    /**\n     * @dev 私募处理\n     * @param _beneficiary 收取 token 地址\n     */\n    function privateSale(address _beneficiary)\n        public payable onlyRole(ROLE_PRIVATESALEWHITELIST)\n    {\n        // 计算折扣后实际 token 数量\n        uint256 purchaseValue;\n        if (block.timestamp <= contractStartTime.add(TIMESTAMP_INCREMENT_OF_WEEK)) {\n            // 私募期的第一周 7 折优惠\n            purchaseValue = msg.value.mul(EXCHANGE_RATE_IN_PRIVATE_SALE).mul(10).div(7);\n        } else if (block.timestamp <= contractStartTime.add(TIMESTAMP_INCREMENT_OF_WEEK.mul(2))) {\n            // 私募期的第二周 8 折优惠\n            purchaseValue = msg.value.mul(EXCHANGE_RATE_IN_PRIVATE_SALE).mul(10).div(8);\n        } else if (block.timestamp <= contractStartTime.add(TIMESTAMP_INCREMENT_OF_WEEK.mul(3))) {\n            // 私募期的第三周 9 折优惠\n            purchaseValue = msg.value.mul(EXCHANGE_RATE_IN_PRIVATE_SALE).mul(10).div(9);\n        } else {\n            purchaseValue = msg.value.mul(EXCHANGE_RATE_IN_PRIVATE_SALE);\n        }\n        // 检查私募总额度\n        totalPrivateSalesReleased = totalPrivateSalesReleased.add(purchaseValue);\n        require(totalPrivateSalesReleased <= PRIVATE_SALE_AMOUNT);\n        // 检查私募代理人个人额度\n        privateSalesReleased[msg.sender] = privateSalesReleased[msg.sender].add(purchaseValue);\n        require(privateSalesReleased[msg.sender] <= PRIVATE_SALE_AGENT_AMOUNT);\n        // 转账\n        this.transfer(_beneficiary, purchaseValue);\n    }\n\n    /**\n     * @dev 人工私募处理，即直接用私募代理人的额度进行转账\n     * @param _addr 收取 token 地址\n     * @param _amount 转账 token 数量\n     */\n    function withdrawPrivateSaleCoins(address _addr, uint256 _amount)\n        public onlyRole(ROLE_PRIVATESALEWHITELIST)\n    {\n        // 检查私募总额度\n        totalPrivateSalesReleased = totalPrivateSalesReleased.add(_amount);\n        require(totalPrivateSalesReleased <= PRIVATE_SALE_AMOUNT);\n        // 检查私募代理人个人额度\n        privateSalesReleased[msg.sender] = privateSalesReleased[msg.sender].add(_amount);\n        require(privateSalesReleased[msg.sender] <= PRIVATE_SALE_AGENT_AMOUNT);\n        // 转账\n        this.transfer(_addr, _amount);\n    }\n\n    /**\n     * @dev 管理员人工私募（私募期中）/管理员提币（私募期后）\n     * @param _addr 收取 token 地址\n     * @param _amount 转账 token 数量\n     */\n    function withdrawPrivateSaleCoinsByOwner(address _addr, uint256 _amount)\n        public onlyOwner\n    {\n        require(totalPrivateSalesReleased.add(_amount) <= PRIVATE_SALE_AMOUNT || isPrivateSaleFinished());\n        if (!isPrivateSaleFinished()) {\n            totalPrivateSalesReleased = totalPrivateSalesReleased.add(_amount);\n        }\n        this.transfer(_addr, _amount);\n    }\n\n    /**\n     * @dev 合约余额提取\n     */\n    function withdrawFunds() public onlyOwner {\n        require(isPrivateSaleFinished());\n        ownerWallet.transfer(address(this).balance);\n    }\n\n    /**\n     * @dev 获得私募代理人地址已转出（售出）的 token 数量\n     * @param _addr 私募代理人地址\n     * @return 私募代理人地址的已转出的 token 数量\n     */\n    function privateSaleReleased(address _addr) public view returns(uint256) {\n        return privateSalesReleased[_addr];\n    }\n\n    /**\n     * @dev 新transfer保证地址的token余额不大于总量的3%\n     */\n    function transfer(address _to, uint256 _value) public returns (bool) {\n        require(isPrivateSaleFinished() || msg.sender == address(this));\n        require(_value.add(balances[_to]) <= ADDRESS_HOLDING_AMOUNT);\n        super.transfer(_to, _value);\n    }\n\n    /**\n     * @dev 新transferFrom保证地址的token余额不大于总量的3%\n     */\n    function transferFrom(\n        address _from,\n        address _to,\n        uint256 _value\n    )\n        public\n        returns (bool)\n    {\n        require(isPrivateSaleFinished());\n        require(_value.add(balances[_to]) <= ADDRESS_HOLDING_AMOUNT);\n        super.transferFrom(_from, _to, _value);\n    }\n\n    /**\n     * @dev 检查私募是否已经结束\n     */\n    function isPrivateSaleFinished() internal view returns (bool) {\n        return block.timestamp > contractStartTime + TIMESTAMP_INCREMENT_OF_2MONTH;\n    }\n\n}\n",
  "sourcePath": "/Users/yangzhen/workspace/yikuailianxi/season1/homework-base/contracts/week2/SimpleToken2.sol",
  "compiler": {
    "name": "solc",
    "version": "0.4.24+commit.e67f0147.Emscripten.clang"
  },
  "schemaVersion": "2.0.1",
  "updatedAt": "2018-10-04T03:04:01.561Z"
}