{
  "contractName": "SimpleToken",
  "abi": [
    {
      "constant": true,
      "inputs": [],
      "name": "ADDRESS_HOLDING_AMOUNT",
      "outputs": [
        {
          "name": "",
          "type": "uint256"
        }
      ],
      "payable": false,
      "stateMutability": "view",
      "type": "function"
    },
    {
      "constant": true,
      "inputs": [],
      "name": "name",
      "outputs": [
        {
          "name": "",
          "type": "string"
        }
      ],
      "payable": false,
      "stateMutability": "view",
      "type": "function"
    },
    {
      "constant": false,
      "inputs": [
        {
          "name": "_spender",
          "type": "address"
        },
        {
          "name": "_value",
          "type": "uint256"
        }
      ],
      "name": "approve",
      "outputs": [
        {
          "name": "",
          "type": "bool"
        }
      ],
      "payable": false,
      "stateMutability": "nonpayable",
      "type": "function"
    },
    {
      "constant": true,
      "inputs": [
        {
          "name": "_operator",
          "type": "address"
        },
        {
          "name": "_role",
          "type": "string"
        }
      ],
      "name": "checkRole",
      "outputs": [],
      "payable": false,
      "stateMutability": "view",
      "type": "function"
    },
    {
      "constant": true,
      "inputs": [],
      "name": "EXCHANGE_RATE_IN_PRIVATE_SALE",
      "outputs": [
        {
          "name": "",
          "type": "uint256"
        }
      ],
      "payable": false,
      "stateMutability": "view",
      "type": "function"
    },
    {
      "constant": true,
      "inputs": [],
      "name": "contractStartTime",
      "outputs": [
        {
          "name": "",
          "type": "uint256"
        }
      ],
      "payable": false,
      "stateMutability": "view",
      "type": "function"
    },
    {
      "constant": true,
      "inputs": [],
      "name": "totalSupply",
      "outputs": [
        {
          "name": "",
          "type": "uint256"
        }
      ],
      "payable": false,
      "stateMutability": "view",
      "type": "function"
    },
    {
      "constant": true,
      "inputs": [
        {
          "name": "_operator",
          "type": "address"
        },
        {
          "name": "_role",
          "type": "string"
        }
      ],
      "name": "hasRole",
      "outputs": [
        {
          "name": "",
          "type": "bool"
        }
      ],
      "payable": false,
      "stateMutability": "view",
      "type": "function"
    },
    {
      "constant": true,
      "inputs": [],
      "name": "INITIAL_SUPPLY",
      "outputs": [
        {
          "name": "",
          "type": "uint256"
        }
      ],
      "payable": false,
      "stateMutability": "view",
      "type": "function"
    },
    {
      "constant": true,
      "inputs": [],
      "name": "decimals",
      "outputs": [
        {
          "name": "",
          "type": "uint8"
        }
      ],
      "payable": false,
      "stateMutability": "view",
      "type": "function"
    },
    {
      "constant": true,
      "inputs": [],
      "name": "TIMESTAMP_INCREMENT_OF_WEEK",
      "outputs": [
        {
          "name": "",
          "type": "uint256"
        }
      ],
      "payable": false,
      "stateMutability": "view",
      "type": "function"
    },
    {
      "constant": true,
      "inputs": [],
      "name": "PRIVATE_SALE_AGENT_AMOUNT",
      "outputs": [
        {
          "name": "",
          "type": "uint256"
        }
      ],
      "payable": false,
      "stateMutability": "view",
      "type": "function"
    },
    {
      "constant": false,
      "inputs": [
        {
          "name": "_spender",
          "type": "address"
        },
        {
          "name": "_subtractedValue",
          "type": "uint256"
        }
      ],
      "name": "decreaseApproval",
      "outputs": [
        {
          "name": "",
          "type": "bool"
        }
      ],
      "payable": false,
      "stateMutability": "nonpayable",
      "type": "function"
    },
    {
      "constant": true,
      "inputs": [],
      "name": "PRIVATE_SALE_AMOUNT",
      "outputs": [
        {
          "name": "",
          "type": "uint256"
        }
      ],
      "payable": false,
      "stateMutability": "view",
      "type": "function"
    },
    {
      "constant": true,
      "inputs": [
        {
          "name": "_owner",
          "type": "address"
        }
      ],
      "name": "balanceOf",
      "outputs": [
        {
          "name": "",
          "type": "uint256"
        }
      ],
      "payable": false,
      "stateMutability": "view",
      "type": "function"
    },
    {
      "constant": false,
      "inputs": [],
      "name": "renounceOwnership",
      "outputs": [],
      "payable": false,
      "stateMutability": "nonpayable",
      "type": "function"
    },
    {
      "constant": true,
      "inputs": [],
      "name": "owner",
      "outputs": [
        {
          "name": "",
          "type": "address"
        }
      ],
      "payable": false,
      "stateMutability": "view",
      "type": "function"
    },
    {
      "constant": true,
      "inputs": [],
      "name": "symbol",
      "outputs": [
        {
          "name": "",
          "type": "string"
        }
      ],
      "payable": false,
      "stateMutability": "view",
      "type": "function"
    },
    {
      "constant": true,
      "inputs": [],
      "name": "totalPrivateSalesReleased",
      "outputs": [
        {
          "name": "",
          "type": "uint256"
        }
      ],
      "payable": false,
      "stateMutability": "view",
      "type": "function"
    },
    {
      "constant": true,
      "inputs": [],
      "name": "ROLE_PRIVATESALEWHITELIST",
      "outputs": [
        {
          "name": "",
          "type": "string"
        }
      ],
      "payable": false,
      "stateMutability": "view",
      "type": "function"
    },
    {
      "constant": false,
      "inputs": [
        {
          "name": "_spender",
          "type": "address"
        },
        {
          "name": "_addedValue",
          "type": "uint256"
        }
      ],
      "name": "increaseApproval",
      "outputs": [
        {
          "name": "",
          "type": "bool"
        }
      ],
      "payable": false,
      "stateMutability": "nonpayable",
      "type": "function"
    },
    {
      "constant": true,
      "inputs": [
        {
          "name": "_owner",
          "type": "address"
        },
        {
          "name": "_spender",
          "type": "address"
        }
      ],
      "name": "allowance",
      "outputs": [
        {
          "name": "",
          "type": "uint256"
        }
      ],
      "payable": false,
      "stateMutability": "view",
      "type": "function"
    },
    {
      "constant": false,
      "inputs": [
        {
          "name": "_newOwner",
          "type": "address"
        }
      ],
      "name": "transferOwnership",
      "outputs": [],
      "payable": false,
      "stateMutability": "nonpayable",
      "type": "function"
    },
    {
      "constant": true,
      "inputs": [],
      "name": "TIMESTAMP_INCREMENT_OF_2MONTH",
      "outputs": [
        {
          "name": "",
          "type": "uint256"
        }
      ],
      "payable": false,
      "stateMutability": "view",
      "type": "function"
    },
    {
      "inputs": [
        {
          "name": "_ownerWallet",
          "type": "address"
        }
      ],
      "payable": false,
      "stateMutability": "nonpayable",
      "type": "constructor"
    },
    {
      "payable": true,
      "stateMutability": "payable",
      "type": "fallback"
    },
    {
      "anonymous": false,
      "inputs": [
        {
          "indexed": true,
          "name": "owner",
          "type": "address"
        },
        {
          "indexed": true,
          "name": "spender",
          "type": "address"
        },
        {
          "indexed": false,
          "name": "value",
          "type": "uint256"
        }
      ],
      "name": "Approval",
      "type": "event"
    },
    {
      "anonymous": false,
      "inputs": [
        {
          "indexed": true,
          "name": "from",
          "type": "address"
        },
        {
          "indexed": true,
          "name": "to",
          "type": "address"
        },
        {
          "indexed": false,
          "name": "value",
          "type": "uint256"
        }
      ],
      "name": "Transfer",
      "type": "event"
    },
    {
      "anonymous": false,
      "inputs": [
        {
          "indexed": true,
          "name": "operator",
          "type": "address"
        },
        {
          "indexed": false,
          "name": "role",
          "type": "string"
        }
      ],
      "name": "RoleAdded",
      "type": "event"
    },
    {
      "anonymous": false,
      "inputs": [
        {
          "indexed": true,
          "name": "operator",
          "type": "address"
        },
        {
          "indexed": false,
          "name": "role",
          "type": "string"
        }
      ],
      "name": "RoleRemoved",
      "type": "event"
    },
    {
      "anonymous": false,
      "inputs": [
        {
          "indexed": true,
          "name": "previousOwner",
          "type": "address"
        }
      ],
      "name": "OwnershipRenounced",
      "type": "event"
    },
    {
      "anonymous": false,
      "inputs": [
        {
          "indexed": true,
          "name": "previousOwner",
          "type": "address"
        },
        {
          "indexed": true,
          "name": "newOwner",
          "type": "address"
        }
      ],
      "name": "OwnershipTransferred",
      "type": "event"
    },
    {
      "constant": false,
      "inputs": [
        {
          "name": "_ownerWallet",
          "type": "address"
        }
      ],
      "name": "changeOwnerWallet",
      "outputs": [],
      "payable": false,
      "stateMutability": "nonpayable",
      "type": "function"
    },
    {
      "constant": false,
      "inputs": [
        {
          "name": "_addr",
          "type": "address"
        },
        {
          "name": "_amount",
          "type": "uint256"
        }
      ],
      "name": "addAddressToPrivateWhiteList",
      "outputs": [],
      "payable": false,
      "stateMutability": "nonpayable",
      "type": "function"
    },
    {
      "constant": false,
      "inputs": [
        {
          "name": "_addr",
          "type": "address"
        }
      ],
      "name": "removeAddressFromPrivateWhiteList",
      "outputs": [],
      "payable": false,
      "stateMutability": "nonpayable",
      "type": "function"
    },
    {
      "constant": false,
      "inputs": [
        {
          "name": "_beneficiary",
          "type": "address"
        }
      ],
      "name": "privateSale",
      "outputs": [],
      "payable": true,
      "stateMutability": "payable",
      "type": "function"
    },
    {
      "constant": false,
      "inputs": [
        {
          "name": "_addr",
          "type": "address"
        },
        {
          "name": "_amount",
          "type": "uint256"
        }
      ],
      "name": "withdrawPrivateSaleCoins",
      "outputs": [],
      "payable": false,
      "stateMutability": "nonpayable",
      "type": "function"
    },
    {
      "constant": false,
      "inputs": [],
      "name": "withdrawFunds",
      "outputs": [],
      "payable": false,
      "stateMutability": "nonpayable",
      "type": "function"
    },
    {
      "constant": true,
      "inputs": [
        {
          "name": "_addr",
          "type": "address"
        }
      ],
      "name": "privateSaleReleased",
      "outputs": [
        {
          "name": "",
          "type": "uint256"
        }
      ],
      "payable": false,
      "stateMutability": "view",
      "type": "function"
    },
    {
      "constant": false,
      "inputs": [
        {
          "name": "_to",
          "type": "address"
        },
        {
          "name": "_value",
          "type": "uint256"
        }
      ],
      "name": "transfer",
      "outputs": [
        {
          "name": "result",
          "type": "bool"
        }
      ],
      "payable": false,
      "stateMutability": "nonpayable",
      "type": "function"
    },
    {
      "constant": false,
      "inputs": [
        {
          "name": "_from",
          "type": "address"
        },
        {
          "name": "_to",
          "type": "address"
        },
        {
          "name": "_value",
          "type": "uint256"
        }
      ],
      "name": "transferFrom",
      "outputs": [
        {
          "name": "",
          "type": "bool"
        }
      ],
      "payable": false,
      "stateMutability": "nonpayable",
      "type": "function"
    }
  ],
  "bytecode": "0x608060405234801561001057600080fd5b5060405160208061177283398101604090815290516000805433600160a060020a03199182168117835560088054909216600160a060020a03909416939093179055426005556b204fce5e3e2502611000000060038190559181526002602052918220556116ee90819061008490396000f3006080604052600436106101a05763ffffffff7c010000000000000000000000000000000000000000000000000000000060003504166301284ad481146101ab57806301a68f0d146101cc57806306fdde03146101f3578063085348881461027d578063095ea7b31461029e5780630988ca8c146102d65780630b56db311461033d5780630c3d51571461035257806318117abb1461036757806318160ddd14610388578063217fe6c61461039d57806323b872dd1461040457806324600fc31461042e5780632ff2e9dc14610443578063313ce5671461045857806333c4116c146104835780634a4ef738146104985780634b027166146104bc57806366188463146104d157806368942cd3146104f557806370a082311461050a578063715018a61461052b5780638912f7f9146105405780638da5cb5b1461056457806395d89b41146101f3578063a9059cbb14610595578063b86d1de0146105b9578063c3bc7fe3146105ce578063d73dd623146105e3578063dd62ed3e14610607578063e7d53fcb1461062e578063f2fde38b14610642578063f949699814610663575b6101a933610678565b005b3480156101b757600080fd5b506101a9600160a060020a03600435166107ea565b3480156101d857600080fd5b506101e161083d565b60408051918252519081900360200190f35b3480156101ff57600080fd5b5061020861084c565b6040805160208082528351818301528351919283929083019185019080838360005b8381101561024257818101518382015260200161022a565b50505050905090810190601f16801561026f5780820380516001836020036101000a031916815260200191505b509250505060405180910390f35b34801561028957600080fd5b506101e1600160a060020a0360043516610883565b3480156102aa57600080fd5b506102c2600160a060020a036004351660243561089e565b604080519115158252519081900360200190f35b3480156102e257600080fd5b5060408051602060046024803582810135601f81018590048502860185019096528585526101a9958335600160a060020a03169536956044949193909101919081908401838280828437509497506109059650505050505050565b34801561034957600080fd5b506101e161096f565b34801561035e57600080fd5b506101e1610976565b34801561037357600080fd5b506101a9600160a060020a036004351661097c565b34801561039457600080fd5b506101e16109c2565b3480156103a957600080fd5b5060408051602060046024803582810135601f81018590048502860185019096528585526102c2958335600160a060020a03169536956044949193909101919081908401838280828437509497506109c89650505050505050565b34801561041057600080fd5b506102c2600160a060020a0360043581169060243516604435610a3b565b34801561043a57600080fd5b506101a9610b44565b34801561044f57600080fd5b506101e1610bb9565b34801561046457600080fd5b5061046d610bc9565b6040805160ff9092168252519081900360200190f35b34801561048f57600080fd5b506101e1610bce565b3480156104a457600080fd5b506101a9600160a060020a0360043516602435610bd5565b3480156104c857600080fd5b506101e1610c4a565b3480156104dd57600080fd5b506102c2600160a060020a0360043516602435610c5a565b34801561050157600080fd5b506101e1610d4a565b34801561051657600080fd5b506101e1600160a060020a0360043516610d5a565b34801561053757600080fd5b506101a9610d75565b34801561054c57600080fd5b506101a9600160a060020a0360043516602435610de1565b34801561057057600080fd5b50610579610e2f565b60408051600160a060020a039092168252519081900360200190f35b3480156105a157600080fd5b506102c2600160a060020a0360043516602435610e3e565b3480156105c557600080fd5b506101e1610f41565b3480156105da57600080fd5b50610208610f47565b3480156105ef57600080fd5b506102c2600160a060020a0360043516602435610f6c565b34801561061357600080fd5b506101e1600160a060020a0360043581169060243516611005565b6101a9600160a060020a0360043516610678565b34801561064e57600080fd5b506101a9600160a060020a0360043516611030565b34801561066f57600080fd5b506101e1611050565b60006040805190810160405280601481526020016000805160206116a38339815191528152506106a83382610905565b3332146106b457600080fd5b6106bd33611057565b156106c757600080fd5b6005546106dd90624f1a0063ffffffff61105f16565b4211156106e957600080fd5b6005546106ff9062093a8063ffffffff61105f16565b42116107415761073a600761072e600a61072234620186a063ffffffff61106c16565b9063ffffffff61106c16565b9063ffffffff61109516565b91506107da565b61076761075862093a80600263ffffffff61106c16565b6005549063ffffffff61105f16565b421161078a5761073a600861072e600a61072234620186a063ffffffff61106c16565b6107a161075862093a80600363ffffffff61106c16565b42116107c45761073a600961072e600a61072234620186a063ffffffff61106c16565b6107d734620186a063ffffffff61106c16565b91505b6107e483836110aa565b50505050565b600054600160a060020a0316331461080157600080fd5b61082e816040805190810160405280601481526020016000805160206116a3833981519152815250611159565b61083981600061089e565b5050565b6af8277896582678ac00000081565b60408051808201909152600381527f5350540000000000000000000000000000000000000000000000000000000000602082015281565b600160a060020a031660009081526007602052604090205490565b336000818152600460209081526040808320600160a060020a038716808552908352818420869055815186815291519394909390927f8c5be1e5ebec7d5bd14f71427d1e84f3dd0314c0f7b2291e5b200ac8c7c3b925928290030190a35060015b92915050565b610839826001836040518082805190602001908083835b6020831061093b5780518252601f19909201916020918201910161091c565b51815160209384036101000a600019018019909216911617905292019485525060405193849003019092209291505061126a565b620186a081565b60055481565b600054600160a060020a0316331461099357600080fd5b6008805473ffffffffffffffffffffffffffffffffffffffff1916600160a060020a0392909216919091179055565b60035490565b6000610a34836001846040518082805190602001908083835b60208310610a005780518252601f1990920191602091820191016109e1565b51815160209384036101000a600019018019909216911617905292019485525060405193849003019092209291505061127f565b9392505050565b6000610a6a336040805190810160405280601481526020016000805160206116a38339815191528152506109c8565b1515610a9157600554610a8690624f1a0063ffffffff61105f16565b4211610a9157600080fd5b600160a060020a0383166000908152600260205260409020546af8277896582678ac00000090610ac7908463ffffffff61105f16565b1115610ad257600080fd5b610aff336040805190810160405280601481526020016000805160206116a38339815191528152506109c8565b15610b3157600554610b1a90624f1a0063ffffffff61105f16565b4211610b3157610b2a83836110aa565b9050610a34565b610b3c84848461129e565b949350505050565b600054600160a060020a03163314610b5b57600080fd5b600554610b7190624f1a0063ffffffff61105f16565b4211610b7c57600080fd5b600854604051600160a060020a0390911690303180156108fc02916000818181858888f19350505050158015610bb6573d6000803e3d6000fd5b50565b6b204fce5e3e2502611000000081565b601281565b62093a8081565b600054600160a060020a03163314610bec57600080fd5b600554610c0290624f1a0063ffffffff61105f16565b421115610c0e57600080fd5b610c3b826040805190810160405280601481526020016000805160206116a3833981519152815250611417565b610c45828261089e565b505050565b6b02e87669c308736a0400000081565b336000908152600460209081526040808320600160a060020a038616845290915281205480831115610caf57336000908152600460209081526040808320600160a060020a0388168452909152812055610ce4565b610cbf818463ffffffff6114e916565b336000908152600460209081526040808320600160a060020a03891684529091529020555b336000818152600460209081526040808320600160a060020a0389168085529083529281902054815190815290519293927f8c5be1e5ebec7d5bd14f71427d1e84f3dd0314c0f7b2291e5b200ac8c7c3b925929181900390910190a35060019392505050565b6b1363156bbee3016d7000000081565b600160a060020a031660009081526002602052604090205490565b600054600160a060020a03163314610d8c57600080fd5b60008054604051600160a060020a03909116917ff8df31144d9c2f0f6b59d69b8b98abd5459d07f2742c4df920b25aae33c6482091a26000805473ffffffffffffffffffffffffffffffffffffffff19169055565b60408051808201909152601481526000805160206116a38339815191526020820152610e0d3382610905565b600554610e2390624f1a0063ffffffff61105f16565b4211156107da57600080fd5b600054600160a060020a031681565b600080548190600160a060020a03163314610e7457600554610e6990624f1a0063ffffffff61105f16565b4211610e7457600080fd5b600160a060020a0384166000908152600260205260409020546af8277896582678ac00000090610eaa908563ffffffff61105f16565b1115610eb557600080fd5b600054600160a060020a031633148015610ee45750600554610ee090624f1a0063ffffffff61105f16565b4211155b15610f2d57600654610efc908463ffffffff61105f16565b90506b1363156bbee3016d70000000811115610f1757600080fd5b610f2184846114fb565b60068290559150610f3a565b610f3784846114fb565b91505b5092915050565b60065481565b60408051808201909152601481526000805160206116a3833981519152602082015281565b336000908152600460209081526040808320600160a060020a0386168452909152812054610fa0908363ffffffff61105f16565b336000818152600460209081526040808320600160a060020a0389168085529083529281902085905580519485525191937f8c5be1e5ebec7d5bd14f71427d1e84f3dd0314c0f7b2291e5b200ac8c7c3b925929081900390910190a350600192915050565b600160a060020a03918216600090815260046020908152604080832093909416825291909152205490565b600054600160a060020a0316331461104757600080fd5b610bb6816115de565b624f1a0081565b6000903b1190565b818101828110156108ff57fe5b600082151561107d575060006108ff565b5081810281838281151561108d57fe5b04146108ff57fe5b600081838115156110a257fe5b049392505050565b33600090815260076020526040812054819081906110ce908563ffffffff61105f16565b6006549092506110e4908563ffffffff61105f16565b90506b02e87669c308736a040000008211156110ff57600080fd5b6b1363156bbee3016d7000000081111561111857600080fd5b60005461112f90600160a060020a0316868661129e565b151561113a57600080fd5b3360009081526007602052604090209190915560065550600192915050565b6111c3826001836040518082805190602001908083835b6020831061118f5780518252601f199092019160209182019101611170565b51815160209384036101000a600019018019909216911617905292019485525060405193849003019092209291505061165b565b81600160a060020a03167fd211483f91fc6eff862467f8de606587a30c8fc9981056f051b897a418df803a826040518080602001828103825283818151815260200191508051906020019080838360005b8381101561122c578181015183820152602001611214565b50505050905090810190601f1680156112595780820380516001836020036101000a031916815260200191505b509250505060405180910390a25050565b611274828261127f565b151561083957600080fd5b600160a060020a03166000908152602091909152604090205460ff1690565b6000600160a060020a03831615156112b557600080fd5b600160a060020a0384166000908152600260205260409020548211156112da57600080fd5b600160a060020a038416600090815260046020908152604080832033845290915290205482111561130a57600080fd5b600160a060020a038416600090815260026020526040902054611333908363ffffffff6114e916565b600160a060020a038086166000908152600260205260408082209390935590851681522054611368908363ffffffff61105f16565b600160a060020a0380851660009081526002602090815260408083209490945591871681526004825282812033825290915220546113ac908363ffffffff6114e916565b600160a060020a03808616600081815260046020908152604080832033845282529182902094909455805186815290519287169391927fddf252ad1be2c89b69c2b068fc378daa952ba7f163c4a11628f55a4df523b3ef929181900390910190a35060019392505050565b611481826001836040518082805190602001908083835b6020831061144d5780518252601f19909201916020918201910161142e565b51815160209384036101000a600019018019909216911617905292019485525060405193849003019092209291505061167d565b81600160a060020a03167fbfec83d64eaa953f2708271a023ab9ee82057f8f3578d548c1a4ba0b5b700489826040518080602001828103825283818151815260200191508051906020019080838360008381101561122c578181015183820152602001611214565b6000828211156114f557fe5b50900390565b6000600160a060020a038316151561151257600080fd5b3360009081526002602052604090205482111561152e57600080fd5b3360009081526002602052604090205461154e908363ffffffff6114e916565b3360009081526002602052604080822092909255600160a060020a03851681522054611580908363ffffffff61105f16565b600160a060020a0384166000818152600260209081526040918290209390935580518581529051919233927fddf252ad1be2c89b69c2b068fc378daa952ba7f163c4a11628f55a4df523b3ef9281900390910190a350600192915050565b600160a060020a03811615156115f357600080fd5b60008054604051600160a060020a03808516939216917f8be0079c531659141344cd1fd0a4f28419497f9722a3daafe3b4186f6b6457e091a36000805473ffffffffffffffffffffffffffffffffffffffff1916600160a060020a0392909216919091179055565b600160a060020a0316600090815260209190915260409020805460ff19169055565b600160a060020a0316600090815260209190915260409020805460ff1916600117905556007072697661746553616c6557686974656c697374000000000000000000000000a165627a7a723058200bc6fbaf5c1913d02e33315880916bec497ffa18ee90e2fbf1515da4f0d79e770029",
  "source": "pragma solidity ^0.4.24;\n\nimport \"../openzeppelin-solidity/contracts/AddressUtils.sol\";\nimport \"../openzeppelin-solidity/contracts/ownership/Ownable.sol\";\nimport \"../openzeppelin-solidity/contracts/ownership/rbac/RBAC.sol\";\nimport \"../openzeppelin-solidity/contracts/token/ERC20/StandardToken.sol\";\n\ncontract SimpleToken is Ownable, RBAC, StandardToken {\n    using AddressUtils for address;\n    using SafeMath for uint256;\n\n    string public constant name    = \"SPT\";\n    string public constant symbol  = \"SPT\";\n    uint8 public constant decimals = 18;\n\n    //  100 \n    uint256 public constant INITIAL_SUPPLY              = 10000000000 * (10 ** uint256(decimals));\n    //  60 \n    uint256 public constant PRIVATE_SALE_AMOUNT         = 6000000000 * (10 ** uint256(decimals));\n    //  9 \n    uint256 public constant PRIVATE_SALE_AGENT_AMOUNT   = 900000000 * (10 ** uint256(decimals));\n    //  3 \n    uint256 public constant ADDRESS_HOLDING_AMOUNT      = 300000000 * (10 ** uint256(decimals));\n\n    //  Ether 1 Ether = 100000 SPT\n    uint256 public constant EXCHANGE_RATE_IN_PRIVATE_SALE = 100000;\n\n    // \n    uint256 public constant TIMESTAMP_INCREMENT_OF_WEEK     = 604800;\n    // 60\n    uint256 public constant TIMESTAMP_INCREMENT_OF_2MONTH   = 5184000;\n\n    //  Role \n    string public constant ROLE_PRIVATESALEWHITELIST = \"privateSaleWhitelist\";\n\n    // \n    uint256 public contractStartTime;\n\n    // \n    uint256 public totalPrivateSalesReleased;\n\n    //  token \n    mapping (address => uint256) private privateSalesReleased;\n\n    // Owner \n    address ownerWallet;\n\n    /**\n     * @dev  Owner \n     * @param _ownerWallet Owner \n     */\n    constructor(address _ownerWallet) public {\n        ownerWallet = _ownerWallet;\n        contractStartTime = block.timestamp;\n        totalSupply_ = INITIAL_SUPPLY;\n        balances[msg.sender] = totalSupply_;\n    }\n\n    /**\n     * @dev  Owner \n     * @param _ownerWallet Owner \n     */\n    function changeOwnerWallet(address _ownerWallet) public onlyOwner {\n        ownerWallet = _ownerWallet;\n    }\n\n    /**\n     * @dev \n     * @param _addr \n     * @param _amount \n     */\n    function addAddressToPrivateWhiteList(address _addr, uint256 _amount)\n        public onlyOwner\n    {\n        // TODO\n        // \n        require(block.timestamp <= contractStartTime.add(TIMESTAMP_INCREMENT_OF_2MONTH));\n\n        addRole(_addr, ROLE_PRIVATESALEWHITELIST);\n        approve(_addr, _amount);\n    }\n\n    /**\n     * @dev \n     * @param _addr \n     */\n    function removeAddressFromPrivateWhiteList(address _addr)\n        public onlyOwner\n    {\n        // TODO\n        removeRole(_addr, ROLE_PRIVATESALEWHITELIST);\n        approve(_addr, 0);\n    }\n\n    /**\n     * @dev  fallback \n     */\n    function() external payable {\n        privateSale(msg.sender);\n    }\n\n    /**\n     * @dev \n     * @param _beneficiary  token \n     */\n    function privateSale(address _beneficiary)\n        public payable onlyRole(ROLE_PRIVATESALEWHITELIST)\n    {\n        // TODO\n        //  EOA \n        require(msg.sender == tx.origin);\n        require(!msg.sender.isContract());\n        // \n        require(block.timestamp <= contractStartTime.add(TIMESTAMP_INCREMENT_OF_2MONTH));\n\n        uint256 purchaseValue;\n        if (block.timestamp <= contractStartTime.add(TIMESTAMP_INCREMENT_OF_WEEK)) {\n            //  7 \n            purchaseValue = msg.value.mul(EXCHANGE_RATE_IN_PRIVATE_SALE).mul(10).div(7);\n        } else if (block.timestamp <= contractStartTime.add(TIMESTAMP_INCREMENT_OF_WEEK.mul(2))) {\n            //  8 \n            purchaseValue = msg.value.mul(EXCHANGE_RATE_IN_PRIVATE_SALE).mul(10).div(8);\n        } else if (block.timestamp <= contractStartTime.add(TIMESTAMP_INCREMENT_OF_WEEK.mul(3))) {\n            //  9 \n            purchaseValue = msg.value.mul(EXCHANGE_RATE_IN_PRIVATE_SALE).mul(10).div(9);\n        } else {\n            purchaseValue = msg.value.mul(EXCHANGE_RATE_IN_PRIVATE_SALE);\n        }\n\n        _privateSaleTransferFromOwner(_beneficiary, purchaseValue);\n    }\n\n    /**\n     * @dev \n     * @param _addr  token \n     * @param _amount  token \n     */\n    function withdrawPrivateSaleCoins(address _addr, uint256 _amount)\n        public onlyRole(ROLE_PRIVATESALEWHITELIST)\n    {\n        // TODO\n        // \n        require(block.timestamp <= contractStartTime.add(TIMESTAMP_INCREMENT_OF_2MONTH));\n\n        _privateSaleTransferFromOwner(_addr, _amount);\n    }\n\n    /**\n     * @dev ( Owner )\n     * @param _to \n     * @param _amount \n     */\n    function _privateSaleTransferFromOwner(address _to, uint256 _amount)\n        private returns (bool)\n    {\n        uint256 newPrivateSaleAmount = privateSalesReleased[msg.sender].add(_amount);\n        uint256 newTotalPrivateSaleAmount = totalPrivateSalesReleased.add(_amount);\n        // \n        require(newPrivateSaleAmount <= PRIVATE_SALE_AGENT_AMOUNT);\n        // \n        require(newTotalPrivateSaleAmount <= PRIVATE_SALE_AMOUNT);\n\n        require(super.transferFrom(owner, _to, _amount));\n        privateSalesReleased[msg.sender] = newPrivateSaleAmount;\n        totalPrivateSalesReleased = newTotalPrivateSaleAmount;\n        return true;\n    }\n\n    /**\n     * @dev \n     */\n    function withdrawFunds() public onlyOwner {\n         // TODO\n        require(block.timestamp > contractStartTime.add(TIMESTAMP_INCREMENT_OF_2MONTH));\n\n        ownerWallet.transfer(address(this).balance);\n    }\n\n    /**\n     * @dev  token \n     * @param _addr \n     * @return  token \n     */\n    function privateSaleReleased(address _addr) public view returns (uint256) {\n        return privateSalesReleased[_addr];\n    }\n\n    /**\n     * @dev  transfer \n     */\n    function transfer(address _to, uint256 _value)\n        public returns (bool result)\n    {\n        //  super.transfer \n        // TODO\n        //  owner  transfer \n        if (msg.sender != owner) {\n            require(block.timestamp > contractStartTime.add(TIMESTAMP_INCREMENT_OF_2MONTH));\n        }\n        //  token \n        require(balances[_to].add(_value) <= ADDRESS_HOLDING_AMOUNT);\n\n        if (msg.sender == owner && block.timestamp <= contractStartTime.add(TIMESTAMP_INCREMENT_OF_2MONTH)) {\n            // owner \n            uint256 newTotalPrivateSaleAmount = totalPrivateSalesReleased.add(_value);\n            // \n            require(newTotalPrivateSaleAmount <= PRIVATE_SALE_AMOUNT);\n            result = super.transfer(_to, _value);\n            totalPrivateSalesReleased = newTotalPrivateSaleAmount;\n        } else {\n            result = super.transfer(_to, _value);\n        }\n        return result;\n    }\n\n    /**\n     * @dev  transferFrom \n     */\n    function transferFrom(\n        address _from,\n        address _to,\n        uint256 _value\n    )\n        public\n        returns (bool)\n    {\n        //  super.transferFrom \n        // TODO\n        //  transferFrom \n        if (!hasRole(msg.sender, ROLE_PRIVATESALEWHITELIST)) {\n            require(block.timestamp > contractStartTime.add(TIMESTAMP_INCREMENT_OF_2MONTH));\n        }\n        //  token \n        require(balances[_to].add(_value) <= ADDRESS_HOLDING_AMOUNT);\n        if (hasRole(msg.sender, ROLE_PRIVATESALEWHITELIST)) {\n            if (block.timestamp <= contractStartTime.add(TIMESTAMP_INCREMENT_OF_2MONTH)) {\n                return _privateSaleTransferFromOwner(_to, _value);\n            }\n        }\n        return super.transferFrom(_from, _to, _value);\n    }\n\n}\n",
  "sourcePath": "/Users/yangzhen/workspace/yikuailianxi/season1/homework-base/contracts/week2/SimpleToken.sol",
  "compiler": {
    "name": "solc",
    "version": "0.4.24+commit.e67f0147.Emscripten.clang"
  },
  "schemaVersion": "2.0.1",
  "updatedAt": "2018-10-04T03:04:01.571Z"
}