{
  "contractName": "SimplePoS",
  "abi": [
    {
      "constant": true,
      "inputs": [],
      "name": "curMiner",
      "outputs": [
        {
          "name": "",
          "type": "address"
        }
      ],
      "payable": false,
      "stateMutability": "view",
      "type": "function"
    },
    {
      "constant": false,
      "inputs": [],
      "name": "renounceOwnership",
      "outputs": [],
      "payable": false,
      "stateMutability": "nonpayable",
      "type": "function"
    },
    {
      "constant": true,
      "inputs": [],
      "name": "totalStake",
      "outputs": [
        {
          "name": "",
          "type": "uint256"
        }
      ],
      "payable": false,
      "stateMutability": "view",
      "type": "function"
    },
    {
      "constant": true,
      "inputs": [],
      "name": "owner",
      "outputs": [
        {
          "name": "",
          "type": "address"
        }
      ],
      "payable": false,
      "stateMutability": "view",
      "type": "function"
    },
    {
      "constant": false,
      "inputs": [
        {
          "name": "_newOwner",
          "type": "address"
        }
      ],
      "name": "transferOwnership",
      "outputs": [],
      "payable": false,
      "stateMutability": "nonpayable",
      "type": "function"
    },
    {
      "inputs": [],
      "payable": true,
      "stateMutability": "payable",
      "type": "constructor"
    },
    {
      "anonymous": false,
      "inputs": [
        {
          "indexed": true,
          "name": "previousOwner",
          "type": "address"
        }
      ],
      "name": "OwnershipRenounced",
      "type": "event"
    },
    {
      "anonymous": false,
      "inputs": [
        {
          "indexed": true,
          "name": "previousOwner",
          "type": "address"
        },
        {
          "indexed": true,
          "name": "newOwner",
          "type": "address"
        }
      ],
      "name": "OwnershipTransferred",
      "type": "event"
    },
    {
      "constant": false,
      "inputs": [
        {
          "name": "_addr",
          "type": "address"
        },
        {
          "name": "_minerStake",
          "type": "uint256"
        }
      ],
      "name": "addMiner",
      "outputs": [],
      "payable": false,
      "stateMutability": "nonpayable",
      "type": "function"
    },
    {
      "constant": false,
      "inputs": [
        {
          "name": "_addr",
          "type": "address"
        }
      ],
      "name": "removeMiner",
      "outputs": [],
      "payable": false,
      "stateMutability": "nonpayable",
      "type": "function"
    },
    {
      "constant": false,
      "inputs": [],
      "name": "selectNewMiner",
      "outputs": [],
      "payable": false,
      "stateMutability": "nonpayable",
      "type": "function"
    }
  ],
  "bytecode": "0x6080604090815260008054600160a060020a0319908116339081178355600180548082019091557fb10e2d527612073b26eecdfd717e6a320cf44b4afac2b0732d9fcbe2b7fa0cf601805490921681179091558152600260205220349081905560055561087f806100716000396000f30060806040526004361061008d5763ffffffff7c0100000000000000000000000000000000000000000000000000000000600035041663102425908114610092578063698e24c4146100b55780636d4bdfe3146100e6578063715018a6146100fb5780638b0e9f3f146101105780638da5cb5b1461013757806390276dc71461014c578063f2fde38b14610170575b600080fd5b34801561009e57600080fd5b506100b3600160a060020a0360043516610191565b005b3480156100c157600080fd5b506100ca6103d9565b60408051600160a060020a039092168252519081900360200190f35b3480156100f257600080fd5b506100b36103e8565b34801561010757600080fd5b506100b3610534565b34801561011c57600080fd5b506101256105a0565b60408051918252519081900360200190f35b34801561014357600080fd5b506100ca6105a6565b34801561015857600080fd5b506100b3600160a060020a03600435166024356105b5565b34801561017c57600080fd5b506100b3600160a060020a0360043516610744565b6000805481908190600160a060020a031633146101ad57600080fd5b600180541161024357604080517f08c379a000000000000000000000000000000000000000000000000000000000815260206004820152602f60248201527f5468652073696d756c61746f72206e65656473206174206c65617374206f6e6560448201527f206d696e657220746f20776f726b2e0000000000000000000000000000000000606482015290519081900360840190fd5b600160a060020a0384166000908152600360205260408120549350831180610290575060018054600090811061027557fe5b600091825260209091200154600160a060020a038581169116145b156103d357600180546102a89163ffffffff61076716565b91506001828154811015156102b957fe5b60009182526020909120015460018054600160a060020a0390921692508291859081106102e257fe5b60009182526020822001805473ffffffffffffffffffffffffffffffffffffffff1916600160a060020a039390931692909217909155600180548490811061032657fe5b6000918252602090912001805473ffffffffffffffffffffffffffffffffffffffff1916600160a060020a0392909216919091179055600180549061036f906000198301610809565b50600160a060020a0380851660008181526003602090815260408083208390559385168252838220879055918152600290915220546005546103b69163ffffffff61076716565b600555600160a060020a0384166000908152600260205260408120555b50505050565b600454600160a060020a031681565b600080548190819081908190600160a060020a0316331461040857600080fd5b60055442604051602001808281526020019150506040516020818303038152906040526040518082805190602001908083835b6020831061045a5780518252601f19909201916020918201910161043b565b5181516020939093036101000a600019018019909116921691909117905260405192018290039091209250505081151561049057fe5b60015491900695509150600090505b8181101561052d5760018054829081106104b557fe5b6000918252602080832090910154600160a060020a031680835260029091526040909120549093506104ee90859063ffffffff61077916565b935084841115610525576004805473ffffffffffffffffffffffffffffffffffffffff1916600160a060020a03851617905561052d565b60010161049f565b5050505050565b600054600160a060020a0316331461054b57600080fd5b60008054604051600160a060020a03909116917ff8df31144d9c2f0f6b59d69b8b98abd5459d07f2742c4df920b25aae33c6482091a26000805473ffffffffffffffffffffffffffffffffffffffff19169055565b60055481565b600054600160a060020a031681565b600054600160a060020a031633146105cc57600080fd5b60015415806106225750600160a060020a038216600090815260036020526040902054158015610622575060018054600090811061060657fe5b600091825260209091200154600160a060020a03838116911614155b15610740578015156106bb57604080517f08c379a000000000000000000000000000000000000000000000000000000000815260206004820152603960248201527f506c65617365206465706f73697420736f6d6520657468657273206265666f7260448201527f65207265676973746572696e672061732061206d696e65722e00000000000000606482015290519081900360840190fd5b60018054600160a060020a03841660008181526003602090815260408083208590558486019095557fb10e2d527612073b26eecdfd717e6a320cf44b4afac2b0732d9fcbe2b7fa0cf6909301805473ffffffffffffffffffffffffffffffffffffffff191690921790915560029091522081905560055461073c9082610779565b6005555b5050565b600054600160a060020a0316331461075b57600080fd5b6107648161078c565b50565b60008282111561077357fe5b50900390565b8181018281101561078657fe5b92915050565b600160a060020a03811615156107a157600080fd5b60008054604051600160a060020a03808516939216917f8be0079c531659141344cd1fd0a4f28419497f9722a3daafe3b4186f6b6457e091a36000805473ffffffffffffffffffffffffffffffffffffffff1916600160a060020a0392909216919091179055565b81548183558181111561082d5760008381526020902061082d918101908301610832565b505050565b61085091905b8082111561084c5760008155600101610838565b5090565b905600a165627a7a723058209d2a391e9008a02c2b91454a382fea988dab22239f73aa11981fe78ad772df3c0029",
  "source": "pragma solidity ^0.4.24;\n\nimport \"../openzeppelin-solidity/contracts/math/SafeMath.sol\";\nimport \"../openzeppelin-solidity/contracts/ownership/Ownable.sol\";\n\n\ncontract SimplePoS is Ownable {\n    // 对所有 uint256 类型使用 SafeMath\n    using SafeMath for uint256;\n    // 记录所有矿工地址的数组\n    address[] private allMiners;\n    // 矿工地址到其 Stake 数值的映射\n    mapping (address => uint256) private minerStakes;\n    // 矿工地址到其在 allMiners 数组中索引的映射\n    mapping (address => uint256) private allMinersIndex;\n    // 当前矿工地址\n    address public curMiner;\n    // 所有矿工账户的余额总和\n    uint256 public totalStake;\n\n    /**\n     * @dev 将合约创建者指定为第一个矿工，以保证合约的运作\n     * @notice \n     */\n    constructor() payable public {\n        allMiners.push(msg.sender);\n        minerStakes[msg.sender] = msg.value;\n        totalStake = msg.value;\n    }\n\n    /**\n     * @dev 为了简化处理，只允许由合约创建者添加矿工合约地址\n     * @param _addr 要添加的矿工节点地址\n     * @param _minerStake 矿工节点的 Stake\n     * @notice \n     */\n    function addMiner(address _addr, uint256 _minerStake) external onlyOwner {\n        if (allMiners.length == 0 ||\n            allMinersIndex[_addr] == 0 &&\n            _addr != allMiners[0])\n        {\n            if (_minerStake == 0) {\n                revert(\"Please deposit some ethers before registering as a miner.\");\n            }\n            allMinersIndex[_addr] = allMiners.length;\n            allMiners.push(_addr);\n            minerStakes[_addr] = _minerStake;\n            totalStake = totalStake.add(_minerStake);\n        }\n    }\n\n    /**\n     * @dev 为了简化处理，只允许由合约创建者移除矿工合约地址\n     * @param _addr 要移除的矿工节点地址\n     * @notice \n     */\n    function removeMiner(address _addr) external onlyOwner {\n        // 至少需要保留一个矿工\n        require(allMiners.length > 1, \"The simulator needs at least one miner to work.\");\n\n        uint256 minerIndex = allMinersIndex[_addr];\n        if (minerIndex > 0 || _addr == allMiners[0]) {\n            uint256 lastMinerIndex = allMiners.length.sub(1);\n            address lastMiner = allMiners[lastMinerIndex];\n            allMiners[minerIndex] = lastMiner;\n            allMiners[lastMinerIndex] = 0;\n            allMiners.length--;\n            allMinersIndex[_addr] = 0;\n            allMinersIndex[lastMiner] = minerIndex;\n            totalStake = totalStake.sub(minerStakes[_addr]);\n            minerStakes[_addr] = 0;\n        }\n    }\n\n    /**\n     * @dev 基于简化的 PoS 算法选出下一个矿工地址\n     * @notice 按照矿工的 Stake 在 totalStake 中的比例确定其获得记账权的几率\n     */\n    function selectNewMiner() public onlyOwner {\n        uint256 rand = uint256(keccak256(abi.encodePacked(block.timestamp))) % totalStake;\n        uint256 tmpSum;\n        address curAddress;\n        uint minersCount = allMiners.length;\n        for (uint i = 0; i < minersCount; i++) {\n            curAddress = allMiners[i];\n            tmpSum = tmpSum.add(minerStakes[curAddress]);\n            if (tmpSum > rand) {\n                curMiner = curAddress;\n                break;\n            }\n        }\n    }\n\n}",
  "sourcePath": "/Users/yangzhen/workspace/yikuailianxi/season1/homework-base/contracts/week1/SimplePoS.sol",
  "compiler": {
    "name": "solc",
    "version": "0.4.24+commit.e67f0147.Emscripten.clang"
  },
  "schemaVersion": "2.0.1",
  "updatedAt": "2018-10-04T03:04:01.545Z"
}