{
  "contractName": "SimpleRndOracle",
  "abi": [
    {
      "constant": false,
      "inputs": [],
      "name": "renounceOwnership",
      "outputs": [],
      "payable": false,
      "stateMutability": "nonpayable",
      "type": "function"
    },
    {
      "constant": true,
      "inputs": [],
      "name": "CALLBACK_FUNC_SIG",
      "outputs": [
        {
          "name": "",
          "type": "bytes4"
        }
      ],
      "payable": false,
      "stateMutability": "view",
      "type": "function"
    },
    {
      "constant": true,
      "inputs": [],
      "name": "owner",
      "outputs": [
        {
          "name": "",
          "type": "address"
        }
      ],
      "payable": false,
      "stateMutability": "view",
      "type": "function"
    },
    {
      "constant": false,
      "inputs": [
        {
          "name": "_newOwner",
          "type": "address"
        }
      ],
      "name": "transferOwnership",
      "outputs": [],
      "payable": false,
      "stateMutability": "nonpayable",
      "type": "function"
    },
    {
      "inputs": [
        {
          "name": "_trustedDataSource",
          "type": "address"
        }
      ],
      "payable": false,
      "stateMutability": "nonpayable",
      "type": "constructor"
    },
    {
      "payable": true,
      "stateMutability": "payable",
      "type": "fallback"
    },
    {
      "anonymous": false,
      "inputs": [
        {
          "indexed": true,
          "name": "_addr",
          "type": "address"
        },
        {
          "indexed": false,
          "name": "_requestID",
          "type": "uint256"
        }
      ],
      "name": "requestRegistered",
      "type": "event"
    },
    {
      "anonymous": false,
      "inputs": [
        {
          "indexed": true,
          "name": "previousOwner",
          "type": "address"
        }
      ],
      "name": "OwnershipRenounced",
      "type": "event"
    },
    {
      "anonymous": false,
      "inputs": [
        {
          "indexed": true,
          "name": "previousOwner",
          "type": "address"
        },
        {
          "indexed": true,
          "name": "newOwner",
          "type": "address"
        }
      ],
      "name": "OwnershipTransferred",
      "type": "event"
    },
    {
      "constant": false,
      "inputs": [
        {
          "name": "_trustedDataSource",
          "type": "address"
        }
      ],
      "name": "changeTrustedDataSource",
      "outputs": [],
      "payable": false,
      "stateMutability": "nonpayable",
      "type": "function"
    },
    {
      "constant": false,
      "inputs": [],
      "name": "destoryOracle",
      "outputs": [],
      "payable": false,
      "stateMutability": "nonpayable",
      "type": "function"
    },
    {
      "constant": false,
      "inputs": [],
      "name": "registerRequest",
      "outputs": [],
      "payable": false,
      "stateMutability": "nonpayable",
      "type": "function"
    },
    {
      "constant": false,
      "inputs": [
        {
          "name": "_requestID",
          "type": "uint256"
        },
        {
          "name": "_rndNumber",
          "type": "uint256"
        }
      ],
      "name": "feedbackRndData",
      "outputs": [],
      "payable": false,
      "stateMutability": "nonpayable",
      "type": "function"
    }
  ],
  "bytecode": "0x608060405234801561001057600080fd5b506040516020806107ad833981016040525160008054600160a060020a0319908116331790915560058054600160a060020a039093169290911691909117905561074e8061005f6000396000f30060806040526004361061008d5763ffffffff7c010000000000000000000000000000000000000000000000000000000060003504166333fef464811461008f578063359c6a95146100b0578063715018a6146100c55780637b70fbdf146100da5780638a5e3a84146100f55780638da5cb5b1461013f578063df393a1914610170578063f2fde38b14610185575b005b34801561009b57600080fd5b5061008d600160a060020a03600435166101a6565b3480156100bc57600080fd5b5061008d6101ec565b3480156100d157600080fd5b5061008d610211565b3480156100e657600080fd5b5061008d60043560243561027d565b34801561010157600080fd5b5061010a61043d565b604080517fffffffff000000000000000000000000000000000000000000000000000000009092168252519081900360200190f35b34801561014b57600080fd5b50610154610461565b60408051600160a060020a039092168252519081900360200190f35b34801561017c57600080fd5b5061008d610470565b34801561019157600080fd5b5061008d600160a060020a0360043516610667565b600054600160a060020a031633146101bd57600080fd5b6005805473ffffffffffffffffffffffffffffffffffffffff1916600160a060020a0392909216919091179055565b600054600160a060020a0316331461020357600080fd5b600054600160a060020a0316ff5b600054600160a060020a0316331461022857600080fd5b60008054604051600160a060020a03909116917ff8df31144d9c2f0f6b59d69b8b98abd5459d07f2742c4df920b25aae33c6482091a26000805473ffffffffffffffffffffffffffffffffffffffff19169055565b6005546000908190600160a060020a0316331461029957600080fd5b600084815260046020908152604080832054600160a060020a031680845260039092529091205490925084146102ce57600080fd5b50604080517f01ffc9a70000000000000000000000000000000000000000000000000000000081527fa46d584300000000000000000000000000000000000000000000000000000000600482015290518291600160a060020a038316916301ffc9a7916024808201926020929091908290030181600087803b15801561035357600080fd5b505af1158015610367573d6000803e3d6000fd5b505050506040513d602081101561037d57600080fd5b5051151561038a57600080fd5b600160a060020a0381166000818152600360209081526040808320839055878352600491829052808320805473ffffffffffffffffffffffffffffffffffffffff1916905580517fa46d58430000000000000000000000000000000000000000000000000000000081529182018790525163a46d58439260248084019391929182900301818387803b15801561041f57600080fd5b505af1158015610433573d6000803e3d6000fd5b5050505050505050565b7fa46d58430000000000000000000000000000000000000000000000000000000081565b600054600160a060020a031681565b60008061047c3361068a565b151561048757600080fd5b336000908152600360205260409020541561052957604080517f08c379a000000000000000000000000000000000000000000000000000000000815260206004820152602e60248201527f596f7520616c726561647920726567697374657265642061207265717565737460448201527f2c20706c6561736520776169742e000000000000000000000000000000000000606482015290519081900360840190fd5b3360009081526002602052604090205461054a90600163ffffffff61069216565b915033826040516020018083600160a060020a0316600160a060020a03166c01000000000000000000000000028152601401828152602001925050506040516020818303038152906040526040518082805190602001908083835b602083106105c45780518252601f1990920191602091820191016105a5565b51815160209384036101000a600019018019909216911617905260408051929094018290038220336000818152600284528681208b90556003845286812083905582815260048452869020805473ffffffffffffffffffffffffffffffffffffffff19168217905581845294519097509395507f24bdc1027a99a622ee39b46e1850f7a102c29ac77b02b987aecaecb46281e78794509083900301919050a25050565b600054600160a060020a0316331461067e57600080fd5b610687816106a5565b50565b6000903b1190565b8181018281101561069f57fe5b92915050565b600160a060020a03811615156106ba57600080fd5b60008054604051600160a060020a03808516939216917f8be0079c531659141344cd1fd0a4f28419497f9722a3daafe3b4186f6b6457e091a36000805473ffffffffffffffffffffffffffffffffffffffff1916600160a060020a03929092169190911790555600a165627a7a723058208fc6b9d117c9eff6fb4d0bf590c244832912df1ab3bcd40481fc107c670d7f040029",
  "source": "pragma solidity ^0.4.24;\n\nimport \"../openzeppelin-solidity/contracts/AddressUtils.sol\";\nimport \"../openzeppelin-solidity/contracts/math/SafeMath.sol\";\nimport \"../openzeppelin-solidity/contracts/ownership/Ownable.sol\";\nimport \"../openzeppelin-solidity/contracts/introspection/SupportsInterfaceWithLookup.sol\";\n\ncontract SimpleRndOracle is Ownable {\n    // 使用 AddressUtils 库合约\n    using AddressUtils for address;\n    // 使用 SafeMath 库合约\n    using SafeMath for uint256;\n    // 接受数据回调的函数选择器常量：bytes4(keccak256(\"receiveRnd(uint256)\"))\n    bytes4 public constant CALLBACK_FUNC_SIG = 0xa46d5843;\n    // 记录所有请求服务的地址的数组\n    address[] private allRequesters;\n    // 请求数据服务的地址到其请求计数的映射\n    mapping (address => uint256) private requesterNonce;\n    // 请求数据服务的地址到其当前 requestID 的映射\n    mapping (address => uint256) private requestIDs;\n    // requestID 到其结果接收地址的映射\n    mapping (uint256 => address) private callbackAddresses;\n    // 此合约所信任的唯一的数据源地址\n    address private trustedDataSource;\n    // 通知外部世界已经接收到一个数据请求（已成功注册一个数据请求）\n    event requestRegistered(address indexed _addr, uint256 _requestID);\n\n    /**\n     * @dev 构造函数\n     * @param _trustedDataSource 合约信任的外部数据服务签名地址\n     * @notice \n     */\n    constructor (address _trustedDataSource) public {\n        trustedDataSource = _trustedDataSource;\n    }\n\n    /**\n     * @dev 可接受捐赠的 fallback 函数\n     */\n    function() payable public {\n        // empty fallback function to receive donation\n    }\n\n    /**\n     * @dev 只允许 owner 调用的修改外部数据服务地址的函数\n     * @param _trustedDataSource 合约信任的外部数据服务签名地址\n     * @notice \n     */\n    function changeTrustedDataSource(address _trustedDataSource)\n        public onlyOwner\n    {\n        trustedDataSource = _trustedDataSource;\n    }\n\n    /**\n     * @dev 只允许 owner 使用的销毁服务合约并取回捐赠的函数\n     * @notice \n     */\n    function destoryOracle() public onlyOwner {\n        selfdestruct(owner);\n    }\n\n    /**\n     * @dev 确保调用方是合约制定的信任数据源地址\n     * @notice \n     */\n    modifier isTrustedDataSource() {\n        require(trustedDataSource == msg.sender);\n        _;\n    }\n\n    /**\n     * @dev 供任意合约调用的注册随机数数据请求的函数\n     * @notice \n     */\n    function registerRequest() external {\n        // 需要注册的地址必须是合约地址\n        require(msg.sender.isContract());\n        // TODO: add implementation\n        // 这个检查不是必须的，但推荐增加，因为照目前的设计，同一个地址调用多次时只会保留最后一次调用的 requestID，而外部数据服务依然会多次返回数据，会有相应的资源浪费。并且这多次注册未必时“设计中的”，所以在此加入对是否已注册数据请求的检查是一种相对安全的数据服务设计。\n        require(requestIDs[msg.sender] == 0, \"You already registered a request, please wait.\");\n        uint256 nonce = requesterNonce[msg.sender].add(1);\n        // requestID 应该是一个全局唯一的数值，因为这个合约是一个公共数据服务，所以其生成算法可以参考以太坊协议中生成新合约地址的算法。\n        uint256 requestId = uint256(keccak256(abi.encodePacked(msg.sender, nonce)));\n        requesterNonce[msg.sender] = nonce;\n        requestIDs[msg.sender] = requestId;\n        callbackAddresses[requestId] = msg.sender;\n        emit requestRegistered(msg.sender, requestId);\n    }\n\n    /**\n     * @dev 供外部数据服务地址调用的返回数据函数\n     * @param _requestID 请求 ID\n     * @param _rndNumber 返回的随机数\n     * @notice \n     */\n    function feedbackRndData(uint256 _requestID, uint256 _rndNumber)\n        external isTrustedDataSource\n    {\n        // TODO: add implementation\n        // 注意，回调之前需要先用 SupportsInterfaceWithLookup 接口\n        // 查询接收数据的合约是否有必要的回调函数\n        address callbackAddr = callbackAddresses[_requestID];\n        require(requestIDs[callbackAddr] == _requestID);\n        RndNumberReceiver receiver = RndNumberReceiver(callbackAddr);\n        require(receiver.supportsInterface(CALLBACK_FUNC_SIG));\n        // 以下两个处理是为了清理已经用过的数据，且能得到 gas 返还，是推荐的最佳实践\n        requestIDs[address(receiver)] = 0;\n        callbackAddresses[_requestID] = 0;\n        receiver.receiveRnd(_rndNumber);\n    }\n\n}\n\n/**\n * @dev 接收随机数返回的 callback 接口，\n * 这里是为了简化处理，不需要用内联汇编去发起调用，\n * 实际就是要求接收返回值的合约里有一个 receiverRnd(uint256) 函数即可。\n * @notice \n */\ncontract RndNumberReceiver is SupportsInterfaceWithLookup {\n    function receiveRnd(uint256) public;\n}\n",
  "sourcePath": "/Users/yangzhen/workspace/yikuailianxi/season1/homework-base/contracts/week1/SimpleRndOracle.sol",
  "compiler": {
    "name": "solc",
    "version": "0.4.24+commit.e67f0147.Emscripten.clang"
  },
  "schemaVersion": "2.0.1",
  "updatedAt": "2018-10-04T03:04:01.553Z"
}