{
  "contractName": "Sort",
  "abi": [
    {
      "constant": true,
      "inputs": [
        {
          "name": "input",
          "type": "uint256[]"
        }
      ],
      "name": "sort",
      "outputs": [
        {
          "name": "",
          "type": "uint256[]"
        }
      ],
      "payable": false,
      "stateMutability": "pure",
      "type": "function"
    }
  ],
  "bytecode": "0x608060405234801561001057600080fd5b506102bb806100206000396000f3006080604052600436106100405763ffffffff7c01000000000000000000000000000000000000000000000000000000006000350416639ec8b0268114610045575b600080fd5b34801561005157600080fd5b506040805160206004803580820135838102808601850190965280855261009a953695939460249493850192918291850190849080828437509497506100ea9650505050505050565b60408051602080825283518183015283519192839290830191858101910280838360005b838110156100d65781810151838201526020016100be565b505050509050019250505060405180910390f35b606060018251111561010857610106826000600185510361010c565b505b5090565b60606000828412156101445761012385858561014c565b905061013385856001840361010c565b5061014285826001018561010c565b505b509392505050565b600080600080600080888781518110151561016357fe5b9060200190602002015194506001880393508792505b868312156102155784898481518110151561019057fe5b602090810290910101511361020a5788516001909401938990859081106101b357fe5b90602001906020020151915088838151811015156101cd57fe5b9060200190602002015189858151811015156101e557fe5b60209081029091010152885182908a90859081106101ff57fe5b602090810290910101525b600190920191610179565b888460010181518110151561022657fe5b906020019060200201519050888781518110151561024057fe5b90602001906020020151898560010181518110151561025b57fe5b60209081029091010152885181908a908990811061027557fe5b6020908102919091010152505050600101959450505050505600a165627a7a72305820b03ebbef685f618e910e4eb29ce7b544ac1565a5fe4af8697b75f9be0fb2b7e20029",
  "source": "/**\n * This file is part of the 1st Solidity Gas Golfing Contest.\n *\n * This work is licensed under Creative Commons Attribution ShareAlike 3.0.\n * https://creativecommons.org/licenses/by-sa/3.0/\n */\n\npragma solidity 0.4.24;\n\ncontract Sort {\n    /**\n     * @dev Sorts a list of integers in ascending order.\n     *\n     * The input list may be of any length.\n     *\n     * @param input The list of integers to sort.\n     * @return The sorted list.\n     */\n    function sort(uint[] input) public pure returns(uint[]) {\n        if (input.length > 1) {\n            sort(input, 0, int(input.length - 1));\n            // quickSort(input, 0, int(input.length - 1));\n            // quickSort(input, 0, input.length - 1, input[0], input[input.length - 1]);\n        }\n        return input;\n    }\n\n    function sort(uint[] arr, int low, int high) private pure returns (uint[]) {\n        if (low < high) {\n            int pi = partition1(arr, low, high);\n            sort(arr, low, pi - 1);\n            sort(arr, pi + 1, high);\n        }\n    }\n\n    function partition1(uint[] arr, int low, int high) internal pure returns(int) {\n        int pivot = int(arr[uint(high)]);\n        int i = (low - 1); // index of smaller element\n        for (int j = low; j < high; j++) {\n            if (int(arr[uint(j)]) <= pivot) {\n                i++;\n                uint temp = arr[uint(i)];\n                arr[uint(i)] = arr[uint(j)];\n                arr[uint(j)] = temp;\n            }\n        }\n        uint temp2 = arr[uint(i + 1)];\n        arr[uint(i + 1)] = arr[uint(high)];\n        arr[uint(high)] = temp2;\n        return i + 1;\n    }\n\n    function partition2(uint[] arr, int low, int high) internal pure returns(int) {\n        int pivot = int(arr[uint(high)]);\n        int i = (low - 1); // index of smaller element\n        for (int j = low; j < high; j++) {\n            if (int(arr[uint(j)]) <= pivot) {\n                i++;\n                (arr[uint(i)], arr[uint(j)]) = (arr[uint(j)], arr[uint(i)]);\n            }\n        }\n        (arr[uint(i + 1)], arr[uint(high)]) = (arr[uint(high)], arr[uint(i + 1)]);\n        return i + 1;\n    }\n\n    function partition3(uint[] arr, int low, int high) internal pure returns(int) {\n        int pivot = int(arr[uint(high)]);\n        int i = (low - 1); // index of smaller element\n        for (int j = low; j < high; j++) {\n            if (int(arr[uint(j)]) <= pivot) {\n                i++;\n                if (i != j) {\n                    arr[uint(i)] ^= arr[uint(j)];\n                    arr[uint(j)] ^= arr[uint(i)];\n                    arr[uint(i)] ^= arr[uint(j)];\n                }\n            }\n        }\n        if (i + 1 != high) {\n            arr[uint(i + 1)] ^= arr[uint(high)];\n            arr[uint(high)] ^= arr[uint(i + 1)];\n            arr[uint(i + 1)] ^= arr[uint(high)];\n        }\n        return i + 1;\n    }\n\n    function quickSort(uint[] memory arr, int left, int right) internal pure {\n        int i = left;\n        int j = right;\n        if (i == j) return;\n        uint pivot = arr[uint(left + (right - left) / 2)];\n        while (i <= j) {\n            while (arr[uint(i)] < pivot) i++;\n            while (pivot < arr[uint(j)]) j--;\n            if (i <= j) {\n                (arr[uint(i)], arr[uint(j)]) = (arr[uint(j)], arr[uint(i)]);\n                i++;\n                j--;\n            }\n        }\n        if (left < j) quickSort(arr, left, j);\n        if (i < right) quickSort(arr, i, right);\n    }\n\n    /**\n     * @dev Sorts an array of integers.\n     *      The primary algorithm is quicksort.\n     *      The pivot is chosen using Median-of-3.\n     *      Hoare partitioning is used to divide the array.\n     *      Insertion sort is used for small partitions (<=7).\n     *\n     * @param input The list of integers to sort.\n     * @param lo Start index\n     * @param hi End index\n     * @param loElem Element at `lo`\n     * @param hiElem Element at `hi`\n     */\n    function quickSort(\n        uint[] input,\n        uint lo,\n        uint hi,\n        uint loElem,\n        uint hiElem\n    )\n     private\n     pure\n    {\n        // Pivot (Median of 3)\n        uint i = uint((hi+lo)/2);\n        uint pivot = input[i];\n        if(loElem >= pivot) { // [pivot, loElem] [hiElem]\n            if(loElem <= hiElem) {\n                // [pivot, loElem, hiElem]\n                // Only swap pivot and loElem\n                input[lo] = pivot;\n                input[i] = loElem;\n                (loElem, pivot) = (pivot, loElem);\n            } else {\n                // [pivot, hiElem, loElem] or [hiElem, pivot, loElem]\n                if(hiElem >= pivot) {\n                    // [pivot, hiElem, loElem]\n                    input[lo] = pivot;\n                    input[i] = hiElem;\n                    input[hi] = loElem;\n                    (loElem, pivot, hiElem) = (pivot, hiElem, loElem);\n                } else {\n                    // [hiElem, pivot, loElem]\n                    input[lo] = hiElem;\n                    input[hi] = loElem;\n                    (loElem, hiElem) = (hiElem, loElem);\n                }\n            }\n        } else {// if(loElem < pivot) { // [loElem, pivot] [hiElem]\n            if(pivot >= hiElem) {\n                // [loElem, hiElem, pivot] or [hiElem, loElem, pivot]\n                if(hiElem >= loElem) {\n                    // [loElem, hiElem, pivot]\n                    input[i] = hiElem;\n                    input[hi] = pivot;\n                    (pivot, hiElem) = (hiElem, pivot);\n                } else {\n                    // [hiElem, loElem, pivot]\n                    input[lo] = hiElem;\n                    input[i] =  loElem;\n                    input[hi] = pivot;\n                    (loElem, pivot, hiElem) = (hiElem, loElem, pivot);\n                }\n            } else {\n                // [loElem, pivot, hiElem]\n                // Do nothing\n            }\n        }\n\n        // Hoare partition algorithm\n        // Note we skip the lo/hi elements because\n        // they're already in the correct position.\n        uint iElem;\n        uint jElem;\n        uint j = hi;\n        i = lo;\n        while(true) {\n            // Bounds checking has been omitted for efficiency.\n            // The Median-of-Three mitigates this edge case, but does not eliminate it.\n            // In practice, add bounds checking to be safe.\n            while((iElem=input[uint(++i)]) <= pivot) {}\n            while((jElem=input[uint(--j)]) >= pivot) {}\n\n            // When `i` and `j` cross we're finished partitioning.\n            if(i >= j) {\n                // Sort left\n                if(j - lo <= 7) insertionSort(input, lo, j);\n                else            quickSort(input, lo, j, loElem, jElem);\n                // Sort right\n                if(hi - i <= 7) return insertionSort(input, i, hi);\n                                return  quickSort(input, i, hi, iElem, hiElem);\n            }\n\n            // Swap elements between partitions.\n            input[uint(i)] = jElem;\n            input[uint(j)] = iElem;\n        }\n    }\n\n    /**\n     * @dev Sorts an array of integers using a modified Insertion Sort.\n     *      Maximum length is 7. For efficiency, we've completely unrolled\n     *      the insertion sort loop. This saves about 100k gas.\n     *\n     * @param input The list of integers to sort.\n     * @param lo Start index\n     * @param hi End index\n     */\n    function insertionSort(\n        uint[] input,\n        uint lo,\n        uint hi\n    )\n        private\n        pure\n    {\n        // Base case\n        if(lo == hi) return;\n        \n        // Increment `hi` so we can use `==` in our exit checks\n        ++hi;\n\n        // A variable is created as-needed for each element of `input`,\n        // following alphabetical naming: [a, b, c, d, e, f, g]\n        uint a = input[lo];\n        // Index into `input`\n        uint i = lo + 1;\n\n        //// Run Insertion Sort ////\n\n        // Iteration 1\n        uint b = input[i];\n        if(a > b) {\n            (a, b) = (b, a);\n        }\n        if(++i == hi) {\n            input[lo++] = a;\n            input[lo++] = b;\n            return;\n        }\n\n        // Iteration 2\n        uint c = input[i];\n        if(b > c) {\n            (b, c) = (c, b);\n            if(a > b) {\n                (a, b) = (b, a);\n            }\n        }\n        if(++i == hi) {\n            input[lo++] = a;\n            input[lo++] = b;\n            input[lo++] = c;\n            return;\n        }\n\n        // Iteration 3\n        uint d = input[i];\n        if(c > d) {\n            (c, d) = (d, c);\n            if(b > c) {\n                (b, c) = (c, b);\n                if(a > b) {\n                    (a, b) = (b, a);\n                }\n            }\n        }\n        if(++i == hi) {\n            input[lo++] = a;\n            input[lo++] = b;\n            input[lo++] = c;\n            input[lo++] = d;\n            return;\n        }\n\n        // Iteration 4\n        uint e = input[i];\n        if(d > e) {\n            (d, e) = (e, d);\n            if(c > d) {\n                (c, d) = (d, c);\n                if(b > c) {\n                    (b, c) = (c, b);\n                    if(a > b) {\n                        (a, b) = (b, a);\n                    }\n                }\n            }\n        }\n        if(++i == hi) {\n            input[lo++] = a;\n            input[lo++] = b;\n            input[lo++] = c;\n            input[lo++] = d;\n            input[lo++] = e;\n            return;\n        }\n\n        // Iteration 5\n        uint f = input[i];\n        if(e > f) {\n            (e, f) = (f, e);\n            if(d > e) {\n                (d, e) = (e, d);\n                if(c > d) {\n                    (c, d) = (d, c);\n                    if(b > c) {\n                        (b, c) = (c, b);\n                        if(a > b) {\n                            (a, b) = (b, a);\n                        }\n                    }\n                }\n            }\n        }\n        if(++i == hi) {\n            input[lo++] = a;\n            input[lo++] = b;\n            input[lo++] = c;\n            input[lo++] = d;\n            input[lo++] = e;\n            input[lo++] = f;\n            return;\n        }\n\n        // Iteration 6\n        uint g = input[i];\n        if(f > g) {\n            (f, g) = (g, f);\n            if(e > f) {\n                (e, f) = (f, e);\n                if(d > e) {\n                    (d, e) = (e, d);\n                    if(c > d) {\n                        (c, d) = (d, c);\n                        if(b > c) {\n                            (b, c) = (c, b);\n                            if(a > b) {\n                                (a, b) = (b, a);\n                            }\n                        }\n                    }\n                }\n            }\n        }\n        if(++i == hi) {\n            input[lo++] = a;\n            input[lo++] = b;\n            input[lo++] = c;\n            input[lo++] = d;\n            input[lo++] = e;\n            input[lo++] = f;\n            input[lo++] = g;\n            return;\n        }\n\n        // Iteration 7\n        uint h = input[i];\n        if(g > h) {\n            (g, h) = (h, g);\n            if(f > g) {\n                (f, g) = (g, f);\n                if(e > f) {\n                    (e, f) = (f, e);\n                    if(d > e) {\n                        (d, e) = (e, d);\n                        if(c > d) {\n                            (c, d) = (d, c);\n                            if(b > c) {\n                                (b, c) = (c, b);\n                                if(a > b) {\n                                    (a, b) = (b, a);\n                                }\n                            }\n                        }\n                    }\n                }\n            }\n        }\n        if(++i == hi) {\n            input[lo++] = a;\n            input[lo++] = b;\n            input[lo++] = c;\n            input[lo++] = d;\n            input[lo++] = e;\n            input[lo++] = f;\n            input[lo++] = g;\n            input[lo++] = h;\n            return;\n        }\n    }\n\n}\n",
  "sourcePath": "/Users/yangzhen/workspace/yikuailianxi/season1/homework-base/contracts/week4/Sort.sol",
  "compiler": {
    "name": "solc",
    "version": "0.4.24+commit.e67f0147.Emscripten.clang"
  },
  "schemaVersion": "2.0.1",
  "updatedAt": "2018-09-16T07:23:40.891Z"
}