{
  "contractName": "Superuser",
  "abi": [
    {
      "constant": true,
      "inputs": [
        {
          "name": "_operator",
          "type": "address"
        },
        {
          "name": "_role",
          "type": "string"
        }
      ],
      "name": "checkRole",
      "outputs": [],
      "payable": false,
      "stateMutability": "view",
      "type": "function"
    },
    {
      "constant": true,
      "inputs": [
        {
          "name": "_operator",
          "type": "address"
        },
        {
          "name": "_role",
          "type": "string"
        }
      ],
      "name": "hasRole",
      "outputs": [
        {
          "name": "",
          "type": "bool"
        }
      ],
      "payable": false,
      "stateMutability": "view",
      "type": "function"
    },
    {
      "constant": false,
      "inputs": [],
      "name": "renounceOwnership",
      "outputs": [],
      "payable": false,
      "stateMutability": "nonpayable",
      "type": "function"
    },
    {
      "constant": true,
      "inputs": [],
      "name": "owner",
      "outputs": [
        {
          "name": "",
          "type": "address"
        }
      ],
      "payable": false,
      "stateMutability": "view",
      "type": "function"
    },
    {
      "constant": true,
      "inputs": [],
      "name": "ROLE_SUPERUSER",
      "outputs": [
        {
          "name": "",
          "type": "string"
        }
      ],
      "payable": false,
      "stateMutability": "view",
      "type": "function"
    },
    {
      "inputs": [],
      "payable": false,
      "stateMutability": "nonpayable",
      "type": "constructor"
    },
    {
      "anonymous": false,
      "inputs": [
        {
          "indexed": true,
          "name": "operator",
          "type": "address"
        },
        {
          "indexed": false,
          "name": "role",
          "type": "string"
        }
      ],
      "name": "RoleAdded",
      "type": "event"
    },
    {
      "anonymous": false,
      "inputs": [
        {
          "indexed": true,
          "name": "operator",
          "type": "address"
        },
        {
          "indexed": false,
          "name": "role",
          "type": "string"
        }
      ],
      "name": "RoleRemoved",
      "type": "event"
    },
    {
      "anonymous": false,
      "inputs": [
        {
          "indexed": true,
          "name": "previousOwner",
          "type": "address"
        }
      ],
      "name": "OwnershipRenounced",
      "type": "event"
    },
    {
      "anonymous": false,
      "inputs": [
        {
          "indexed": true,
          "name": "previousOwner",
          "type": "address"
        },
        {
          "indexed": true,
          "name": "newOwner",
          "type": "address"
        }
      ],
      "name": "OwnershipTransferred",
      "type": "event"
    },
    {
      "constant": true,
      "inputs": [
        {
          "name": "_addr",
          "type": "address"
        }
      ],
      "name": "isSuperuser",
      "outputs": [
        {
          "name": "",
          "type": "bool"
        }
      ],
      "payable": false,
      "stateMutability": "view",
      "type": "function"
    },
    {
      "constant": false,
      "inputs": [
        {
          "name": "_newSuperuser",
          "type": "address"
        }
      ],
      "name": "transferSuperuser",
      "outputs": [],
      "payable": false,
      "stateMutability": "nonpayable",
      "type": "function"
    },
    {
      "constant": false,
      "inputs": [
        {
          "name": "_newOwner",
          "type": "address"
        }
      ],
      "name": "transferOwnership",
      "outputs": [],
      "payable": false,
      "stateMutability": "nonpayable",
      "type": "function"
    }
  ],
  "bytecode": "0x608060405234801561001057600080fd5b5060008054600160a060020a0319163390811790915560408051808201909152600981527f7375706572757365720000000000000000000000000000000000000000000000602082015261006d9190640100000000610072810204565b6101b5565b6100e9826001836040518082805190602001908083835b602083106100a85780518252601f199092019160209182019101610089565b51815160209384036101000a600019018019909216911617905292019485525060405193849003019092209291505064010000000061019081026107e51704565b81600160a060020a03167fbfec83d64eaa953f2708271a023ab9ee82057f8f3578d548c1a4ba0b5b700489826040518080602001828103825283818151815260200191508051906020019080838360005b8381101561015257818101518382015260200161013a565b50505050905090810190601f16801561017f5780820380516001836020036101000a031916815260200191505b509250505060405180910390a25050565b600160a060020a0316600090815260209190915260409020805460ff19166001179055565b610856806101c46000396000f30060806040526004361061008d5763ffffffff7c01000000000000000000000000000000000000000000000000000000006000350416630988ca8c8114610092578063217fe6c6146100fb57806357c393fa14610176578063715018a6146101975780638da5cb5b146101ac578063bceee05e146101dd578063ebb4f484146101fe578063f2fde38b14610288575b600080fd5b34801561009e57600080fd5b5060408051602060046024803582810135601f81018590048502860185019096528585526100f9958335600160a060020a03169536956044949193909101919081908401838280828437509497506102a99650505050505050565b005b34801561010757600080fd5b5060408051602060046024803582810135601f8101859004850286018501909652858552610162958335600160a060020a03169536956044949193909101919081908401838280828437509497506103179650505050505050565b604080519115158252519081900360200190f35b34801561018257600080fd5b506100f9600160a060020a036004351661038a565b3480156101a357600080fd5b506100f9610429565b3480156101b857600080fd5b506101c1610495565b60408051600160a060020a039092168252519081900360200190f35b3480156101e957600080fd5b50610162600160a060020a03600435166104a4565b34801561020a57600080fd5b506102136104d9565b6040805160208082528351818301528351919283929083019185019080838360005b8381101561024d578181015183820152602001610235565b50505050905090810190601f16801561027a5780820380516001836020036101000a031916815260200191505b509250505060405180910390f35b34801561029457600080fd5b506100f9600160a060020a03600435166104fe565b610313826001836040518082805190602001908083835b602083106102df5780518252601f1990920191602091820191016102c0565b51815160209384036101000a600019018019909216911617905292019485525060405193849003019092209291505061052f565b5050565b6000610383836001846040518082805190602001908083835b6020831061034f5780518252601f199092019160209182019101610330565b51815160209384036101000a6000190180199092169116179052920194855250604051938490030190922092915050610544565b9392505050565b6103b73360408051908101604052806009815260200160008051602061080b8339815191528152506102a9565b600160a060020a03811615156103cc57600080fd5b6103f93360408051908101604052806009815260200160008051602061080b833981519152815250610563565b6104268160408051908101604052806009815260200160008051602061080b833981519152815250610674565b50565b600054600160a060020a0316331461044057600080fd5b60008054604051600160a060020a03909116917ff8df31144d9c2f0f6b59d69b8b98abd5459d07f2742c4df920b25aae33c6482091a26000805473ffffffffffffffffffffffffffffffffffffffff19169055565b600054600160a060020a031681565b60006104d38260408051908101604052806009815260200160008051602061080b833981519152815250610317565b92915050565b604080518082019091526009815260008051602061080b833981519152602082015281565b600054600160a060020a031633148061051b575061051b336104a4565b151561052657600080fd5b61042681610746565b6105398282610544565b151561031357600080fd5b600160a060020a03166000908152602091909152604090205460ff1690565b6105cd826001836040518082805190602001908083835b602083106105995780518252601f19909201916020918201910161057a565b51815160209384036101000a60001901801990921691161790529201948552506040519384900301909220929150506107c3565b81600160a060020a03167fd211483f91fc6eff862467f8de606587a30c8fc9981056f051b897a418df803a826040518080602001828103825283818151815260200191508051906020019080838360005b8381101561063657818101518382015260200161061e565b50505050905090810190601f1680156106635780820380516001836020036101000a031916815260200191505b509250505060405180910390a25050565b6106de826001836040518082805190602001908083835b602083106106aa5780518252601f19909201916020918201910161068b565b51815160209384036101000a60001901801990921691161790529201948552506040519384900301909220929150506107e5565b81600160a060020a03167fbfec83d64eaa953f2708271a023ab9ee82057f8f3578d548c1a4ba0b5b700489826040518080602001828103825283818151815260200191508051906020019080838360008381101561063657818101518382015260200161061e565b600160a060020a038116151561075b57600080fd5b60008054604051600160a060020a03808516939216917f8be0079c531659141344cd1fd0a4f28419497f9722a3daafe3b4186f6b6457e091a36000805473ffffffffffffffffffffffffffffffffffffffff1916600160a060020a0392909216919091179055565b600160a060020a0316600090815260209190915260409020805460ff19169055565b600160a060020a0316600090815260209190915260409020805460ff1916600117905556007375706572757365720000000000000000000000000000000000000000000000a165627a7a723058200ee95e113cc798ebfa7d9360ec4d81ae38b94865681150a672dc1d019cb328ea0029",
  "source": "pragma solidity ^0.4.24;\n\n\nimport \"./Ownable.sol\";\nimport \"./rbac/RBAC.sol\";\n\n\n/**\n * @title Superuser\n * @dev The Superuser contract defines a single superuser who can transfer the ownership \n * of a contract to a new address, even if he is not the owner. \n * A superuser can transfer his role to a new address. \n */\ncontract Superuser is Ownable, RBAC {\n  string public constant ROLE_SUPERUSER = \"superuser\";\n\n  constructor () public {\n    addRole(msg.sender, ROLE_SUPERUSER);\n  }\n\n  /**\n   * @dev Throws if called by any account that's not a superuser.\n   */\n  modifier onlySuperuser() {\n    checkRole(msg.sender, ROLE_SUPERUSER);\n    _;\n  }\n\n  modifier onlyOwnerOrSuperuser() {\n    require(msg.sender == owner || isSuperuser(msg.sender));\n    _;\n  }\n\n  /**\n   * @dev getter to determine if address has superuser role\n   */\n  function isSuperuser(address _addr)\n    public\n    view\n    returns (bool)\n  {\n    return hasRole(_addr, ROLE_SUPERUSER);\n  }\n\n  /**\n   * @dev Allows the current superuser to transfer his role to a newSuperuser.\n   * @param _newSuperuser The address to transfer ownership to.\n   */\n  function transferSuperuser(address _newSuperuser) public onlySuperuser {\n    require(_newSuperuser != address(0));\n    removeRole(msg.sender, ROLE_SUPERUSER);\n    addRole(_newSuperuser, ROLE_SUPERUSER);\n  }\n\n  /**\n   * @dev Allows the current superuser or owner to transfer control of the contract to a newOwner.\n   * @param _newOwner The address to transfer ownership to.\n   */\n  function transferOwnership(address _newOwner) public onlyOwnerOrSuperuser {\n    _transferOwnership(_newOwner);\n  }\n}\n",
  "sourcePath": "/Users/yangzhen/workspace/yikuailianxi/season1/homework-base/contracts/openzeppelin-solidity/contracts/ownership/Superuser.sol",
  "compiler": {
    "name": "solc",
    "version": "0.4.24+commit.e67f0147.Emscripten.clang"
  },
  "schemaVersion": "2.0.1",
  "updatedAt": "2018-09-16T07:23:40.846Z"
}